:100000000C94C3020C94E0020C94E0020C94E00205
:100010000C94E0020C94E0020C94E0020C94E002D8
:100020000C94E0020C94E0020C94E0020C94E002C8
:100030000C94E0020C94E0020C94E0020C94E002B8
:100040000C94E0020C94E0020C94E0020C94E002A8
:100050000C94E0020C94E0020C94E0020C94E00298
:100060000C94E0020C94E0020C94E0020C94E00288
:100070000C94E0020C94E0020C94E0026E616E00BD
:10008000696E660000407A10F35A00A0724E18099B
:100090000010A5D4E80000E87648170000E40B54EF
:1000A000020000CA9A3B000000E1F50500008096BE
:1000B0009800000040420F000000A08601000000F0
:1000C000102700000000E8030000000064000000AA
:1000D00000000A00000000000100000000002C7673
:1000E000D888DC674F0823DFC1DFAE59E1B1B7968E
:1000F000E5E3E453C63AE651997696E8E6C28426EB
:10010000EB898C9B62ED407C6FFCEFBC9C9F40F2C6
:10011000BAA56FA5F490055A2AF75C936B6CF96742
:100120006DC11BFCE0E40D47FEF520E6B500D0ED07
:10013000902E0300943577050080841E080000206F
:100140004E0A000000C80C333333330F986E12830D
:100150001141EF8D2114893BE65516CFFEE6DB18E1
:10016000D1844B381BF77C1D901DA4BBE4242032A6
:1001700084725E228100C9F124ECA1E53D270600CE
:10018000000000000000000F00000F00000F000042
:100190000F00000000000000000000000000000050
:1001A0000000000000000000000000000700001E2A
:1001B00000E01F00FF1FF8FF03FF1F00FF01000FFB
:1001C000000000000000000000000000000000002F
:1001D000000000000000000000000E000000C07FD2
:1001E00000F8FF01FCFF07FCFF073E800F0E000E2A
:1001F0000E000E0E000E1E800FFCFF07FCFF07F81E
:10020000FF01C07F000000000E00000070000E38EB
:10021000000E38000E1C000E0E000EFEFF0FFEFF3B
:100220000FFEFF0FFEFF0F00000E00000E00000E7D
:1002300000000E0000000E00000060000F78800F2C
:100240007CC00F7CE00F1EF00F0EF80E0E7C0E0E21
:100250003E0E1E1F0EFE0F0EFC070EF8030EF001E1
:100260000E0000000E0000003080013880033C804A
:10027000073C800F1E000F0E0E0E0E0E0E0E0E0E01
:100280001E1F0FFEFF0FFCFB07FCF903F0E001004F
:1002900000000F00000000F00000F80000FE0080E9
:1002A000EF00C0E700F0E1007CE0003EE000FEFF70
:1002B0000FFEFF0FFEFF0FFEFF0F00E00000E0004B
:1002C0000E000000008001F88703FE8707FE870FFD
:1002D000FE070F0E030E8E030E8E030E8E070F8E7B
:1002E000FF070EFF070EFE0300FC000000000E00DB
:1002F0000000C07F00F0FF01F8FF07FCFF073E0E83
:100300000F0E070E0E070E0E070E1E0F0F3EFF0FED
:100310003CFE0738FE0330F8010000000E0000002C
:100320000E00000E00000E00000E000F0EE00F0E7B
:10033000F80F0EFE0F8EFF00CE0F00FE0300FE0032
:10034000003E00001E00000000000E000000F0E073
:1003500001F8FB03FCFB07FEFF0F1E1F0F0E0E0E26
:100360000E0E0E0E0E0E1E1F0FFEFF0FFCFB07FCE7
:10037000FB03F0E0010000000E000000F08301F834
:100380008703FC8F07FE9F0F1E1E0F0E1C0E0E1CF8
:100390000E0E1C0E1E8E0FFCFF07FCFF03F8FF0164
:1003A000C07F00000000000000000000005F0000AF
:1003B0000007000700147F147F14242A7F2A1223C9
:1003C0001308646236495522500005030000001CE2
:1003D0002241000041221C00082A1C2A0808083E6D
:1003E0000808005030000008080808080060600095
:1003F0000020100804023E5149453E00427F400063
:1004000042615149462141454B311814127F102752
:10041000454545393C4A494930017109050336498A
:10042000494936064949291E00363600000056362D
:10043000000000081422411414141414412214085A
:10044000000201510906324979413E7E1111117EA7
:100450007F494949363E414141227F4141221C7F2B
:10046000494949417F090901013E414151327F0813
:1004700008087F00417F41002040413F017F081470
:1004800022417F404040407F0204027F7F040810E9
:100490007F3E4141413E7F090909063E4151215EAF
:1004A0007F09192946464949493101017F01013F28
:1004B0004040403F1F2040201F7F2018207F6314B2
:1004C0000814630304780403615149454300007F25
:1004D0004141020408102041417F00000402010252
:1004E000044040404040000102040020545454782D
:1004F0007F484444383844444420384444487F3892
:1005000054545418087E090102081454543C7F08BE
:1005100004047800447D40002040443D00007F10EA
:10052000284400417F40007C041804787C080404BF
:100530007838444444387C14141408081414187C83
:100540007C080404084854545420043F4440203C90
:100550004040207C1C2040201C3C4030403C442833
:100560001028440C5050503C4464544C440008360D
:10057000410000007F0000004136080008082A1CE6
:1005800008081C2A080811241FBECFEFD0E1DEBFE7
:10059000CDBF11E0A0E0B1E0EEEAF2E202C00590CA
:1005A0000D92A43BB107D9F725E0A4EBB1E001C05F
:1005B0001D92A93CB207E1F70E94A7080C945511BF
:1005C0000C9400000E947709089545980E94CE037C
:1005D0000895459A0E94CE030895CF93C82F81E8CD
:1005E0000E94E502C03420F08FE30E94E50203C0C0
:1005F0008C2F0E94E502CF91089584EA0E94E502C3
:100600008DEA0E94E50280E00E94E5028FEA0E94E6
:10061000E50208958F70806B0E94E502089585EAD7
:100620000E94E502089584EA0E94E50208958295F9
:100630008F7080610E94E50208958F700E94E5022C
:100640000895CF93C82F0E9417038C2F0E941D037B
:10065000CF9108958F7380640E94E5020895CF932F
:10066000DF93D0E08D2F0E940A0380E00E942103D7
:10067000C0E080E00E94E902CF5FC038D1F7DF5FC1
:10068000D03181F7DF91CF910895CF92DF92EF9231
:10069000FF920F931F93CF93DF93E12CF12C20E077
:1006A00030E0C12CE091BA05F091BB058901085FEB
:1006B0001F4F818190E0801791075CF5838190E066
:1006C0008217930774F18C2D0E940A03E091BA05FA
:1006D000F091BB0580810E942103E091BA05F09161
:1006E000BB05D08082818D15A0F0E701E091B805AF
:1006F000F091B905EC0FFD1FED0DF11D80810E94F9
:10070000E902D394E091BA05F091BB0582818D1581
:1007100068F7C39480E8E80EF11C980100381105D1
:1007200009F60E943004DF91CF911F910F91FF9045
:10073000EF90DF90CF90089582EE0E94E50283EA69
:100740000E94E50280EA0E94E50288EC0E94E50230
:1007500080E40E94E5028CE20E94E50282E30E94AE
:10076000E5028EE20E94E50284ED90E30197F1F745
:100770008FE20E94E50284EC99E00197F1F784E2B0
:100780000E94E50286EA0E94E5028EE10E94ED02E7
:100790008FEA0E94E5020E94FD020895479898E0C2
:1007A000882314F4439A01C04398880F429A4298D0
:1007B0009150B1F7479A08954798469884EC99E08C
:1007C0000197F1F7469A479A08953E9A0E94DC03F2
:1007D0003A9A3B9A439A3F9A3D9A479A479A8CE4B1
:1007E0009DE10197F1F70E949C030E940F030E9474
:1007F000130380E00E942A030E942F0364EB71E040
:1008000088EB91E00E946B040E94430408958823C2
:100810000CF48FE744230CF44FE7603408F06FE3E7
:10082000203408F02FE3E091BA05F091BB059081E8
:10083000891708F48083E091BA05F091BB058281A5
:10084000841708F442838181681708F46183E0917A
:10085000BA05F091BB058381821708F423830895BC
:10086000E091BA05F091BB058FE78083E091BA056E
:10087000F091BB0512828FE38183E091BA05F0917C
:10088000BB0513820895E091B805F091B90580E0A9
:1008900094E0DF019C011D9221503040E1F72FE3ED
:1008A0004FE760E080E00E9407040E94450308953E
:1008B000E091B805F091B90580E094E0DF019C017A
:1008C0001D9221503040E1F72FE34FE760E080E0D8
:1008D0000E94070408959093B9058093B80570931A
:1008E000BB056093BA0508958823E4F16034D0F520
:1008F0004423D1F0E82FF0E0962F969596959695A3
:1009000020E8929FE00DF11D1124E854FE4F962F30
:10091000977021E030E002C0220F331F9A95E2F772
:100920009081292B20831AC0E82FF0E0962F96950E
:100930009695969520E8929FE00DF11D1124E854BC
:10094000FE4F962F977021E030E002C0220F331F38
:100950009A95E2F72095908129232083262F482F0E
:100960000E94070408950F93ECEBF5E091838083D8
:10097000628343832483058381E086830F910895F6
:100980002F923F924F925F926F927F928F929F929F
:10099000AF92BF92CF92DF92EF92FF920F931F938D
:1009A000CF93DF93CDB7DEB72F970FB6F894DEBFA6
:1009B0000FBECDBF882E562E2091C005421730F0B5
:1009C0008091C105841718F44EE201C04EE2809177
:1009D000C205811158C08091BE05882309F40DC25B
:1009E000412C0F2EFCEBCF2EF5E0DF2EF02DE42E68
:1009F000F12C912CA52CB12C00E410E00A191B0954
:100A0000682CD60114969C9114979701291B3109E3
:100A1000829FF001839FF00D1124842D90E0E80F58
:100A2000F91F2D903C90E20DF31DE491880D991D66
:100A3000803891050CF095C1B0E4AB16B1040CF010
:100A400092C1752C1A8219822E2E312CC101098077
:100A500002C0959587950A94E2F780FF06C041E0B1
:100A6000672D862D0E947404A5C140E0672D862D58
:100A70000E9474049FC14394F601828163944816D6
:100A800008F4BFCFBAC1813009F0A3C08091BF057F
:100A9000982F977031F0682E6694669466946394EC
:100AA00004C0682E669466946694ECEBF5E032819F
:100AB000639E302D11243F5F842F90E0821B9109AB
:100AC000389FA001399F500D11240190F081E02D35
:100AD000E40FF51F24912B83222309F446C1862DB0
:100AE00090E09B878A87DF011196BE83AD83282C17
:100AF000312C1886E52DF0E0FA83E9830F2EFCEB0C
:100B00008F2EF5E09F2EF02D5F8253C0F201E4900E
:100B1000F0E82F1631040CF02AC189819A818C0DDE
:100B20009D1D803491050CF024C17A2C1F861E86F1
:100B3000F12CD40113968C9190E02E853F852C0DDD
:100B40003D1D281739070CF045C1C7010E8402C0AE
:100B5000959587950A94E2F780FF06C041E0672DDE
:100B6000822D0E94740436C140E0672D822D0E94C0
:100B7000740430C1B394BFEF4B1A5B0AE8E0AE0EC9
:100B8000F8E0CF0ED11C085011096B10BFCF28859B
:100B90002F5F28878D819E81AA85BB858A0F9B1F29
:100BA0009E838D83BFEF2B1A3B0AEB81E21709F47A
:100BB000E2C0662061F300E410E029813A81021B63
:100BC000130BAF804D805E80C12CD12C712CB72CC3
:100BD0009DCF823009F0D1C0ECEBF5E09380969484
:100BE0009694969493945281842F90E0821B91095D
:100BF000959E402D1124489F9001499F300D11244E
:100C000080819181820F931FAFEFA50F40E0652F88
:100C100070E0615071099E838D83452E441A99209E
:100C200079F0362F341B90E080E0ED81FE81E90FF2
:100C3000F11D20818F5F930F9812F7CF211109C00A
:100C4000A41711F04F5FE9CF992009F498C0412C07
:100C500000C0252D30E03987288780E490E01C0112
:100C6000221A330A5F82C12CD12C1B861A860F2EC2
:100C7000FCEBAF2EF5E0BF2EF02D882D90E09C838D
:100C80008B8349829D868C865DC0F5018281849D1F
:100C9000F001859DF00D1124E60DF71D2D813E819B
:100CA000E20FF31FE4918B819C81860D971D8038A4
:100CB00091050CF066C030E4831691040CF063C01B
:100CC0000F81E12CF12C8E2F90E09F878E87D5012C
:100CD00013968C9190E097012C0D3D1D2817390734
:100CE0000CF086C08E859F850E2C02C09595879549
:100CF0000A94E2F780FF06C041E0602F812F0E9436
:100D0000740476C040E0602F812F0E94740470C08C
:100D1000BFEF6B1A7B0A1F5FE9816E1608F4B5CF2F
:100D20002A853B852F5F3F4F3B872A873F81385F6E
:100D30003F8388E0C80ED11C98E0291A3108AD85A0
:100D40002A1718F5B981BB2359F34A845B84EC85D3
:100D5000EE87612C712C888499848C0C9D1C1E2F2D
:100D600094CF80E04AC080E048C080E046C080E088
:100D700044C080E042C08B8140C080E03EC080E043
:100D80003CC080E03AC080E038C04980842D35C046
:100D900080E033C080E031C080E02FC029813A81FB
:100DA0002F5F3F4F3A83298373942017310709F04F
:100DB0004DCEEECF89819A81079781F75CCEAE85C3
:100DC000BF851196BF87AE877394A017B10709F04E
:100DD000B0CEE0CFEE85FF85379789F7CBCEFFEF1A
:100DE000EF1AFF0A0F5FE214F30409F070CFD4CFBB
:100DF00027E0E216F10499F78BCF2F960FB6F894FF
:100E0000DEBF0FBECDBFDF91CF911F910F91FF903D
:100E1000EF90DF90CF90BF90AF909F908F907F909A
:100E20006F905F904F903F902F9008950F931F9376
:100E3000CF93DF93C82FD62FFA01262F30E04091B1
:100E4000BF058FE390E0841B91098217930794F00C
:100E50004081442379F08F010F5F1F4F6D2F8C2F3E
:100E60000E94C0048C0FC1E0C80FF80141918F01AE
:100E70004111F4CFDF91CF911F910F9108950F93FE
:100E8000ECEBF5E0918380836283438324830583C5
:100E900016820F9108950F931F93CF93DF93182F0E
:100EA000362F042FE091BF05E83008F05BC0809139
:100EB000C005481730F08091C105841718F40EE280
:100EC00001C00EE2C32FD0E0F0E0319680E490E064
:100ED000BF010E94060FC617D7070CF043C0409110
:100EE000BE05842F90E0810F911D80389105D4F5C7
:100EF0002E2F3E9F200D1124410F3E9F602D112467
:100F0000812F0E9407043091BE05332359F1CE0191
:100F10009695982F88279795879520E0CCEBD5E07C
:100F2000402F50E06C81FA01E61BF109BF01369FAA
:100F3000F001379FF00D1124E20FF11D68817981D6
:100F4000E60FF71FE491312F320FA091B805B09151
:100F5000B905A80FB91FA30FB11DEC932F5F3A81FC
:100F6000231700F3DF91CF911F910F910895CF9236
:100F7000DF92EF92FF920F931F93CF93DF93D82EC0
:100F8000C62E8091BF05883058F5C42FD52F0CEBA5
:100F900015E06894EE24E6F8F12C1FC06C2D8D2D21
:100FA0000E944B07F801828191E0980FD90E90E0E2
:100FB0008D0D911D01968138910514F0C394D12CAB
:100FC0002C2D30E0F801638170E06F5F7F4FC70127
:100FD0000E94060F261737071CF449914111DECFF6
:100FE000DF91CF911F910F91FF90EF90DF90CF9005
:100FF00008954F925F926F927F928F929F92AF92DD
:10100000BF92CF92DF92EF92FF920F931F93CF93F5
:10101000DF9300D000D000D0CDB7DEB7CE0101966F
:101020005C017C010F2EF3E6CF2EFAEEDF2EF02DC1
:1010300010E0F701108341E050E0B701C6010E94C3
:1010400041091F5FFFEFEF1AFF0A8FEFC81AD80A96
:10105000133079F741E050E0BE016C5F7F4F83E6CB
:101060009AEE0E94540941E050E0BE016B5F7F4F51
:1010700084E69AEE0E94540941E050E0BE016A5FA6
:101080007F4F85E69AEE0E945409FE0134967F0157
:1010900000E010E00F2EFBE38F2EF1E09F2EF02DED
:1010A000412C512C0F2EF2E1CF2EF1E0DF2EF02D4E
:1010B00066246A9477247A94F70181917F01F5017F
:1010C00091915F018917A1F01F929F931F930F9336
:1010D0001F928F931F930F93DF92CF920E948F10D6
:1010E0000FB6F894DEBF0FBECDBF862D972D13C06F
:1010F0001F928F931F930F931F928F931F930F93A2
:101100009F928F920E948F100FB6F894DEBF0FBE91
:10111000CDBF842D952D0F5F1F4F0330110561F654
:1011200026960FB6F894DEBF0FBECDBFDF91CF91EC
:101130001F910F91FF90EF90DF90CF90BF90AF90F5
:101140009F908F907F906F905F904F900895CF9376
:10115000DF93CDB7DEB728970FB6F894DEBF0FBE8A
:10116000CDBF0E94E20280E691E00E94A51084E7D4
:1011700091E00E94A5108EE791E00E94A51086E8FC
:1011800091E00E94A5100E94E5031A821982FE01D7
:10119000339686E0DF011D928A95E9F70E94580494
:1011A00009E32EE245E16FE08EE791E00E94B3048F
:1011B0008EE38F9383E88F9382E18F938FE68F93F3
:1011C0008EE891E09F938F938E010F5F1F4F1F93C7
:1011D0000F930E94D510A80164E180E00E941607D9
:1011E0000E9445030FE720E247E065E086EA93E0CE
:1011F0000E943F0743E951E060E080E00E94B707AA
:101200000E9445030E94F9070FB6F894DEBF0FBE97
:10121000CDBF0F2EFFE9EF2EF1E0FF2EF02D08ECF1
:1012200010E0D0900001C0900101B0900201A090A8
:10123000030120E030E040E85FE36D2D7C2D8B2D35
:101240009A2D0E94CC0A6093000170930101809353
:10125000020190930301AF92BF92CF92DF92FF926F
:10126000EF920E948F100F900F900F900F900F90A1
:101270000F9088E893E1F8013197F1F70197D9F7DA
:10128000D0CF9A01AB01BC0180EA0E941D0A8130D7
:1012900029F4E4ECF9E03197F1F7089584EC99E052
:1012A0000197F1F780E008959A01AB01BC0180EA53
:1012B0000E94530A813029F4E4ECF9E03197F1F708
:1012C000089584EC99E00197F1F780E00895389A49
:1012D00040984098399A419841980E949E090895F3
:1012E00050985898519A59980E94B40A08958FEFCF
:1012F0008093640091B111B892B182B994B114B8DD
:1013000095B185B997B117B898B188B99AB11AB89B
:101310009BB18BB940E060E881E690E00E949709BC
:1013200013BE15BE0E9467090E94700908952FB769
:10133000F894FC01608340832FBF0895E4E6F0E059
:1013400080818F77808380E28093B8001092B9000B
:1013500080E00895ECEBF0E0108294EA90839081B5
:101360009923ECF79091B900987F9830A1F480937D
:10137000BB0084E88093BC00ECEBF0E08081882324
:10138000ECF79091B900987F983139F081E0903472
:1013900029F480E0089581E0089580E00895809325
:1013A000BB0084E88093BC00ECEBF0E080818823F4
:1013B000ECF79091B900987F81E0983209F480E0D1
:1013C0000895FB01ACEBB0E094EC9C939C919923C5
:1013D0007CF412C01082811103C007C0ACEBB0E0F6
:1013E00081509C919923B4F707C081E0808304C0A9
:1013F00010828111F3CFF9CF8091BB000895FB01DA
:10140000ACEBB0E094E89C939C9199237CF412C0DF
:101410001082811103C007C0ACEBB0E081509C91F9
:101420009923B4F707C081E0808304C01082811142
:10143000F3CFF9CF8091BB000895CF92DF92FF9256
:101440000F931F93CF93DF93C62FD72F6A01890184
:101450000E94AA09F82E811118C08D2F0E94CF0971
:101460008C2F0E94CF090115110559F0E6010C0DD2
:101470001D1D89910E94CF0981110AC0C017D10793
:10148000C1F784E98093BC0005C0FF24F39402C037
:10149000FF24F3948F2DDF91CF911F910F91FF9037
:1014A000DF90CF900895AF92BF92DF92EF92FF92BC
:1014B0000F931F93CF93DF93182F062FF72E5A0108
:1014C000E9010E94AA0981112BC08F2D0E94CF092A
:1014D000802F0E94CF09812F81600E94AA09D82EF7
:1014E000811121C08E010150110969F0E5017501DA
:1014F000E00EF11E60E070E084E60E94E10989934D
:10150000EC16FD06B9F7E501C00FD11F60E070E0F1
:1015100084E60E94FF09888384E98093BC0005C0AB
:10152000DD24D39402C0DD24D3948D2DDF91CF919F
:101530001F910F91FF90EF90DF90BF90AF900895B3
:10154000CF93C82F8A3029F460E070E08DE00E94CC
:10155000A00AE0ECF0E0808185FFFDCFC093C600DB
:1015600080E090E0CF910895E4E6F0E080818D7F07
:1015700080831092C5008CE08093C4001092C0005C
:1015800088E98093C10084E091E09093C605809340
:10159000C50580E008955058BB27AA270E94E30A9A
:1015A0000C944F0B0E94410B38F00E94480B20F026
:1015B00039F49F3F19F426F40C943E0B0EF4E09599
:1015C000E7FB0C94380BE92F0E94600B58F3BA1715
:1015D000620773078407950720F079F4A6F50C9449
:1015E000820B0EF4E0950B2EBA2FA02D0B01B90142
:1015F00090010C01CA01A0011124FF27591B99F089
:10160000593F50F4503E68F11A16F040A22F232F94
:10161000342F4427585FF3CF469537952795A795E4
:10162000F0405395C9F77EF41F16BA0B620B730B8B
:10163000840BBAF09150A1F0FF0FBB1F661F771FFC
:10164000881FC2F70EC0BA0F621F731F841F48F4B1
:10165000879577956795B795F7959E3F08F0B0CF3A
:101660009395880F08F09927EE0F97958795089521
:1016700097F99F6780E870E060E008959FEF80EC45
:10168000089500240A9416161706180609060895E8
:1016900000240A9412161306140605060895092E4E
:1016A0000394000C11F4882352F0BB0F40F4BF2BBD
:1016B00011F460FF04C06F5F7F4F8F4F9F4F0895FD
:1016C00057FD9058440F551F59F05F3F71F04795F3
:1016D000880F97FB991F61F09F3F79F087950895D8
:1016E000121613061406551FF2CF4695F1DF08C0F7
:1016F000161617061806991FF1CF86957105610514
:1017000008940895E894BB2766277727CB0197F9BB
:101710000895A0E1B0E0EFE8FBE00C941A0F7C0123
:101720001B016A01FC0117821682838181FF44C379
:101730009E012F5F3F4F3901F7019381F10193FD26
:10174000859193FF81911F01882309F431C385326C
:1017500039F493FD859193FF81911F01853239F40E
:10176000B70190E00E94531056016501E5CF10E0EB
:10177000512C912CFFE1F915D8F08B3279F038F427
:10178000803279F08332A1F4F92DF0612EC08D32D0
:1017900061F0803369F4292D21602DC0392D32602C
:1017A000932E892D8460982E2AC0E92DE86015C0FB
:1017B00097FC2DC020ED280F2A3088F496FE06C035
:1017C0003AE0139F200D1124122F19C08AE0589E71
:1017D000200D1124522EE92DE0629E2E10C08E3273
:1017E00031F496FCE5C2F92DF0649F2E08C08C36CA
:1017F00021F4292D2068922E02C0883641F4F1018F
:1018000093FD859193FF81911F018111B3CF9BEBD4
:10181000980F933020F4992D9061805E07C09BE96A
:10182000980F933008F066C1992D9F7E96FF16E0C1
:101830009F73992E853619F49064992E08C08636C8
:1018400021F4392F3068932E02C01111115097FEE8
:1018500007C01C3350F444244394410E27E00BC0CE
:10186000183038F027E017E005C027E09CE3492E48
:1018700002C0212F412C560184E0A80EB11CF601B4
:101880006081718182819381042DA3010E94650F83
:101890006C01F981FC87F0FF02C0F3FF06C091FCE8
:1018A00006C092FE06C000E205C00DE203C00BE2D6
:1018B00001C000E08C858C7019F001115AC29BC2E6
:1018C00097FE10C04C0CFC85F4FF04C08A81813364
:1018D00009F44A94141474F528E0241578F588E086
:1018E000482E2CC096FC2AC0812F90E08C159D05B7
:1018F0009CF03CEFC3163FEFD30674F0892D80684F
:10190000982E0AC0E2E0F0E0EC0FFD1FE10FF11DA0
:101910008081803319F411501111F4CF97FE0EC05D
:1019200044244394410E812F90E0C816D9062CF42C
:101930001C1904C04424439401C010E097FE06C063
:101940001C141D0434F4C601019605C085E090E026
:1019500002C081E090E001110196112331F0212FA6
:1019600030E02F5F3F4F820F931F252D30E082170D
:10197000930714F4581A01C0512C892D897049F429
:10198000552039F0B70180E290E00E9453105A943C
:10199000F7CF002329F0B701802F90E00E94531069
:1019A00093FC09C0552039F0B70180E390E00E9414
:1019B00053105A94F7CF97FE4CC04601D7FE02C091
:1019C000812C912CC60188199909F301E80FF91FA0
:1019D000FE87ED87960124193109388B2F87012F57
:1019E00010E01195019511093FEF8316930629F434
:1019F000B7018EE290E00E945310C814D9044CF055
:101A00008F8598898815990524F4ED85FE85818157
:101A100001C080E3F1E08F1A91082D853E852F5F8C
:101A20003F4F3E872D87801691062CF0B70190E03E
:101A30000E945310D9CFC814D90441F49A81963327
:101A400020F4953319F43C8534FF81E3B70190E02D
:101A50004EC08A81813319F09C859F7E9C87B70197
:101A600090E00E945310111105C094FC18C085E647
:101A700090E017C0B7018EE290E00E9453101E5F05
:101A800082E001E0080FF301E80FF11D8081B7014A
:101A900090E00E945310802F0113F3CFE6CF85E42E
:101AA00090E0B7010E945310D7FC06C0C114D104C6
:101AB00041F4EC85E4FF05C0D194C194D1088DE2D6
:101AC00001C08BE2B70190E00E94531080E32AE04E
:101AD000C216D1042CF08F5FFAE0CF1AD108F7CFED
:101AE000B70190E00E945310B701C601C0960E9452
:101AF000531054C1833631F0833779F0833509F0C0
:101B000056C020C0560132E0A30EB11CF601808100
:101B1000898301E010E0630112C05601F2E0AF0ECC
:101B2000B11CF601C080D18096FE03C0612F70E029
:101B300002C06FEF7FEFC6010E9448108C01F92DA3
:101B4000FF7714C0560122E0A20EB11CF601C0803E
:101B5000D18096FE03C0612F70E002C06FEF7FEF6F
:101B6000C6010E943D108C01F92DF0689F2EF3FDF7
:101B70001AC0852D90E008171907A8F4B70180E274
:101B800090E00E9453105A94F4CFF60197FC85918F
:101B900097FE81916F01B70190E00E9453105110A0
:101BA0005A94015011090115110579F7F7C08436CF
:101BB00011F0893661F5560197FE09C024E0A20EA6
:101BC000B11CF60160817181828193810AC0F2E0CB
:101BD000AF0EB11CF60160817181072E000C880BDD
:101BE000990BF92DFF769F2E97FF09C09095809550
:101BF000709561957F4F8F4F9F4FF0689F2E2AE021
:101C000030E0A3010E94F710C82EC6183FC0092D6E
:101C1000853721F40F7E2AE030E01DC0097F8F3622
:101C200091F018F4883559F0C3C0803719F088371F
:101C300011F0BEC0006104FF09C0046007C094FE3B
:101C400008C0066006C028E030E005C020E130E0B2
:101C500002C020E132E0560107FF09C084E0A80E6F
:101C6000B11CF601608171818281938108C0F2E02C
:101C7000AF0EB11CF6016081718180E090E0A3019C
:101C80000E94F710C82EC6180F77902E96FE0BC034
:101C9000092D0E7FC11650F494FE0AC092FC08C0B4
:101CA000092D0E7E05C0DC2C092D03C0DC2C01C0E3
:101CB000D12E04FF0DC0FE01EC0DF11D808180339B
:101CC00011F4097E09C002FF06C0D394D39404C066
:101CD000802F867809F0D39403FD11C000FF06C061
:101CE0001C2DD51480F4150D1D190DC0D51458F4F4
:101CF000B70180E290E00E945310D394F7CFD5143F
:101D000010F45D1801C0512C04FF10C0B70180E32E
:101D100090E00E94531002FF17C001FD03C088E746
:101D200090E002C088E590E0B7010CC0802F867873
:101D300059F001FF02C08BE201C080E207FD8DE295
:101D4000B70190E00E945310C11638F4B70180E348
:101D500090E00E9453101150F7CFCA94F301EC0D9C
:101D6000F11D8081B70190E00E945310C110F5CFA2
:101D700015C0F4E0F51560F584E0581A93FE1FC015
:101D8000011127C02C8523FF2AC00CE710E0392D54
:101D90003071932EF8018491811124C0552009F4EB
:101DA000E4CCB70180E290E00E9453105A94F6CF41
:101DB000F7018681978126C08FEF9FEF23C0B7017F
:101DC00080E290E00E9453105A945110F8CFD8CF7F
:101DD000512CB701802F90E00E945310D3CF00E820
:101DE00010E0D5CF91108052B70190E00E945310BF
:101DF0000F5F1F4FCFCF23E0251510F483E0BDCF39
:101E0000512CC0CF6096E2E10C94360F97FB072E61
:101E100016F4009407D077FD09D00E94510F07FCFB
:101E200005D03EF4909581959F4F089570956195EA
:101E30007F4F08952F923F924F925F926F927F92C1
:101E40008F929F92AF92BF92CF92DF92EF92FF92CA
:101E50000F931F93CF93DF93CDB7DEB7CA1BDB0B76
:101E60000FB6F894DEBF0FBECDBF09942A8839881B
:101E700048885F846E847D848C849B84AA84B98422
:101E8000C884DF80EE80FD800C811B81AA81B9812E
:101E9000CE0FD11D0FB6F894DEBF0FBECDBFED0142
:101EA0000895AA1BBB1B51E107C0AA1FBB1FA617A1
:101EB000B70710F0A61BB70B881F991F5A95A9F7F3
:101EC00080959095BC01CD010895283008F027E059
:101ED0003327DA01990F311D87FD91600096610566
:101EE000710539F432602E5F3D9330E32A95E1F7B6
:101EF00008959F3F30F080387105610509F03C5F1F
:101F00003C5F3D93913008F08068911DDF93CF9343
:101F10001F930F93FF92EF92192F987F9695E92FB9
:101F200096959695E90FFF27E252FF4F99273327A1
:101F3000EE24FF24A701E70105900894079428F4F4
:101F4000360FE71EF81E491F511D660F771F881FA9
:101F5000991F0694A1F70590079428F4E70EF81E40
:101F6000491F561FC11D770F881F991F661F0694B2
:101F7000A1F70590079428F4F80E491F561FC71FB4
:101F8000D11D880F991F661F771F0694A1F7059032
:101F9000079420F4490F561FC71FD81F990F661FBB
:101FA000771F881F0694A9F784911095177041F048
:101FB000D695C79557954795F794E7941A95C1F725
:101FC000E4E8F0E06894159015913591659195914C
:101FD00005907FE27395E118F10A430B560BC90B8C
:101FE000D009C0F7E10CF11E431F561FC91FD01DB9
:101FF0007EF4703311F48A95E6CFE894015030F006
:10200000080F0AF40027021708F4202F2395022F47
:102010007A3328F079E37D932A95E9F710C07D9310
:102020002A9589F60694979567953795179517948D
:10203000E118F10A430B560BC90BD00998F0239510
:102040007E9173957A3308F070E37C932013B8F790
:102050007E9170617D9330F0839571E37D9370E3A1
:102060002A95E1F71124EF90FF900F911F91CF91E6
:10207000DF91992787FD90950895FC0105906150A7
:1020800070400110D8F7809590958E0F9F1F08958E
:10209000FC016150704001900110D8F78095909537
:1020A0008E0F9F1F08950F931F93CF93DF93FB0114
:1020B000238121FD03C08FEF9FEF2CC022FF16C0AC
:1020C00046815781248135814217530744F4A0810A
:1020D000B1819D012F5F3F4F318320838C932681F7
:1020E00037812F5F3F4F3783268314C08B01EC016C
:1020F000FB010084F185E02D0995892BE1F6D801DB
:1021000016968D919C911797019617969C938E9396
:102110001697CE01DF91CF911F910F910895A0E006
:10212000B0E0E5E9F0E10C942A0FAE014B5F5F4FA0
:10213000FA0161917191AF018091C5059091C60539
:102140000E94890BE2E00C94460F0F931F93CF93EC
:10215000DF93E091C505F091C605238121FF1BC0E7
:102160008C01D0E0C0E0F80181918F016091C5053C
:102170007091C605DB011896ED91FC9119978823A3
:1021800031F00995892B79F3DFEFCFEFECCF8AE0BF
:102190000995892B19F08FEF9FEF02C08D2F9C2F8F
:1021A000DF91CF911F910F910895AEE0B0E0EBED7C
:1021B000F0E10C94280F0D891E8986E08C831A8328
:1021C00009838FEF9FE79E838D83AE01475E5F4F4C
:1021D0006F89788DCE0101960E94890BEF81F88579
:1021E000E00FF11F10822E96E4E00C94440FFA01E8
:1021F000AA27283051F1203181F1E8946F936E7F46
:102200006E5F7F4F8F4F9F4FAF4FB1E03ED0B4E036
:102210003CD0670F781F891F9A1FA11D680F791F77
:102220008A1F911DA11D6A0F711D811D911DA11D88
:1022300020D009F468943F912AE0269F1124301998
:10224000305D3193DEF6CF010895462F4770405D33
:102250004193B3E00FD0C9F7F6CF462F4F70405DE2
:102260004A3318F0495D31FD4052419302D0A9F73D
:10227000EACFB4E0A6959795879577956795BA9537
:10228000C9F700976105710508959B01AC010A2EFD
:1022900006945795479537952795BA95C9F7620FD4
:0E22A000731F841F951FA01D0895F894FFCF93
:1022AE000000C03F0000000200000000A00A000075
:1022BE000000726561645B25645D3D307825782091
:1022CE006E6F7420657175616C2077726974655BD1
:1022DE0025645D3D307825780A0D00726561645B7A
:1022EE0025645D3D3078257820657175616C2077A9
:1022FE00726974655B25645D3D307825780A0D0042
:10230E0050542E4B6F726F73692053706563696EF4
:10231E00646F0D00526E44205465616D0D0046577A
:10232E00204443490D0076322E312E300D00252EDD
:10233E003366004D6574616C6C6F7373203A0048A0
:10234E00656C6C6F20576F726C642121212025669D
:04235E000D0A000064
:00000001FF
