
FW_DCI.elf:     file format elf32-avr

Sections:
Idx Name          Size      VMA       LMA       File off  Algn
  0 .data         000000b4  00800100  000022ae  00002342  2**0
                  CONTENTS, ALLOC, LOAD, DATA
  1 .text         000022ae  00000000  00000000  00000094  2**1
                  CONTENTS, ALLOC, LOAD, READONLY, CODE
  2 .bss          00000415  008001b4  008001b4  000023f6  2**0
                  ALLOC
  3 .comment      0000005c  00000000  00000000  000023f6  2**0
                  CONTENTS, READONLY
  4 .note.gnu.avr.deviceinfo 00000040  00000000  00000000  00002454  2**2
                  CONTENTS, READONLY
  5 .debug_aranges 000003c8  00000000  00000000  00002498  2**3
                  CONTENTS, READONLY, DEBUGGING
  6 .debug_info   00004709  00000000  00000000  00002860  2**0
                  CONTENTS, READONLY, DEBUGGING
  7 .debug_abbrev 0000175a  00000000  00000000  00006f69  2**0
                  CONTENTS, READONLY, DEBUGGING
  8 .debug_line   00002470  00000000  00000000  000086c3  2**0
                  CONTENTS, READONLY, DEBUGGING
  9 .debug_frame  00000b18  00000000  00000000  0000ab34  2**2
                  CONTENTS, READONLY, DEBUGGING
 10 .debug_str    00000e27  00000000  00000000  0000b64c  2**0
                  CONTENTS, READONLY, DEBUGGING
 11 .debug_loc    00003c5a  00000000  00000000  0000c473  2**0
                  CONTENTS, READONLY, DEBUGGING
 12 .debug_ranges 000004d0  00000000  00000000  000100cd  2**0
                  CONTENTS, READONLY, DEBUGGING

Disassembly of section .text:

00000000 <__vectors>:
       0:	0c 94 c3 02 	jmp	0x586	; 0x586 <__ctors_end>
       4:	0c 94 e0 02 	jmp	0x5c0	; 0x5c0 <__bad_interrupt>
       8:	0c 94 e0 02 	jmp	0x5c0	; 0x5c0 <__bad_interrupt>
       c:	0c 94 e0 02 	jmp	0x5c0	; 0x5c0 <__bad_interrupt>
      10:	0c 94 e0 02 	jmp	0x5c0	; 0x5c0 <__bad_interrupt>
      14:	0c 94 e0 02 	jmp	0x5c0	; 0x5c0 <__bad_interrupt>
      18:	0c 94 e0 02 	jmp	0x5c0	; 0x5c0 <__bad_interrupt>
      1c:	0c 94 e0 02 	jmp	0x5c0	; 0x5c0 <__bad_interrupt>
      20:	0c 94 e0 02 	jmp	0x5c0	; 0x5c0 <__bad_interrupt>
      24:	0c 94 e0 02 	jmp	0x5c0	; 0x5c0 <__bad_interrupt>
      28:	0c 94 e0 02 	jmp	0x5c0	; 0x5c0 <__bad_interrupt>
      2c:	0c 94 e0 02 	jmp	0x5c0	; 0x5c0 <__bad_interrupt>
      30:	0c 94 e0 02 	jmp	0x5c0	; 0x5c0 <__bad_interrupt>
      34:	0c 94 e0 02 	jmp	0x5c0	; 0x5c0 <__bad_interrupt>
      38:	0c 94 e0 02 	jmp	0x5c0	; 0x5c0 <__bad_interrupt>
      3c:	0c 94 e0 02 	jmp	0x5c0	; 0x5c0 <__bad_interrupt>
      40:	0c 94 e0 02 	jmp	0x5c0	; 0x5c0 <__bad_interrupt>
      44:	0c 94 e0 02 	jmp	0x5c0	; 0x5c0 <__bad_interrupt>
      48:	0c 94 e0 02 	jmp	0x5c0	; 0x5c0 <__bad_interrupt>
      4c:	0c 94 e0 02 	jmp	0x5c0	; 0x5c0 <__bad_interrupt>
      50:	0c 94 e0 02 	jmp	0x5c0	; 0x5c0 <__bad_interrupt>
      54:	0c 94 e0 02 	jmp	0x5c0	; 0x5c0 <__bad_interrupt>
      58:	0c 94 e0 02 	jmp	0x5c0	; 0x5c0 <__bad_interrupt>
      5c:	0c 94 e0 02 	jmp	0x5c0	; 0x5c0 <__bad_interrupt>
      60:	0c 94 e0 02 	jmp	0x5c0	; 0x5c0 <__bad_interrupt>
      64:	0c 94 e0 02 	jmp	0x5c0	; 0x5c0 <__bad_interrupt>
      68:	0c 94 e0 02 	jmp	0x5c0	; 0x5c0 <__bad_interrupt>
      6c:	0c 94 e0 02 	jmp	0x5c0	; 0x5c0 <__bad_interrupt>
      70:	0c 94 e0 02 	jmp	0x5c0	; 0x5c0 <__bad_interrupt>
      74:	0c 94 e0 02 	jmp	0x5c0	; 0x5c0 <__bad_interrupt>
      78:	0c 94 e0 02 	jmp	0x5c0	; 0x5c0 <__bad_interrupt>

0000007c <__trampolines_end>:
      7c:	6e 61       	ori	r22, 0x1E	; 30
      7e:	6e 00       	.word	0x006e	; ????

00000080 <__c.2332>:
      80:	69 6e 66 00 00 40 7a 10 f3 5a 00 a0 72 4e 18 09     inf..@z..Z..rN..
      90:	00 10 a5 d4 e8 00 00 e8 76 48 17 00 00 e4 0b 54     ........vH.....T
      a0:	02 00 00 ca 9a 3b 00 00 00 e1 f5 05 00 00 80 96     .....;..........
      b0:	98 00 00 00 40 42 0f 00 00 00 a0 86 01 00 00 00     ....@B..........
      c0:	10 27 00 00 00 00 e8 03 00 00 00 00 64 00 00 00     .'..........d...
      d0:	00 00 0a 00 00 00 00 00 01 00 00 00 00 00 2c 76     ..............,v
      e0:	d8 88 dc 67 4f 08 23 df c1 df ae 59 e1 b1 b7 96     ...gO.#....Y....
      f0:	e5 e3 e4 53 c6 3a e6 51 99 76 96 e8 e6 c2 84 26     ...S.:.Q.v.....&
     100:	eb 89 8c 9b 62 ed 40 7c 6f fc ef bc 9c 9f 40 f2     ....b.@|o.....@.
     110:	ba a5 6f a5 f4 90 05 5a 2a f7 5c 93 6b 6c f9 67     ..o....Z*.\.kl.g
     120:	6d c1 1b fc e0 e4 0d 47 fe f5 20 e6 b5 00 d0 ed     m......G.. .....
     130:	90 2e 03 00 94 35 77 05 00 80 84 1e 08 00 00 20     .....5w........ 
     140:	4e 0a 00 00 00 c8 0c 33 33 33 33 0f 98 6e 12 83     N......3333..n..
     150:	11 41 ef 8d 21 14 89 3b e6 55 16 cf fe e6 db 18     .A..!..;.U......
     160:	d1 84 4b 38 1b f7 7c 1d 90 1d a4 bb e4 24 20 32     ..K8..|......$ 2
     170:	84 72 5e 22 81 00 c9 f1 24 ec a1 e5 3d 27           .r^"....$...='

0000017e <Liberation_Sans15x21_Numbers>:
     17e:	06 00 00 00 00 00 00 00 00 0f 00 00 0f 00 00 0f     ................
     18e:	00 00 0f 00 00 00 00 00 00 00 00 00 00 00 00 00     ................
	...
     1aa:	00 00 07 00 00 1e 00 e0 1f 00 ff 1f f8 ff 03 ff     ................
     1ba:	1f 00 ff 01 00 0f 00 00 00 00 00 00 00 00 00 00     ................
	...
     1da:	0e 00 00 00 c0 7f 00 f8 ff 01 fc ff 07 fc ff 07     ................
     1ea:	3e 80 0f 0e 00 0e 0e 00 0e 0e 00 0e 1e 80 0f fc     >...............
     1fa:	ff 07 fc ff 07 f8 ff 01 c0 7f 00 00 00 00 0e 00     ................
     20a:	00 00 70 00 0e 38 00 0e 38 00 0e 1c 00 0e 0e 00     ..p..8..8.......
     21a:	0e fe ff 0f fe ff 0f fe ff 0f fe ff 0f 00 00 0e     ................
     22a:	00 00 0e 00 00 0e 00 00 0e 00 00 00 0e 00 00 00     ................
     23a:	60 00 0f 78 80 0f 7c c0 0f 7c e0 0f 1e f0 0f 0e     `..x..|..|......
     24a:	f8 0e 0e 7c 0e 0e 3e 0e 1e 1f 0e fe 0f 0e fc 07     ...|..>.........
     25a:	0e f8 03 0e f0 01 0e 00 00 00 0e 00 00 00 30 80     ..............0.
     26a:	01 38 80 03 3c 80 07 3c 80 0f 1e 00 0f 0e 0e 0e     .8..<..<........
     27a:	0e 0e 0e 0e 0e 0e 1e 1f 0f fe ff 0f fc fb 07 fc     ................
     28a:	f9 03 f0 e0 01 00 00 00 0f 00 00 00 00 f0 00 00     ................
     29a:	f8 00 00 fe 00 80 ef 00 c0 e7 00 f0 e1 00 7c e0     ..............|.
     2aa:	00 3e e0 00 fe ff 0f fe ff 0f fe ff 0f fe ff 0f     .>..............
     2ba:	00 e0 00 00 e0 00 0e 00 00 00 00 80 01 f8 87 03     ................
     2ca:	fe 87 07 fe 87 0f fe 07 0f 0e 03 0e 8e 03 0e 8e     ................
     2da:	03 0e 8e 07 0f 8e ff 07 0e ff 07 0e fe 03 00 fc     ................
     2ea:	00 00 00 00 0e 00 00 00 c0 7f 00 f0 ff 01 f8 ff     ................
     2fa:	07 fc ff 07 3e 0e 0f 0e 07 0e 0e 07 0e 0e 07 0e     ....>...........
     30a:	1e 0f 0f 3e ff 0f 3c fe 07 38 fe 03 30 f8 01 00     ...>..<..8..0...
     31a:	00 00 0e 00 00 00 0e 00 00 0e 00 00 0e 00 00 0e     ................
     32a:	00 0f 0e e0 0f 0e f8 0f 0e fe 0f 8e ff 00 ce 0f     ................
     33a:	00 fe 03 00 fe 00 00 3e 00 00 1e 00 00 00 00 00     .......>........
     34a:	0e 00 00 00 f0 e0 01 f8 fb 03 fc fb 07 fe ff 0f     ................
     35a:	1e 1f 0f 0e 0e 0e 0e 0e 0e 0e 0e 0e 1e 1f 0f fe     ................
     36a:	ff 0f fc fb 07 fc fb 03 f0 e0 01 00 00 00 0e 00     ................
     37a:	00 00 f0 83 01 f8 87 03 fc 8f 07 fe 9f 0f 1e 1e     ................
     38a:	0f 0e 1c 0e 0e 1c 0e 0e 1c 0e 1e 8e 0f fc ff 07     ................
     39a:	fc ff 03 f8 ff 01 c0 7f 00 00 00 00                 ............

000003a6 <Font5x7>:
     3a6:	00 00 00 00 00 00 00 5f 00 00 00 07 00 07 00 14     ......._........
     3b6:	7f 14 7f 14 24 2a 7f 2a 12 23 13 08 64 62 36 49     ....$*.*.#..db6I
     3c6:	55 22 50 00 05 03 00 00 00 1c 22 41 00 00 41 22     U"P......."A..A"
     3d6:	1c 00 08 2a 1c 2a 08 08 08 3e 08 08 00 50 30 00     ...*.*...>...P0.
     3e6:	00 08 08 08 08 08 00 60 60 00 00 20 10 08 04 02     .......``.. ....
     3f6:	3e 51 49 45 3e 00 42 7f 40 00 42 61 51 49 46 21     >QIE>.B.@.BaQIF!
     406:	41 45 4b 31 18 14 12 7f 10 27 45 45 45 39 3c 4a     AEK1.....'EEE9<J
     416:	49 49 30 01 71 09 05 03 36 49 49 49 36 06 49 49     II0.q...6III6.II
     426:	29 1e 00 36 36 00 00 00 56 36 00 00 00 08 14 22     )..66...V6....."
     436:	41 14 14 14 14 14 41 22 14 08 00 02 01 51 09 06     A.....A".....Q..
     446:	32 49 79 41 3e 7e 11 11 11 7e 7f 49 49 49 36 3e     2IyA>~...~.III6>
     456:	41 41 41 22 7f 41 41 22 1c 7f 49 49 49 41 7f 09     AAA".AA"..IIIA..
     466:	09 01 01 3e 41 41 51 32 7f 08 08 08 7f 00 41 7f     ...>AAQ2......A.
     476:	41 00 20 40 41 3f 01 7f 08 14 22 41 7f 40 40 40     A. @A?...."A.@@@
     486:	40 7f 02 04 02 7f 7f 04 08 10 7f 3e 41 41 41 3e     @..........>AAA>
     496:	7f 09 09 09 06 3e 41 51 21 5e 7f 09 19 29 46 46     .....>AQ!^...)FF
     4a6:	49 49 49 31 01 01 7f 01 01 3f 40 40 40 3f 1f 20     III1.....?@@@?. 
     4b6:	40 20 1f 7f 20 18 20 7f 63 14 08 14 63 03 04 78     @ .. . .c...c..x
     4c6:	04 03 61 51 49 45 43 00 00 7f 41 41 02 04 08 10     ..aQIEC...AA....
     4d6:	20 41 41 7f 00 00 04 02 01 02 04 40 40 40 40 40      AA........@@@@@
     4e6:	00 01 02 04 00 20 54 54 54 78 7f 48 44 44 38 38     ..... TTTx.HDD88
     4f6:	44 44 44 20 38 44 44 48 7f 38 54 54 54 18 08 7e     DDD 8DDH.8TTT..~
     506:	09 01 02 08 14 54 54 3c 7f 08 04 04 78 00 44 7d     .....TT<....x.D}
     516:	40 00 20 40 44 3d 00 00 7f 10 28 44 00 41 7f 40     @. @D=....(D.A.@
     526:	00 7c 04 18 04 78 7c 08 04 04 78 38 44 44 44 38     .|...x|...x8DDD8
     536:	7c 14 14 14 08 08 14 14 18 7c 7c 08 04 04 08 48     |........||....H
     546:	54 54 54 20 04 3f 44 40 20 3c 40 40 20 7c 1c 20     TTT .?D@ <@@ |. 
     556:	40 20 1c 3c 40 30 40 3c 44 28 10 28 44 0c 50 50     @ .<@0@<D(.(D.PP
     566:	50 3c 44 64 54 4c 44 00 08 36 41 00 00 00 7f 00     P<DdTLD..6A.....
     576:	00 00 41 36 08 00 08 08 2a 1c 08 08 1c 2a 08 08     ..A6....*....*..

00000586 <__ctors_end>:
     586:	11 24       	eor	r1, r1
     588:	1f be       	out	0x3f, r1	; 63
     58a:	cf ef       	ldi	r28, 0xFF	; 255
     58c:	d0 e1       	ldi	r29, 0x10	; 16
     58e:	de bf       	out	0x3e, r29	; 62
     590:	cd bf       	out	0x3d, r28	; 61

00000592 <__do_copy_data>:
     592:	11 e0       	ldi	r17, 0x01	; 1
     594:	a0 e0       	ldi	r26, 0x00	; 0
     596:	b1 e0       	ldi	r27, 0x01	; 1
     598:	ee ea       	ldi	r30, 0xAE	; 174
     59a:	f2 e2       	ldi	r31, 0x22	; 34
     59c:	02 c0       	rjmp	.+4      	; 0x5a2 <__do_copy_data+0x10>
     59e:	05 90       	lpm	r0, Z+
     5a0:	0d 92       	st	X+, r0
     5a2:	a4 3b       	cpi	r26, 0xB4	; 180
     5a4:	b1 07       	cpc	r27, r17
     5a6:	d9 f7       	brne	.-10     	; 0x59e <__do_copy_data+0xc>

000005a8 <__do_clear_bss>:
     5a8:	25 e0       	ldi	r18, 0x05	; 5
     5aa:	a4 eb       	ldi	r26, 0xB4	; 180
     5ac:	b1 e0       	ldi	r27, 0x01	; 1
     5ae:	01 c0       	rjmp	.+2      	; 0x5b2 <.do_clear_bss_start>

000005b0 <.do_clear_bss_loop>:
     5b0:	1d 92       	st	X+, r1

000005b2 <.do_clear_bss_start>:
     5b2:	a9 3c       	cpi	r26, 0xC9	; 201
     5b4:	b2 07       	cpc	r27, r18
     5b6:	e1 f7       	brne	.-8      	; 0x5b0 <.do_clear_bss_loop>
     5b8:	0e 94 a7 08 	call	0x114e	; 0x114e <main>
     5bc:	0c 94 55 11 	jmp	0x22aa	; 0x22aa <_exit>

000005c0 <__bad_interrupt>:
     5c0:	0c 94 00 00 	jmp	0	; 0x0 <__vectors>

000005c4 <atmel_start_init>:
/**
 * Initializes MCU, drivers and middleware in the project
 **/
void atmel_start_init(void)
{
	system_init();
     5c4:	0e 94 77 09 	call	0x12ee	; 0x12ee <system_init>
     5c8:	08 95       	ret

000005ca <glcd_command>:
		glcd_set_x_address(0);
		for (col = 0; col < GLCD_NUMBER_OF_COLS; col++) {
			glcd_data( (col / 8 + 2) % 2 == 1 ? 0xff : 0x00 );
		}			
	}
}
     5ca:	45 98       	cbi	0x08, 5	; 8
     5cc:	0e 94 ce 03 	call	0x79c	; 0x79c <glcd_spi_write>
     5d0:	08 95       	ret

000005d2 <glcd_data>:
     5d2:	45 9a       	sbi	0x08, 5	; 8
     5d4:	0e 94 ce 03 	call	0x79c	; 0x79c <glcd_spi_write>
     5d8:	08 95       	ret

000005da <glcd_set_contrast>:
     5da:	cf 93       	push	r28
     5dc:	c8 2f       	mov	r28, r24
     5de:	81 e8       	ldi	r24, 0x81	; 129
     5e0:	0e 94 e5 02 	call	0x5ca	; 0x5ca <glcd_command>
     5e4:	c0 34       	cpi	r28, 0x40	; 64
     5e6:	20 f0       	brcs	.+8      	; 0x5f0 <glcd_set_contrast+0x16>
     5e8:	8f e3       	ldi	r24, 0x3F	; 63
     5ea:	0e 94 e5 02 	call	0x5ca	; 0x5ca <glcd_command>
     5ee:	03 c0       	rjmp	.+6      	; 0x5f6 <glcd_set_contrast+0x1c>
     5f0:	8c 2f       	mov	r24, r28
     5f2:	0e 94 e5 02 	call	0x5ca	; 0x5ca <glcd_command>
     5f6:	cf 91       	pop	r28
     5f8:	08 95       	ret

000005fa <glcd_power_up>:
     5fa:	84 ea       	ldi	r24, 0xA4	; 164
     5fc:	0e 94 e5 02 	call	0x5ca	; 0x5ca <glcd_command>
     600:	8d ea       	ldi	r24, 0xAD	; 173
     602:	0e 94 e5 02 	call	0x5ca	; 0x5ca <glcd_command>
     606:	80 e0       	ldi	r24, 0x00	; 0
     608:	0e 94 e5 02 	call	0x5ca	; 0x5ca <glcd_command>
     60c:	8f ea       	ldi	r24, 0xAF	; 175
     60e:	0e 94 e5 02 	call	0x5ca	; 0x5ca <glcd_command>
     612:	08 95       	ret

00000614 <glcd_set_y_address>:
     614:	8f 70       	andi	r24, 0x0F	; 15
     616:	80 6b       	ori	r24, 0xB0	; 176
     618:	0e 94 e5 02 	call	0x5ca	; 0x5ca <glcd_command>
     61c:	08 95       	ret

0000061e <glcd_all_on>:
     61e:	85 ea       	ldi	r24, 0xA5	; 165
     620:	0e 94 e5 02 	call	0x5ca	; 0x5ca <glcd_command>
     624:	08 95       	ret

00000626 <glcd_normal>:
     626:	84 ea       	ldi	r24, 0xA4	; 164
     628:	0e 94 e5 02 	call	0x5ca	; 0x5ca <glcd_command>
     62c:	08 95       	ret

0000062e <glcd_set_column_upper>:
     62e:	82 95       	swap	r24
     630:	8f 70       	andi	r24, 0x0F	; 15
     632:	80 61       	ori	r24, 0x10	; 16
     634:	0e 94 e5 02 	call	0x5ca	; 0x5ca <glcd_command>
     638:	08 95       	ret

0000063a <glcd_set_column_lower>:
     63a:	8f 70       	andi	r24, 0x0F	; 15
     63c:	0e 94 e5 02 	call	0x5ca	; 0x5ca <glcd_command>
     640:	08 95       	ret

00000642 <glcd_set_x_address>:
     642:	cf 93       	push	r28
     644:	c8 2f       	mov	r28, r24
     646:	0e 94 17 03 	call	0x62e	; 0x62e <glcd_set_column_upper>
     64a:	8c 2f       	mov	r24, r28
     64c:	0e 94 1d 03 	call	0x63a	; 0x63a <glcd_set_column_lower>
     650:	cf 91       	pop	r28
     652:	08 95       	ret

00000654 <glcd_set_start_line>:
     654:	8f 73       	andi	r24, 0x3F	; 63
     656:	80 64       	ori	r24, 0x40	; 64
     658:	0e 94 e5 02 	call	0x5ca	; 0x5ca <glcd_command>
     65c:	08 95       	ret

0000065e <glcd_clear_now>:
     65e:	cf 93       	push	r28
     660:	df 93       	push	r29
     662:	d0 e0       	ldi	r29, 0x00	; 0
     664:	8d 2f       	mov	r24, r29
     666:	0e 94 0a 03 	call	0x614	; 0x614 <glcd_set_y_address>
     66a:	80 e0       	ldi	r24, 0x00	; 0
     66c:	0e 94 21 03 	call	0x642	; 0x642 <glcd_set_x_address>
     670:	c0 e0       	ldi	r28, 0x00	; 0
     672:	80 e0       	ldi	r24, 0x00	; 0
     674:	0e 94 e9 02 	call	0x5d2	; 0x5d2 <glcd_data>
     678:	cf 5f       	subi	r28, 0xFF	; 255
     67a:	c0 38       	cpi	r28, 0x80	; 128
     67c:	d1 f7       	brne	.-12     	; 0x672 <glcd_clear_now+0x14>
     67e:	df 5f       	subi	r29, 0xFF	; 255
     680:	d0 31       	cpi	r29, 0x10	; 16
     682:	81 f7       	brne	.-32     	; 0x664 <glcd_clear_now+0x6>
     684:	df 91       	pop	r29
     686:	cf 91       	pop	r28
     688:	08 95       	ret

0000068a <glcd_write>:

void glcd_write()
{
     68a:	cf 92       	push	r12
     68c:	df 92       	push	r13
     68e:	ef 92       	push	r14
     690:	ff 92       	push	r15
     692:	0f 93       	push	r16
     694:	1f 93       	push	r17
     696:	cf 93       	push	r28
     698:	df 93       	push	r29
     69a:	e1 2c       	mov	r14, r1
     69c:	f1 2c       	mov	r15, r1
     69e:	20 e0       	ldi	r18, 0x00	; 0
     6a0:	30 e0       	ldi	r19, 0x00	; 0

	uint8_t bank;

	for (bank = 0; bank < GLCD_NUMBER_OF_BANKS; bank++) {
     6a2:	c1 2c       	mov	r12, r1
		/* Each bank is a single row 8 bits tall */
		uint8_t column;		
		
		if (glcd_bbox_selected->y_min >= (bank+1)*8) {
     6a4:	e0 91 ba 05 	lds	r30, 0x05BA	; 0x8005ba <glcd_bbox_selected>
     6a8:	f0 91 bb 05 	lds	r31, 0x05BB	; 0x8005bb <glcd_bbox_selected+0x1>
     6ac:	89 01       	movw	r16, r18
     6ae:	08 5f       	subi	r16, 0xF8	; 248
     6b0:	1f 4f       	sbci	r17, 0xFF	; 255
     6b2:	81 81       	ldd	r24, Z+1	; 0x01
     6b4:	90 e0       	ldi	r25, 0x00	; 0
     6b6:	80 17       	cp	r24, r16
     6b8:	91 07       	cpc	r25, r17
     6ba:	5c f5       	brge	.+86     	; 0x712 <glcd_write+0x88>
			continue; /* Skip the entire bank */
		}
		
		if (glcd_bbox_selected->y_max < bank*8) {
     6bc:	83 81       	ldd	r24, Z+3	; 0x03
     6be:	90 e0       	ldi	r25, 0x00	; 0
     6c0:	82 17       	cp	r24, r18
     6c2:	93 07       	cpc	r25, r19
     6c4:	74 f1       	brlt	.+92     	; 0x722 <glcd_write+0x98>
			break;    /* No more banks need updating */
		}
		
		glcd_set_y_address(bank);
     6c6:	8c 2d       	mov	r24, r12
     6c8:	0e 94 0a 03 	call	0x614	; 0x614 <glcd_set_y_address>
		glcd_set_x_address(glcd_bbox_selected->x_min);
     6cc:	e0 91 ba 05 	lds	r30, 0x05BA	; 0x8005ba <glcd_bbox_selected>
     6d0:	f0 91 bb 05 	lds	r31, 0x05BB	; 0x8005bb <glcd_bbox_selected+0x1>
     6d4:	80 81       	ld	r24, Z
     6d6:	0e 94 21 03 	call	0x642	; 0x642 <glcd_set_x_address>

		for (column = glcd_bbox_selected->x_min; column <= glcd_bbox_selected->x_max; column++)
     6da:	e0 91 ba 05 	lds	r30, 0x05BA	; 0x8005ba <glcd_bbox_selected>
     6de:	f0 91 bb 05 	lds	r31, 0x05BB	; 0x8005bb <glcd_bbox_selected+0x1>
     6e2:	d0 80       	ld	r13, Z
     6e4:	82 81       	ldd	r24, Z+2	; 0x02
     6e6:	8d 15       	cp	r24, r13
     6e8:	a0 f0       	brcs	.+40     	; 0x712 <glcd_write+0x88>
		{
			glcd_data( glcd_buffer_selected[GLCD_NUMBER_OF_COLS * bank + column] );
     6ea:	e7 01       	movw	r28, r14
     6ec:	e0 91 b8 05 	lds	r30, 0x05B8	; 0x8005b8 <glcd_buffer_selected>
     6f0:	f0 91 b9 05 	lds	r31, 0x05B9	; 0x8005b9 <glcd_buffer_selected+0x1>
     6f4:	ec 0f       	add	r30, r28
     6f6:	fd 1f       	adc	r31, r29
     6f8:	ed 0d       	add	r30, r13
     6fa:	f1 1d       	adc	r31, r1
     6fc:	80 81       	ld	r24, Z
     6fe:	0e 94 e9 02 	call	0x5d2	; 0x5d2 <glcd_data>
		}
		
		glcd_set_y_address(bank);
		glcd_set_x_address(glcd_bbox_selected->x_min);

		for (column = glcd_bbox_selected->x_min; column <= glcd_bbox_selected->x_max; column++)
     702:	d3 94       	inc	r13
     704:	e0 91 ba 05 	lds	r30, 0x05BA	; 0x8005ba <glcd_bbox_selected>
     708:	f0 91 bb 05 	lds	r31, 0x05BB	; 0x8005bb <glcd_bbox_selected+0x1>
     70c:	82 81       	ldd	r24, Z+2	; 0x02
     70e:	8d 15       	cp	r24, r13
     710:	68 f7       	brcc	.-38     	; 0x6ec <glcd_write+0x62>
void glcd_write()
{

	uint8_t bank;

	for (bank = 0; bank < GLCD_NUMBER_OF_BANKS; bank++) {
     712:	c3 94       	inc	r12
     714:	80 e8       	ldi	r24, 0x80	; 128
     716:	e8 0e       	add	r14, r24
     718:	f1 1c       	adc	r15, r1
     71a:	98 01       	movw	r18, r16
     71c:	00 38       	cpi	r16, 0x80	; 128
     71e:	11 05       	cpc	r17, r1
     720:	09 f6       	brne	.-126    	; 0x6a4 <glcd_write+0x1a>
		{
			glcd_data( glcd_buffer_selected[GLCD_NUMBER_OF_COLS * bank + column] );
		}
	}

	glcd_reset_bbox();
     722:	0e 94 30 04 	call	0x860	; 0x860 <glcd_reset_bbox>

}
     726:	df 91       	pop	r29
     728:	cf 91       	pop	r28
     72a:	1f 91       	pop	r17
     72c:	0f 91       	pop	r16
     72e:	ff 90       	pop	r15
     730:	ef 90       	pop	r14
     732:	df 90       	pop	r13
     734:	cf 90       	pop	r12
     736:	08 95       	ret

00000738 <glcd_ST7565R_init>:
	
#elif defined(GLCD_INIT_ZOLEN_12864_FFSSWE_NAA)
	/* Init sequence for Zolen 128x64 module with
	 * size 40x35mm. Chip ST7567 */

	glcd_command(0xe2); 
     738:	82 ee       	ldi	r24, 0xE2	; 226
     73a:	0e 94 e5 02 	call	0x5ca	; 0x5ca <glcd_command>
	glcd_command(0xa3); /* LCD bias set at 1/9 */
     73e:	83 ea       	ldi	r24, 0xA3	; 163
     740:	0e 94 e5 02 	call	0x5ca	; 0x5ca <glcd_command>
	glcd_command(0xa0); /* ADC select in normal mode */
     744:	80 ea       	ldi	r24, 0xA0	; 160
     746:	0e 94 e5 02 	call	0x5ca	; 0x5ca <glcd_command>
	glcd_command(0xc8); /* Common output mode select: reverse direction (last 3 bits are ignored) */
     74a:	88 ec       	ldi	r24, 0xC8	; 200
     74c:	0e 94 e5 02 	call	0x5ca	; 0x5ca <glcd_command>

	glcd_command(0x40),		           /* Display start line for Displaytech 64128N */
     750:	80 e4       	ldi	r24, 0x40	; 64
     752:	0e 94 e5 02 	call	0x5ca	; 0x5ca <glcd_command>
	glcd_command(0x28 | 0x04),            /* power control: turn on voltage converter */
     756:	8c e2       	ldi	r24, 0x2C	; 44
     758:	0e 94 e5 02 	call	0x5ca	; 0x5ca <glcd_command>
	glcd_command(50),
     75c:	82 e3       	ldi	r24, 0x32	; 50
     75e:	0e 94 e5 02 	call	0x5ca	; 0x5ca <glcd_command>
	glcd_command(0x28 | 0x06),            /* power control: turn on voltage regulator */
     762:	8e e2       	ldi	r24, 0x2E	; 46
     764:	0e 94 e5 02 	call	0x5ca	; 0x5ca <glcd_command>
    milliseconds can be achieved.
 */
void
_delay_loop_2(uint16_t __count)
{
	__asm__ volatile (
     768:	84 ed       	ldi	r24, 0xD4	; 212
     76a:	90 e3       	ldi	r25, 0x30	; 48
     76c:	01 97       	sbiw	r24, 0x01	; 1
     76e:	f1 f7       	brne	.-4      	; 0x76c <glcd_ST7565R_init+0x34>
	_delay_ms(50),
	glcd_command(0x28 | 0x07),            /* power control: turn on voltage follower */
     770:	8f e2       	ldi	r24, 0x2F	; 47
     772:	0e 94 e5 02 	call	0x5ca	; 0x5ca <glcd_command>
     776:	84 ec       	ldi	r24, 0xC4	; 196
     778:	99 e0       	ldi	r25, 0x09	; 9
     77a:	01 97       	sbiw	r24, 0x01	; 1
     77c:	f1 f7       	brne	.-4      	; 0x77a <glcd_ST7565R_init+0x42>
	_delay_ms(10),
	glcd_command(0x24),                   /* Set V0 voltage resistor ratio. Setting for controlling brightness of Displaytech 64128N */
     77e:	84 e2       	ldi	r24, 0x24	; 36
     780:	0e 94 e5 02 	call	0x5ca	; 0x5ca <glcd_command>


	glcd_command(0xa6); /* Display OFF */
     784:	86 ea       	ldi	r24, 0xA6	; 166
     786:	0e 94 e5 02 	call	0x5ca	; 0x5ca <glcd_command>
	
	
	//glcd_command(0x2f); /* Power control set to operating mode: 7 */
	//glcd_command(0x24); /* Internal resistor ratio, set to: 6 */
	glcd_set_contrast(30); /* Set contrast, value experimentally determined, value 0 to 63 */
     78a:	8e e1       	ldi	r24, 0x1E	; 30
     78c:	0e 94 ed 02 	call	0x5da	; 0x5da <glcd_set_contrast>
	glcd_command(0xaf); /* Display on */
     790:	8f ea       	ldi	r24, 0xAF	; 175
     792:	0e 94 e5 02 	call	0x5ca	; 0x5ca <glcd_command>

	glcd_power_up();
     796:	0e 94 fd 02 	call	0x5fa	; 0x5fa <glcd_power_up>
     79a:	08 95       	ret

0000079c <glcd_spi_write>:
	
}

void glcd_spi_write(uint8_t c)
{
	GLCD_SELECT();
     79c:	47 98       	cbi	0x08, 7	; 8
     79e:	98 e0       	ldi	r25, 0x08	; 8
	//while(!(SPSR & (1<<SPIF))); /* wait until transmission is complete */

	uint8_t i = 8;
	do
	{
		if(c&128)
     7a0:	88 23       	and	r24, r24
     7a2:	14 f4       	brge	.+4      	; 0x7a8 <glcd_spi_write+0xc>
			sbi(CONTROLLER_MOSI_PORT,CONTROLLER_MOSI_PIN);
     7a4:	43 9a       	sbi	0x08, 3	; 8
     7a6:	01 c0       	rjmp	.+2      	; 0x7aa <glcd_spi_write+0xe>
		else
			cbi(CONTROLLER_MOSI_PORT,CONTROLLER_MOSI_PIN);
     7a8:	43 98       	cbi	0x08, 3	; 8

		//u8g_SetPILevel(u8g, U8G_PI_MOSI, val & 128 );
		c <<= 1;
     7aa:	88 0f       	add	r24, r24
		//u8g_SetPILevel(u8g, U8G_PI_SCK, 1 );
		sbi(CONTROLLER_SCK_PORT,CONTROLLER_SCK_PIN);
     7ac:	42 9a       	sbi	0x08, 2	; 8
		//_delay_us(2);
		//u8g_MicroDelay();		/* 15 Aug 2012: added for high speed uC */
		cbi(CONTROLLER_SCK_PORT,CONTROLLER_SCK_PIN);
     7ae:	42 98       	cbi	0x08, 2	; 8
     7b0:	91 50       	subi	r25, 0x01	; 1
		//_delay_us(2);
		//u8g_SetPILevel(u8g, U8G_PI_SCK, 0 );
		//u8g_MicroDelay();		/* 15 Aug 2012: added for high speed uC */
		i--;
	} while( i != 0 );
     7b2:	b1 f7       	brne	.-20     	; 0x7a0 <glcd_spi_write+0x4>
		

	GLCD_DESELECT();	
     7b4:	47 9a       	sbi	0x08, 7	; 8
     7b6:	08 95       	ret

000007b8 <glcd_reset>:
}

void glcd_reset(void)
{
	/* Toggle RST low to reset. Minimum pulse 100ns on datasheet. */
	GLCD_SELECT();
     7b8:	47 98       	cbi	0x08, 7	; 8
	GLCD_RESET_LOW();
     7ba:	46 98       	cbi	0x08, 6	; 8
     7bc:	84 ec       	ldi	r24, 0xC4	; 196
     7be:	99 e0       	ldi	r25, 0x09	; 9
     7c0:	01 97       	sbiw	r24, 0x01	; 1
     7c2:	f1 f7       	brne	.-4      	; 0x7c0 <glcd_reset+0x8>
	_delay_ms(GLCD_RESET_TIME);
	GLCD_RESET_HIGH();
     7c4:	46 9a       	sbi	0x08, 6	; 8
	GLCD_DESELECT();	
     7c6:	47 9a       	sbi	0x08, 7	; 8
     7c8:	08 95       	ret

000007ca <glcd_init>:
	 * Set up SPI for AVR8
	 * Note: AVR's SS pin must be set to output, regardless of whether we
	 * actually use it. This is a requirement of SPI mster mode.
	 */
	//sbi(DDR(AVR_SS_PORT),AVR_SS_PIN);
	sbi(DDR(CONTROLLER_RST_PORT),CONTROLLER_RST_PIN);
     7ca:	3e 9a       	sbi	0x07, 6	; 7

	glcd_reset();
     7cc:	0e 94 dc 03 	call	0x7b8	; 0x7b8 <glcd_reset>
	
	/* Set SCK and MOSI as output */
	sbi(DDR(CONTROLLER_SCK_PORT),CONTROLLER_SCK_PIN);
     7d0:	3a 9a       	sbi	0x07, 2	; 7
	sbi(DDR(CONTROLLER_MOSI_PORT),CONTROLLER_MOSI_PIN);
     7d2:	3b 9a       	sbi	0x07, 3	; 7
	/*
	 * Set MISO as input with pullup. This needs to be set for
	 * SPI to work, even though we never use or read it.
	 */
	//cbi(DDR(CONTROLLER_MISO_PORT),CONTROLLER_MISO_PIN); // B3 MISO as input
	sbi(CONTROLLER_MOSI_PORT,CONTROLLER_MOSI_PIN);
     7d4:	43 9a       	sbi	0x08, 3	; 8
	
	/* Set pin to controller SS as output */
	sbi(DDR(CONTROLLER_SS_PORT),CONTROLLER_SS_PIN); // A5
     7d6:	3f 9a       	sbi	0x07, 7	; 7

	/* Set LCD A0 pin as output */
	sbi(DDR(CONTROLLER_A0_PORT),CONTROLLER_A0_PIN); // A6
     7d8:	3d 9a       	sbi	0x07, 5	; 7
		
	/* Init SS pin high (i.e LCD deselected) */
	sbi(CONTROLLER_SS_PORT,CONTROLLER_SS_PIN);
     7da:	47 9a       	sbi	0x08, 7	; 8

	/* Deselect LCD */
	GLCD_DESELECT();
     7dc:	47 9a       	sbi	0x08, 7	; 8
     7de:	8c e4       	ldi	r24, 0x4C	; 76
     7e0:	9d e1       	ldi	r25, 0x1D	; 29
     7e2:	01 97       	sbiw	r24, 0x01	; 1
     7e4:	f1 f7       	brne	.-4      	; 0x7e2 <glcd_init+0x18>
	/* Enable interrupts */
	//sei();
		
	_delay_ms(30); /* Example in datasheet does this (20ms) */

	glcd_ST7565R_init();
     7e6:	0e 94 9c 03 	call	0x738	; 0x738 <glcd_ST7565R_init>

	glcd_all_on();
     7ea:	0e 94 0f 03 	call	0x61e	; 0x61e <glcd_all_on>
	
	//_delay_ms(500);
	glcd_normal();
     7ee:	0e 94 13 03 	call	0x626	; 0x626 <glcd_normal>

	glcd_set_start_line(0);
     7f2:	80 e0       	ldi	r24, 0x00	; 0
     7f4:	0e 94 2a 03 	call	0x654	; 0x654 <glcd_set_start_line>
	glcd_clear_now();
     7f8:	0e 94 2f 03 	call	0x65e	; 0x65e <glcd_clear_now>
			
	glcd_select_screen(glcd_buffer,&glcd_bbox);
     7fc:	64 eb       	ldi	r22, 0xB4	; 180
     7fe:	71 e0       	ldi	r23, 0x01	; 1
     800:	88 eb       	ldi	r24, 0xB8	; 184
     802:	91 e0       	ldi	r25, 0x01	; 1
     804:	0e 94 6b 04 	call	0x8d6	; 0x8d6 <glcd_select_screen>
	
	glcd_clear();	
     808:	0e 94 43 04 	call	0x886	; 0x886 <glcd_clear>
     80c:	08 95       	ret

0000080e <glcd_update_bbox>:
void glcd_bbox_refresh() {
	/* Marks bounding box as entire screen, so on next glcd_write(), it writes the entire buffer to the LCD */
	glcd_bbox_selected->x_min = 0;
	glcd_bbox_selected->x_max = GLCD_LCD_WIDTH - 1;
	glcd_bbox_selected->y_min = 0;
	glcd_bbox_selected->y_max = GLCD_LCD_HEIGHT -1;		
     80e:	88 23       	and	r24, r24
     810:	0c f4       	brge	.+2      	; 0x814 <glcd_update_bbox+0x6>
     812:	8f e7       	ldi	r24, 0x7F	; 127
     814:	44 23       	and	r20, r20
     816:	0c f4       	brge	.+2      	; 0x81a <glcd_update_bbox+0xc>
     818:	4f e7       	ldi	r20, 0x7F	; 127
     81a:	60 34       	cpi	r22, 0x40	; 64
     81c:	08 f0       	brcs	.+2      	; 0x820 <glcd_update_bbox+0x12>
     81e:	6f e3       	ldi	r22, 0x3F	; 63
     820:	20 34       	cpi	r18, 0x40	; 64
     822:	08 f0       	brcs	.+2      	; 0x826 <glcd_update_bbox+0x18>
     824:	2f e3       	ldi	r18, 0x3F	; 63
     826:	e0 91 ba 05 	lds	r30, 0x05BA	; 0x8005ba <glcd_bbox_selected>
     82a:	f0 91 bb 05 	lds	r31, 0x05BB	; 0x8005bb <glcd_bbox_selected+0x1>
     82e:	90 81       	ld	r25, Z
     830:	89 17       	cp	r24, r25
     832:	08 f4       	brcc	.+2      	; 0x836 <glcd_update_bbox+0x28>
     834:	80 83       	st	Z, r24
     836:	e0 91 ba 05 	lds	r30, 0x05BA	; 0x8005ba <glcd_bbox_selected>
     83a:	f0 91 bb 05 	lds	r31, 0x05BB	; 0x8005bb <glcd_bbox_selected+0x1>
     83e:	82 81       	ldd	r24, Z+2	; 0x02
     840:	84 17       	cp	r24, r20
     842:	08 f4       	brcc	.+2      	; 0x846 <glcd_update_bbox+0x38>
     844:	42 83       	std	Z+2, r20	; 0x02
     846:	81 81       	ldd	r24, Z+1	; 0x01
     848:	68 17       	cp	r22, r24
     84a:	08 f4       	brcc	.+2      	; 0x84e <glcd_update_bbox+0x40>
     84c:	61 83       	std	Z+1, r22	; 0x01
     84e:	e0 91 ba 05 	lds	r30, 0x05BA	; 0x8005ba <glcd_bbox_selected>
     852:	f0 91 bb 05 	lds	r31, 0x05BB	; 0x8005bb <glcd_bbox_selected+0x1>
     856:	83 81       	ldd	r24, Z+3	; 0x03
     858:	82 17       	cp	r24, r18
     85a:	08 f4       	brcc	.+2      	; 0x85e <glcd_update_bbox+0x50>
     85c:	23 83       	std	Z+3, r18	; 0x03
     85e:	08 95       	ret

00000860 <glcd_reset_bbox>:
     860:	e0 91 ba 05 	lds	r30, 0x05BA	; 0x8005ba <glcd_bbox_selected>
     864:	f0 91 bb 05 	lds	r31, 0x05BB	; 0x8005bb <glcd_bbox_selected+0x1>
     868:	8f e7       	ldi	r24, 0x7F	; 127
     86a:	80 83       	st	Z, r24
     86c:	e0 91 ba 05 	lds	r30, 0x05BA	; 0x8005ba <glcd_bbox_selected>
     870:	f0 91 bb 05 	lds	r31, 0x05BB	; 0x8005bb <glcd_bbox_selected+0x1>
     874:	12 82       	std	Z+2, r1	; 0x02
     876:	8f e3       	ldi	r24, 0x3F	; 63
     878:	81 83       	std	Z+1, r24	; 0x01
     87a:	e0 91 ba 05 	lds	r30, 0x05BA	; 0x8005ba <glcd_bbox_selected>
     87e:	f0 91 bb 05 	lds	r31, 0x05BB	; 0x8005bb <glcd_bbox_selected+0x1>
     882:	13 82       	std	Z+3, r1	; 0x03
     884:	08 95       	ret

00000886 <glcd_clear>:
}

void glcd_clear(void) {
	memset(glcd_buffer_selected, 0x00, GLCD_LCD_WIDTH * GLCD_LCD_HEIGHT / 8);
     886:	e0 91 b8 05 	lds	r30, 0x05B8	; 0x8005b8 <glcd_buffer_selected>
     88a:	f0 91 b9 05 	lds	r31, 0x05B9	; 0x8005b9 <glcd_buffer_selected+0x1>
     88e:	80 e0       	ldi	r24, 0x00	; 0
     890:	94 e0       	ldi	r25, 0x04	; 4
     892:	df 01       	movw	r26, r30
     894:	9c 01       	movw	r18, r24
     896:	1d 92       	st	X+, r1
     898:	21 50       	subi	r18, 0x01	; 1
     89a:	30 40       	sbci	r19, 0x00	; 0
     89c:	e1 f7       	brne	.-8      	; 0x896 <glcd_clear+0x10>
	glcd_update_bbox(0,0,GLCD_LCD_WIDTH - 1,GLCD_LCD_HEIGHT - 1);
     89e:	2f e3       	ldi	r18, 0x3F	; 63
     8a0:	4f e7       	ldi	r20, 0x7F	; 127
     8a2:	60 e0       	ldi	r22, 0x00	; 0
     8a4:	80 e0       	ldi	r24, 0x00	; 0
     8a6:	0e 94 07 04 	call	0x80e	; 0x80e <glcd_update_bbox>
	glcd_write();
     8aa:	0e 94 45 03 	call	0x68a	; 0x68a <glcd_write>
     8ae:	08 95       	ret

000008b0 <glcd_clear_buffer>:
}

void glcd_clear_buffer(void) {
	memset(glcd_buffer_selected, 0x00, GLCD_LCD_WIDTH * GLCD_LCD_HEIGHT / 8);
     8b0:	e0 91 b8 05 	lds	r30, 0x05B8	; 0x8005b8 <glcd_buffer_selected>
     8b4:	f0 91 b9 05 	lds	r31, 0x05B9	; 0x8005b9 <glcd_buffer_selected+0x1>
     8b8:	80 e0       	ldi	r24, 0x00	; 0
     8ba:	94 e0       	ldi	r25, 0x04	; 4
     8bc:	df 01       	movw	r26, r30
     8be:	9c 01       	movw	r18, r24
     8c0:	1d 92       	st	X+, r1
     8c2:	21 50       	subi	r18, 0x01	; 1
     8c4:	30 40       	sbci	r19, 0x00	; 0
     8c6:	e1 f7       	brne	.-8      	; 0x8c0 <glcd_clear_buffer+0x10>
	glcd_update_bbox(0,0,GLCD_LCD_WIDTH - 1,GLCD_LCD_HEIGHT - 1);
     8c8:	2f e3       	ldi	r18, 0x3F	; 63
     8ca:	4f e7       	ldi	r20, 0x7F	; 127
     8cc:	60 e0       	ldi	r22, 0x00	; 0
     8ce:	80 e0       	ldi	r24, 0x00	; 0
     8d0:	0e 94 07 04 	call	0x80e	; 0x80e <glcd_update_bbox>
     8d4:	08 95       	ret

000008d6 <glcd_select_screen>:
}

void glcd_select_screen(uint8_t *buffer, glcd_BoundingBox_t *bbox)
{
	glcd_buffer_selected = buffer;
     8d6:	90 93 b9 05 	sts	0x05B9, r25	; 0x8005b9 <glcd_buffer_selected+0x1>
     8da:	80 93 b8 05 	sts	0x05B8, r24	; 0x8005b8 <glcd_buffer_selected>
	glcd_bbox_selected = bbox;
     8de:	70 93 bb 05 	sts	0x05BB, r23	; 0x8005bb <glcd_bbox_selected+0x1>
     8e2:	60 93 ba 05 	sts	0x05BA, r22	; 0x8005ba <glcd_bbox_selected>
     8e6:	08 95       	ret

000008e8 <glcd_set_pixel>:
#include <string.h>
#include "glcd.h"

/* Based on PCD8544 library by Limor Fried */
void glcd_set_pixel(uint8_t x, uint8_t y, uint8_t color) {
	if (x > (GLCD_LCD_WIDTH-1) || y > (GLCD_LCD_HEIGHT-1)) {
     8e8:	88 23       	and	r24, r24
     8ea:	e4 f1       	brlt	.+120    	; 0x964 <glcd_set_pixel+0x7c>
     8ec:	60 34       	cpi	r22, 0x40	; 64
     8ee:	d0 f5       	brcc	.+116    	; 0x964 <glcd_set_pixel+0x7c>
		/* don't do anything if x/y is outside bounds of display size */
		return;
	}

	if (color) {
     8f0:	44 23       	and	r20, r20
     8f2:	d1 f0       	breq	.+52     	; 0x928 <glcd_set_pixel+0x40>
		/* Set black */
		glcd_buffer[x+ (y/8)*GLCD_LCD_WIDTH] |= ( 1 << (y%8));
     8f4:	e8 2f       	mov	r30, r24
     8f6:	f0 e0       	ldi	r31, 0x00	; 0
     8f8:	96 2f       	mov	r25, r22
     8fa:	96 95       	lsr	r25
     8fc:	96 95       	lsr	r25
     8fe:	96 95       	lsr	r25
     900:	20 e8       	ldi	r18, 0x80	; 128
     902:	92 9f       	mul	r25, r18
     904:	e0 0d       	add	r30, r0
     906:	f1 1d       	adc	r31, r1
     908:	11 24       	eor	r1, r1
     90a:	e8 54       	subi	r30, 0x48	; 72
     90c:	fe 4f       	sbci	r31, 0xFE	; 254
     90e:	96 2f       	mov	r25, r22
     910:	97 70       	andi	r25, 0x07	; 7
     912:	21 e0       	ldi	r18, 0x01	; 1
     914:	30 e0       	ldi	r19, 0x00	; 0
     916:	02 c0       	rjmp	.+4      	; 0x91c <glcd_set_pixel+0x34>
     918:	22 0f       	add	r18, r18
     91a:	33 1f       	adc	r19, r19
     91c:	9a 95       	dec	r25
     91e:	e2 f7       	brpl	.-8      	; 0x918 <glcd_set_pixel+0x30>
     920:	90 81       	ld	r25, Z
     922:	29 2b       	or	r18, r25
     924:	20 83       	st	Z, r18
     926:	1a c0       	rjmp	.+52     	; 0x95c <glcd_set_pixel+0x74>
	} else {
		/* Set white */
		glcd_buffer[x+ (y/8)*GLCD_LCD_WIDTH] &= ~ (1 << (y%8));
     928:	e8 2f       	mov	r30, r24
     92a:	f0 e0       	ldi	r31, 0x00	; 0
     92c:	96 2f       	mov	r25, r22
     92e:	96 95       	lsr	r25
     930:	96 95       	lsr	r25
     932:	96 95       	lsr	r25
     934:	20 e8       	ldi	r18, 0x80	; 128
     936:	92 9f       	mul	r25, r18
     938:	e0 0d       	add	r30, r0
     93a:	f1 1d       	adc	r31, r1
     93c:	11 24       	eor	r1, r1
     93e:	e8 54       	subi	r30, 0x48	; 72
     940:	fe 4f       	sbci	r31, 0xFE	; 254
     942:	96 2f       	mov	r25, r22
     944:	97 70       	andi	r25, 0x07	; 7
     946:	21 e0       	ldi	r18, 0x01	; 1
     948:	30 e0       	ldi	r19, 0x00	; 0
     94a:	02 c0       	rjmp	.+4      	; 0x950 <glcd_set_pixel+0x68>
     94c:	22 0f       	add	r18, r18
     94e:	33 1f       	adc	r19, r19
     950:	9a 95       	dec	r25
     952:	e2 f7       	brpl	.-8      	; 0x94c <glcd_set_pixel+0x64>
     954:	20 95       	com	r18
     956:	90 81       	ld	r25, Z
     958:	29 23       	and	r18, r25
     95a:	20 83       	st	Z, r18
	}

	glcd_update_bbox(x,y,x,y);
     95c:	26 2f       	mov	r18, r22
     95e:	48 2f       	mov	r20, r24
     960:	0e 94 07 04 	call	0x80e	; 0x80e <glcd_update_bbox>
     964:	08 95       	ret

00000966 <glcd_set_font>:
	font_current.width = width;
	font_current.height = height;
	font_current.start_char = start_char;
	font_current.end_char = end_char;
	font_current.table_type = type; /* Only supports MikroElektronika generated format at the moment */
}
     966:	0f 93       	push	r16
     968:	ec eb       	ldi	r30, 0xBC	; 188
     96a:	f5 e0       	ldi	r31, 0x05	; 5
     96c:	91 83       	std	Z+1, r25	; 0x01
     96e:	80 83       	st	Z, r24
     970:	62 83       	std	Z+2, r22	; 0x02
     972:	43 83       	std	Z+3, r20	; 0x03
     974:	24 83       	std	Z+4, r18	; 0x04
     976:	05 83       	std	Z+5, r16	; 0x05
     978:	81 e0       	ldi	r24, 0x01	; 1
     97a:	86 83       	std	Z+6, r24	; 0x06
     97c:	0f 91       	pop	r16
     97e:	08 95       	ret

00000980 <glcd_draw_char_xy>:

uint8_t glcd_draw_char_xy(uint8_t x, uint8_t y, char c)
{
     980:	2f 92       	push	r2
     982:	3f 92       	push	r3
     984:	4f 92       	push	r4
     986:	5f 92       	push	r5
     988:	6f 92       	push	r6
     98a:	7f 92       	push	r7
     98c:	8f 92       	push	r8
     98e:	9f 92       	push	r9
     990:	af 92       	push	r10
     992:	bf 92       	push	r11
     994:	cf 92       	push	r12
     996:	df 92       	push	r13
     998:	ef 92       	push	r14
     99a:	ff 92       	push	r15
     99c:	0f 93       	push	r16
     99e:	1f 93       	push	r17
     9a0:	cf 93       	push	r28
     9a2:	df 93       	push	r29
     9a4:	cd b7       	in	r28, 0x3d	; 61
     9a6:	de b7       	in	r29, 0x3e	; 62
     9a8:	2f 97       	sbiw	r28, 0x0f	; 15
     9aa:	0f b6       	in	r0, 0x3f	; 63
     9ac:	f8 94       	cli
     9ae:	de bf       	out	0x3e, r29	; 62
     9b0:	0f be       	out	0x3f, r0	; 63
     9b2:	cd bf       	out	0x3d, r28	; 61
     9b4:	88 2e       	mov	r8, r24
     9b6:	56 2e       	mov	r5, r22
	if (c < font_current.start_char || c > font_current.end_char) {
     9b8:	20 91 c0 05 	lds	r18, 0x05C0	; 0x8005c0 <font_current+0x4>
     9bc:	42 17       	cp	r20, r18
     9be:	30 f0       	brcs	.+12     	; 0x9cc <glcd_draw_char_xy+0x4c>
     9c0:	80 91 c1 05 	lds	r24, 0x05C1	; 0x8005c1 <font_current+0x5>
     9c4:	84 17       	cp	r24, r20
     9c6:	18 f4       	brcc	.+6      	; 0x9ce <glcd_draw_char_xy+0x4e>
		c = '.';
     9c8:	4e e2       	ldi	r20, 0x2E	; 46
     9ca:	01 c0       	rjmp	.+2      	; 0x9ce <glcd_draw_char_xy+0x4e>
     9cc:	4e e2       	ldi	r20, 0x2E	; 46
	}
	
	if (font_current.table_type == STANG) {
     9ce:	80 91 c2 05 	lds	r24, 0x05C2	; 0x8005c2 <font_current+0x6>
     9d2:	81 11       	cpse	r24, r1
     9d4:	58 c0       	rjmp	.+176    	; 0xa86 <glcd_draw_char_xy+0x106>
		/* Font table in Pascal Stang format (single byte height with with no width specifier) */
		/* Maximum height of 8 bits only */
			
		uint8_t i;
		for ( i = 0; i < font_current.width; i++ ) {
     9d6:	80 91 be 05 	lds	r24, 0x05BE	; 0x8005be <font_current+0x2>
     9da:	88 23       	and	r24, r24
     9dc:	09 f4       	brne	.+2      	; 0x9e0 <glcd_draw_char_xy+0x60>
     9de:	0d c2       	rjmp	.+1050   	; 0xdfa <glcd_draw_char_xy+0x47a>
     9e0:	41 2c       	mov	r4, r1
#if defined(GLCD_DEVICE_AVR8)			
			uint8_t dat = pgm_read_byte( font_current.font_table + ((c - font_current.start_char) * (font_current.width)) + i );
     9e2:	0f 2e       	mov	r0, r31
     9e4:	fc eb       	ldi	r31, 0xBC	; 188
     9e6:	cf 2e       	mov	r12, r31
     9e8:	f5 e0       	ldi	r31, 0x05	; 5
     9ea:	df 2e       	mov	r13, r31
     9ec:	f0 2d       	mov	r31, r0
     9ee:	e4 2e       	mov	r14, r20
     9f0:	f1 2c       	mov	r15, r1
			uint8_t dat = *( font_current.font_table + ((c - font_current.start_char) * (font_current.width)) + i );
#endif
			uint8_t j;
			for (j = 0; j < 8; j++) {
				/* Set pixel color for each bit of the column (8-bits) */
				if (x+i >= GLCD_LCD_WIDTH || y+j >= GLCD_LCD_HEIGHT) {
     9f2:	91 2c       	mov	r9, r1
     9f4:	a5 2c       	mov	r10, r5
     9f6:	b1 2c       	mov	r11, r1
     9f8:	00 e4       	ldi	r16, 0x40	; 64
     9fa:	10 e0       	ldi	r17, 0x00	; 0
     9fc:	0a 19       	sub	r16, r10
     9fe:	1b 09       	sbc	r17, r11
     a00:	68 2c       	mov	r6, r8
		/* Maximum height of 8 bits only */
			
		uint8_t i;
		for ( i = 0; i < font_current.width; i++ ) {
#if defined(GLCD_DEVICE_AVR8)			
			uint8_t dat = pgm_read_byte( font_current.font_table + ((c - font_current.start_char) * (font_current.width)) + i );
     a02:	d6 01       	movw	r26, r12
     a04:	14 96       	adiw	r26, 0x04	; 4
     a06:	9c 91       	ld	r25, X
     a08:	14 97       	sbiw	r26, 0x04	; 4
     a0a:	97 01       	movw	r18, r14
     a0c:	29 1b       	sub	r18, r25
     a0e:	31 09       	sbc	r19, r1
     a10:	82 9f       	mul	r24, r18
     a12:	f0 01       	movw	r30, r0
     a14:	83 9f       	mul	r24, r19
     a16:	f0 0d       	add	r31, r0
     a18:	11 24       	eor	r1, r1
     a1a:	84 2d       	mov	r24, r4
     a1c:	90 e0       	ldi	r25, 0x00	; 0
     a1e:	e8 0f       	add	r30, r24
     a20:	f9 1f       	adc	r31, r25
     a22:	2d 90       	ld	r2, X+
     a24:	3c 90       	ld	r3, X
     a26:	e2 0d       	add	r30, r2
     a28:	f3 1d       	adc	r31, r3
     a2a:	e4 91       	lpm	r30, Z
			uint8_t dat = *( font_current.font_table + ((c - font_current.start_char) * (font_current.width)) + i );
#endif
			uint8_t j;
			for (j = 0; j < 8; j++) {
				/* Set pixel color for each bit of the column (8-bits) */
				if (x+i >= GLCD_LCD_WIDTH || y+j >= GLCD_LCD_HEIGHT) {
     a2c:	88 0d       	add	r24, r8
     a2e:	99 1d       	adc	r25, r9
     a30:	80 38       	cpi	r24, 0x80	; 128
     a32:	91 05       	cpc	r25, r1
     a34:	0c f0       	brlt	.+2      	; 0xa38 <glcd_draw_char_xy+0xb8>
     a36:	95 c1       	rjmp	.+810    	; 0xd62 <glcd_draw_char_xy+0x3e2>
     a38:	b0 e4       	ldi	r27, 0x40	; 64
     a3a:	ab 16       	cp	r10, r27
     a3c:	b1 04       	cpc	r11, r1
     a3e:	0c f0       	brlt	.+2      	; 0xa42 <glcd_draw_char_xy+0xc2>
     a40:	92 c1       	rjmp	.+804    	; 0xd66 <glcd_draw_char_xy+0x3e6>
     a42:	75 2c       	mov	r7, r5
     a44:	1a 82       	std	Y+2, r1	; 0x02
     a46:	19 82       	std	Y+1, r1	; 0x01
					/* Don't try and write past the dimensions of the LCD */
					return 0;
				}
				if (dat & (1<<j)) {
     a48:	2e 2e       	mov	r2, r30
     a4a:	31 2c       	mov	r3, r1
     a4c:	c1 01       	movw	r24, r2
     a4e:	09 80       	ldd	r0, Y+1	; 0x01
     a50:	02 c0       	rjmp	.+4      	; 0xa56 <glcd_draw_char_xy+0xd6>
     a52:	95 95       	asr	r25
     a54:	87 95       	ror	r24
     a56:	0a 94       	dec	r0
     a58:	e2 f7       	brpl	.-8      	; 0xa52 <glcd_draw_char_xy+0xd2>
     a5a:	80 ff       	sbrs	r24, 0
     a5c:	06 c0       	rjmp	.+12     	; 0xa6a <glcd_draw_char_xy+0xea>
					glcd_set_pixel(x+i,y+j,BLACK);
     a5e:	41 e0       	ldi	r20, 0x01	; 1
     a60:	67 2d       	mov	r22, r7
     a62:	86 2d       	mov	r24, r6
     a64:	0e 94 74 04 	call	0x8e8	; 0x8e8 <glcd_set_pixel>
     a68:	a5 c1       	rjmp	.+842    	; 0xdb4 <glcd_draw_char_xy+0x434>
				} else {
					glcd_set_pixel(x+i,y+j,WHITE);
     a6a:	40 e0       	ldi	r20, 0x00	; 0
     a6c:	67 2d       	mov	r22, r7
     a6e:	86 2d       	mov	r24, r6
     a70:	0e 94 74 04 	call	0x8e8	; 0x8e8 <glcd_set_pixel>
     a74:	9f c1       	rjmp	.+830    	; 0xdb4 <glcd_draw_char_xy+0x434>
	if (font_current.table_type == STANG) {
		/* Font table in Pascal Stang format (single byte height with with no width specifier) */
		/* Maximum height of 8 bits only */
			
		uint8_t i;
		for ( i = 0; i < font_current.width; i++ ) {
     a76:	43 94       	inc	r4
     a78:	f6 01       	movw	r30, r12
     a7a:	82 81       	ldd	r24, Z+2	; 0x02
     a7c:	63 94       	inc	r6
     a7e:	48 16       	cp	r4, r24
     a80:	08 f4       	brcc	.+2      	; 0xa84 <glcd_draw_char_xy+0x104>
     a82:	bf cf       	rjmp	.-130    	; 0xa02 <glcd_draw_char_xy+0x82>
     a84:	ba c1       	rjmp	.+884    	; 0xdfa <glcd_draw_char_xy+0x47a>
		
		/* always return how many pixels of width were written */
		/* here for "stang" format fonts, it is always fixed */
		return font_current.width;
		
	} else if (font_current.table_type == MIKRO) {
     a86:	81 30       	cpi	r24, 0x01	; 1
     a88:	09 f0       	breq	.+2      	; 0xa8c <glcd_draw_char_xy+0x10c>
     a8a:	a3 c0       	rjmp	.+326    	; 0xbd2 <glcd_draw_char_xy+0x252>
		uint8_t var_width;
		uint8_t bytes_high;
		uint8_t bytes_per_char;
		const char *p;
		
		if ((font_current.height % 8) > 0){
     a8c:	80 91 bf 05 	lds	r24, 0x05BF	; 0x8005bf <font_current+0x3>
     a90:	98 2f       	mov	r25, r24
     a92:	97 70       	andi	r25, 0x07	; 7
     a94:	31 f0       	breq	.+12     	; 0xaa2 <glcd_draw_char_xy+0x122>
			bytes_high = (font_current.height / 8) + 1;
     a96:	68 2e       	mov	r6, r24
     a98:	66 94       	lsr	r6
     a9a:	66 94       	lsr	r6
     a9c:	66 94       	lsr	r6
     a9e:	63 94       	inc	r6
     aa0:	04 c0       	rjmp	.+8      	; 0xaaa <glcd_draw_char_xy+0x12a>
		}
		else{
			bytes_high = (font_current.height / 8);
     aa2:	68 2e       	mov	r6, r24
     aa4:	66 94       	lsr	r6
     aa6:	66 94       	lsr	r6
     aa8:	66 94       	lsr	r6
		}
		bytes_per_char = font_current.width * bytes_high + 1; /* The +1 is the width byte at the start */
				
		p = font_current.font_table + (c - font_current.start_char) * bytes_per_char;
     aaa:	ec eb       	ldi	r30, 0xBC	; 188
     aac:	f5 e0       	ldi	r31, 0x05	; 5
     aae:	32 81       	ldd	r19, Z+2	; 0x02
     ab0:	63 9e       	mul	r6, r19
     ab2:	30 2d       	mov	r19, r0
     ab4:	11 24       	eor	r1, r1
     ab6:	3f 5f       	subi	r19, 0xFF	; 255
     ab8:	84 2f       	mov	r24, r20
     aba:	90 e0       	ldi	r25, 0x00	; 0
     abc:	82 1b       	sub	r24, r18
     abe:	91 09       	sbc	r25, r1
     ac0:	38 9f       	mul	r19, r24
     ac2:	a0 01       	movw	r20, r0
     ac4:	39 9f       	mul	r19, r25
     ac6:	50 0d       	add	r21, r0
     ac8:	11 24       	eor	r1, r1
     aca:	01 90       	ld	r0, Z+
     acc:	f0 81       	ld	r31, Z
     ace:	e0 2d       	mov	r30, r0
     ad0:	e4 0f       	add	r30, r20
     ad2:	f5 1f       	adc	r31, r21

		/* The first byte per character is always the width of the character */
#if defined(GLCD_DEVICE_AVR8)		
		var_width = pgm_read_byte(p);
     ad4:	24 91       	lpm	r18, Z
     ad6:	2b 83       	std	Y+3, r18	; 0x03
		if (x+var_width >= GLCD_LCD_WIDTH || y+font_current.height >= GLCD_LCD_HEIGHT) {
			return;
		}
		*/
		
		for ( i = 0; i < var_width; i++ ) {
     ad8:	22 23       	and	r18, r18
     ada:	09 f4       	brne	.+2      	; 0xade <glcd_draw_char_xy+0x15e>
     adc:	46 c1       	rjmp	.+652    	; 0xd6a <glcd_draw_char_xy+0x3ea>
     ade:	86 2d       	mov	r24, r6
     ae0:	90 e0       	ldi	r25, 0x00	; 0
     ae2:	9b 87       	std	Y+11, r25	; 0x0b
     ae4:	8a 87       	std	Y+10, r24	; 0x0a
     ae6:	df 01       	movw	r26, r30
     ae8:	11 96       	adiw	r26, 0x01	; 1
     aea:	be 83       	std	Y+6, r27	; 0x06
     aec:	ad 83       	std	Y+5, r26	; 0x05
     aee:	28 2c       	mov	r2, r8
     af0:	31 2c       	mov	r3, r1
     af2:	18 86       	std	Y+8, r1	; 0x08
     af4:	e5 2d       	mov	r30, r5
     af6:	f0 e0       	ldi	r31, 0x00	; 0
     af8:	fa 83       	std	Y+2, r31	; 0x02
     afa:	e9 83       	std	Y+1, r30	; 0x01
						/* Don't write past the dimensions of the LCD, skip the entire char */
						return 0;
					}
					
					/* We should not write if the y bit exceeds font height */
					if ((j*8 + bit) >= font_current.height) {
     afc:	0f 2e       	mov	r0, r31
     afe:	fc eb       	ldi	r31, 0xBC	; 188
     b00:	8f 2e       	mov	r8, r31
     b02:	f5 e0       	ldi	r31, 0x05	; 5
     b04:	9f 2e       	mov	r9, r31
     b06:	f0 2d       	mov	r31, r0
     b08:	5f 82       	std	Y+7, r5	; 0x07
     b0a:	53 c0       	rjmp	.+166    	; 0xbb2 <glcd_draw_char_xy+0x232>
		
		for ( i = 0; i < var_width; i++ ) {
			uint8_t j;
			for ( j = 0; j < bytes_high; j++ ) {
#if defined(GLCD_DEVICE_AVR8)				
				uint8_t dat = pgm_read_byte( p + i*bytes_high + j );
     b0c:	f2 01       	movw	r30, r4
     b0e:	e4 90       	lpm	r14, Z
				uint8_t dat = *( p + i*bytes_high + j );
#endif
				uint8_t bit;
				for (bit = 0; bit < 8; bit++) {
					
					if (x+i >= GLCD_LCD_WIDTH || y+j*8+bit >= GLCD_LCD_HEIGHT) {
     b10:	f0 e8       	ldi	r31, 0x80	; 128
     b12:	2f 16       	cp	r2, r31
     b14:	31 04       	cpc	r3, r1
     b16:	0c f0       	brlt	.+2      	; 0xb1a <glcd_draw_char_xy+0x19a>
     b18:	2a c1       	rjmp	.+596    	; 0xd6e <glcd_draw_char_xy+0x3ee>
     b1a:	89 81       	ldd	r24, Y+1	; 0x01
     b1c:	9a 81       	ldd	r25, Y+2	; 0x02
     b1e:	8c 0d       	add	r24, r12
     b20:	9d 1d       	adc	r25, r13
     b22:	80 34       	cpi	r24, 0x40	; 64
     b24:	91 05       	cpc	r25, r1
     b26:	0c f0       	brlt	.+2      	; 0xb2a <glcd_draw_char_xy+0x1aa>
     b28:	24 c1       	rjmp	.+584    	; 0xd72 <glcd_draw_char_xy+0x3f2>
     b2a:	7a 2c       	mov	r7, r10
     b2c:	1f 86       	std	Y+15, r1	; 0x0f
     b2e:	1e 86       	std	Y+14, r1	; 0x0e
					if ((j*8 + bit) >= font_current.height) {
						/* Skip the bit */
						continue;
					}
					
					if (dat & (1<<bit)) {
     b30:	f1 2c       	mov	r15, r1
						/* Don't write past the dimensions of the LCD, skip the entire char */
						return 0;
					}
					
					/* We should not write if the y bit exceeds font height */
					if ((j*8 + bit) >= font_current.height) {
     b32:	d4 01       	movw	r26, r8
     b34:	13 96       	adiw	r26, 0x03	; 3
     b36:	8c 91       	ld	r24, X
     b38:	90 e0       	ldi	r25, 0x00	; 0
     b3a:	2e 85       	ldd	r18, Y+14	; 0x0e
     b3c:	3f 85       	ldd	r19, Y+15	; 0x0f
     b3e:	2c 0d       	add	r18, r12
     b40:	3d 1d       	adc	r19, r13
     b42:	28 17       	cp	r18, r24
     b44:	39 07       	cpc	r19, r25
     b46:	0c f0       	brlt	.+2      	; 0xb4a <glcd_draw_char_xy+0x1ca>
     b48:	45 c1       	rjmp	.+650    	; 0xdd4 <glcd_draw_char_xy+0x454>
						/* Skip the bit */
						continue;
					}
					
					if (dat & (1<<bit)) {
     b4a:	c7 01       	movw	r24, r14
     b4c:	0e 84       	ldd	r0, Y+14	; 0x0e
     b4e:	02 c0       	rjmp	.+4      	; 0xb54 <glcd_draw_char_xy+0x1d4>
     b50:	95 95       	asr	r25
     b52:	87 95       	ror	r24
     b54:	0a 94       	dec	r0
     b56:	e2 f7       	brpl	.-8      	; 0xb50 <glcd_draw_char_xy+0x1d0>
     b58:	80 ff       	sbrs	r24, 0
     b5a:	06 c0       	rjmp	.+12     	; 0xb68 <glcd_draw_char_xy+0x1e8>
						glcd_set_pixel(x+i,y+j*8+bit,BLACK);
     b5c:	41 e0       	ldi	r20, 0x01	; 1
     b5e:	67 2d       	mov	r22, r7
     b60:	82 2d       	mov	r24, r2
     b62:	0e 94 74 04 	call	0x8e8	; 0x8e8 <glcd_set_pixel>
     b66:	36 c1       	rjmp	.+620    	; 0xdd4 <glcd_draw_char_xy+0x454>
					} else {
						glcd_set_pixel(x+i,y+j*8+bit,WHITE);
     b68:	40 e0       	ldi	r20, 0x00	; 0
     b6a:	67 2d       	mov	r22, r7
     b6c:	82 2d       	mov	r24, r2
     b6e:	0e 94 74 04 	call	0x8e8	; 0x8e8 <glcd_set_pixel>
     b72:	30 c1       	rjmp	.+608    	; 0xdd4 <glcd_draw_char_xy+0x454>
		}
		*/
		
		for ( i = 0; i < var_width; i++ ) {
			uint8_t j;
			for ( j = 0; j < bytes_high; j++ ) {
     b74:	b3 94       	inc	r11
     b76:	bf ef       	ldi	r27, 0xFF	; 255
     b78:	4b 1a       	sub	r4, r27
     b7a:	5b 0a       	sbc	r5, r27
     b7c:	e8 e0       	ldi	r30, 0x08	; 8
     b7e:	ae 0e       	add	r10, r30
     b80:	f8 e0       	ldi	r31, 0x08	; 8
     b82:	cf 0e       	add	r12, r31
     b84:	d1 1c       	adc	r13, r1
     b86:	08 50       	subi	r16, 0x08	; 8
     b88:	11 09       	sbc	r17, r1
     b8a:	6b 10       	cpse	r6, r11
     b8c:	bf cf       	rjmp	.-130    	; 0xb0c <glcd_draw_char_xy+0x18c>
		if (x+var_width >= GLCD_LCD_WIDTH || y+font_current.height >= GLCD_LCD_HEIGHT) {
			return;
		}
		*/
		
		for ( i = 0; i < var_width; i++ ) {
     b8e:	28 85       	ldd	r18, Y+8	; 0x08
     b90:	2f 5f       	subi	r18, 0xFF	; 255
     b92:	28 87       	std	Y+8, r18	; 0x08
     b94:	8d 81       	ldd	r24, Y+5	; 0x05
     b96:	9e 81       	ldd	r25, Y+6	; 0x06
     b98:	aa 85       	ldd	r26, Y+10	; 0x0a
     b9a:	bb 85       	ldd	r27, Y+11	; 0x0b
     b9c:	8a 0f       	add	r24, r26
     b9e:	9b 1f       	adc	r25, r27
     ba0:	9e 83       	std	Y+6, r25	; 0x06
     ba2:	8d 83       	std	Y+5, r24	; 0x05
     ba4:	bf ef       	ldi	r27, 0xFF	; 255
     ba6:	2b 1a       	sub	r2, r27
     ba8:	3b 0a       	sbc	r3, r27
     baa:	eb 81       	ldd	r30, Y+3	; 0x03
     bac:	e2 17       	cp	r30, r18
     bae:	09 f4       	brne	.+2      	; 0xbb2 <glcd_draw_char_xy+0x232>
     bb0:	e2 c0       	rjmp	.+452    	; 0xd76 <glcd_draw_char_xy+0x3f6>
			uint8_t j;
			for ( j = 0; j < bytes_high; j++ ) {
     bb2:	66 20       	and	r6, r6
     bb4:	61 f3       	breq	.-40     	; 0xb8e <glcd_draw_char_xy+0x20e>
     bb6:	00 e4       	ldi	r16, 0x40	; 64
     bb8:	10 e0       	ldi	r17, 0x00	; 0
     bba:	29 81       	ldd	r18, Y+1	; 0x01
     bbc:	3a 81       	ldd	r19, Y+2	; 0x02
     bbe:	02 1b       	sub	r16, r18
     bc0:	13 0b       	sbc	r17, r19
     bc2:	af 80       	ldd	r10, Y+7	; 0x07
     bc4:	4d 80       	ldd	r4, Y+5	; 0x05
     bc6:	5e 80       	ldd	r5, Y+6	; 0x06
     bc8:	c1 2c       	mov	r12, r1
     bca:	d1 2c       	mov	r13, r1
     bcc:	71 2c       	mov	r7, r1
     bce:	b7 2c       	mov	r11, r7
     bd0:	9d cf       	rjmp	.-198    	; 0xb0c <glcd_draw_char_xy+0x18c>
				}									
			}				
		}
		return var_width;	
	
	} else if (font_current.table_type == GLCD_UTILS) {
     bd2:	82 30       	cpi	r24, 0x02	; 2
     bd4:	09 f0       	breq	.+2      	; 0xbd8 <glcd_draw_char_xy+0x258>
     bd6:	d1 c0       	rjmp	.+418    	; 0xd7a <glcd_draw_char_xy+0x3fa>
		uint8_t var_width, n;
		uint8_t bytes_high, bytes_per_char;
		const char *p;
		uint8_t j;
		
		bytes_high = font_current.height / 8 + 1;
     bd8:	ec eb       	ldi	r30, 0xBC	; 188
     bda:	f5 e0       	ldi	r31, 0x05	; 5
     bdc:	93 80       	ldd	r9, Z+3	; 0x03
     bde:	96 94       	lsr	r9
     be0:	96 94       	lsr	r9
     be2:	96 94       	lsr	r9
     be4:	93 94       	inc	r9
		bytes_per_char = font_current.width * bytes_high;
     be6:	52 81       	ldd	r21, Z+2	; 0x02
		
		/* Point to chars first byte */
		p = font_current.font_table + (c - font_current.start_char) * bytes_per_char;
     be8:	84 2f       	mov	r24, r20
     bea:	90 e0       	ldi	r25, 0x00	; 0
     bec:	82 1b       	sub	r24, r18
     bee:	91 09       	sbc	r25, r1
     bf0:	95 9e       	mul	r9, r21
     bf2:	40 2d       	mov	r20, r0
     bf4:	11 24       	eor	r1, r1
     bf6:	48 9f       	mul	r20, r24
     bf8:	90 01       	movw	r18, r0
     bfa:	49 9f       	mul	r20, r25
     bfc:	30 0d       	add	r19, r0
     bfe:	11 24       	eor	r1, r1
     c00:	80 81       	ld	r24, Z
     c02:	91 81       	ldd	r25, Z+1	; 0x01
     c04:	82 0f       	add	r24, r18
     c06:	93 1f       	adc	r25, r19
     c08:	af ef       	ldi	r26, 0xFF	; 255
     c0a:	a5 0f       	add	r26, r21

		/* Determine the width of the character */
		var_width = font_current.width;
		
		n = 0; /* How many columns back from the end */
     c0c:	40 e0       	ldi	r20, 0x00	; 0
     c0e:	65 2f       	mov	r22, r21
     c10:	70 e0       	ldi	r23, 0x00	; 0
     c12:	61 50       	subi	r22, 0x01	; 1
     c14:	71 09       	sbc	r23, r1
     c16:	9e 83       	std	Y+6, r25	; 0x06
     c18:	8d 83       	std	Y+5, r24	; 0x05
     c1a:	45 2e       	mov	r4, r21
     c1c:	44 1a       	sub	r4, r20
		
		while (1) {
			uint8_t max_byte = 0;
			uint8_t row = 0;
			
			for (row = 0; row < bytes_high; row++) {
     c1e:	99 20       	and	r9, r9
     c20:	79 f0       	breq	.+30     	; 0xc40 <glcd_draw_char_xy+0x2c0>
     c22:	36 2f       	mov	r19, r22
     c24:	34 1b       	sub	r19, r20
     c26:	90 e0       	ldi	r25, 0x00	; 0
     c28:	80 e0       	ldi	r24, 0x00	; 0
				uint8_t offset;
				offset = (font_current.width - 1 - n) * row;
				max_byte = *(p + offset);
     c2a:	ed 81       	ldd	r30, Y+5	; 0x05
     c2c:	fe 81       	ldd	r31, Y+6	; 0x06
     c2e:	e9 0f       	add	r30, r25
     c30:	f1 1d       	adc	r31, r1
     c32:	20 81       	ld	r18, Z
		
		while (1) {
			uint8_t max_byte = 0;
			uint8_t row = 0;
			
			for (row = 0; row < bytes_high; row++) {
     c34:	8f 5f       	subi	r24, 0xFF	; 255
     c36:	93 0f       	add	r25, r19
     c38:	98 12       	cpse	r9, r24
     c3a:	f7 cf       	rjmp	.-18     	; 0xc2a <glcd_draw_char_xy+0x2aa>
				uint8_t offset;
				offset = (font_current.width - 1 - n) * row;
				max_byte = *(p + offset);
			}
			if (max_byte == 0) {
     c3c:	21 11       	cpse	r18, r1
     c3e:	09 c0       	rjmp	.+18     	; 0xc52 <glcd_draw_char_xy+0x2d2>
				/* column is empty for all rows, go left and test again */
				/* reduce variable width by 1 */
				var_width--;
				if (var_width == 0) {
     c40:	a4 17       	cp	r26, r20
     c42:	11 f0       	breq	.+4      	; 0xc48 <glcd_draw_char_xy+0x2c8>
					break;
				}
			} else {
				break; /* Part of a character was found */
			}
			n++;
     c44:	4f 5f       	subi	r20, 0xFF	; 255
		}
     c46:	e9 cf       	rjmp	.-46     	; 0xc1a <glcd_draw_char_xy+0x29a>
		/* Uncomment line below, to force fixed width, for debugging only */
		//var_width = font_current.width; // bypass auto width detection, treat as fixed width
				
		/* For glcd-utils format, we write one complete row at a time */
		 /* loop as rows, 1st row, j=0 */
		for ( j = 0; j < bytes_high; j++ ) {
     c48:	99 20       	and	r9, r9
     c4a:	09 f4       	brne	.+2      	; 0xc4e <glcd_draw_char_xy+0x2ce>
     c4c:	98 c0       	rjmp	.+304    	; 0xd7e <glcd_draw_char_xy+0x3fe>
				max_byte = *(p + offset);
			}
			if (max_byte == 0) {
				/* column is empty for all rows, go left and test again */
				/* reduce variable width by 1 */
				var_width--;
     c4e:	41 2c       	mov	r4, r1
     c50:	00 c0       	rjmp	.+0      	; 0xc52 <glcd_draw_char_xy+0x2d2>
     c52:	25 2d       	mov	r18, r5
     c54:	30 e0       	ldi	r19, 0x00	; 0
     c56:	39 87       	std	Y+9, r19	; 0x09
     c58:	28 87       	std	Y+8, r18	; 0x08
     c5a:	80 e4       	ldi	r24, 0x40	; 64
     c5c:	90 e0       	ldi	r25, 0x00	; 0
     c5e:	1c 01       	movw	r2, r24
     c60:	22 1a       	sub	r2, r18
     c62:	33 0a       	sbc	r3, r19
				dat = *( p + j*font_current.width + i );
#endif
				
				for (bit = 0; bit < 8; bit++) {
					
					if ((x+i) >= GLCD_LCD_WIDTH || (y+j*8+bit) >= GLCD_LCD_HEIGHT) {
     c64:	5f 82       	std	Y+7, r5	; 0x07
     c66:	c1 2c       	mov	r12, r1
     c68:	d1 2c       	mov	r13, r1
     c6a:	1b 86       	std	Y+11, r1	; 0x0b
     c6c:	1a 86       	std	Y+10, r1	; 0x0a
				/* Loop one column at a time */
				
				uint8_t dat, bit;
				
#if defined(GLCD_DEVICE_AVR8)
				dat = pgm_read_byte( p + j*font_current.width + i );
     c6e:	0f 2e       	mov	r0, r31
     c70:	fc eb       	ldi	r31, 0xBC	; 188
     c72:	af 2e       	mov	r10, r31
     c74:	f5 e0       	ldi	r31, 0x05	; 5
     c76:	bf 2e       	mov	r11, r31
     c78:	f0 2d       	mov	r31, r0
				dat = *( p + j*font_current.width + i );
#endif
				
				for (bit = 0; bit < 8; bit++) {
					
					if ((x+i) >= GLCD_LCD_WIDTH || (y+j*8+bit) >= GLCD_LCD_HEIGHT) {
     c7a:	88 2d       	mov	r24, r8
     c7c:	90 e0       	ldi	r25, 0x00	; 0
     c7e:	9c 83       	std	Y+4, r25	; 0x04
     c80:	8b 83       	std	Y+3, r24	; 0x03
     c82:	49 82       	std	Y+1, r4	; 0x01
     c84:	9d 86       	std	Y+13, r9	; 0x0d
     c86:	8c 86       	std	Y+12, r8	; 0x0c
     c88:	5d c0       	rjmp	.+186    	; 0xd44 <glcd_draw_char_xy+0x3c4>
				/* Loop one column at a time */
				
				uint8_t dat, bit;
				
#if defined(GLCD_DEVICE_AVR8)
				dat = pgm_read_byte( p + j*font_current.width + i );
     c8a:	f5 01       	movw	r30, r10
     c8c:	82 81       	ldd	r24, Z+2	; 0x02
     c8e:	84 9d       	mul	r24, r4
     c90:	f0 01       	movw	r30, r0
     c92:	85 9d       	mul	r24, r5
     c94:	f0 0d       	add	r31, r0
     c96:	11 24       	eor	r1, r1
     c98:	e6 0d       	add	r30, r6
     c9a:	f7 1d       	adc	r31, r7
     c9c:	2d 81       	ldd	r18, Y+5	; 0x05
     c9e:	3e 81       	ldd	r19, Y+6	; 0x06
     ca0:	e2 0f       	add	r30, r18
     ca2:	f3 1f       	adc	r31, r19
     ca4:	e4 91       	lpm	r30, Z
				dat = *( p + j*font_current.width + i );
#endif
				
				for (bit = 0; bit < 8; bit++) {
					
					if ((x+i) >= GLCD_LCD_WIDTH || (y+j*8+bit) >= GLCD_LCD_HEIGHT) {
     ca6:	8b 81       	ldd	r24, Y+3	; 0x03
     ca8:	9c 81       	ldd	r25, Y+4	; 0x04
     caa:	86 0d       	add	r24, r6
     cac:	97 1d       	adc	r25, r7
     cae:	80 38       	cpi	r24, 0x80	; 128
     cb0:	91 05       	cpc	r25, r1
     cb2:	0c f0       	brlt	.+2      	; 0xcb6 <glcd_draw_char_xy+0x336>
     cb4:	66 c0       	rjmp	.+204    	; 0xd82 <glcd_draw_char_xy+0x402>
     cb6:	30 e4       	ldi	r19, 0x40	; 64
     cb8:	83 16       	cp	r8, r19
     cba:	91 04       	cpc	r9, r1
     cbc:	0c f0       	brlt	.+2      	; 0xcc0 <glcd_draw_char_xy+0x340>
     cbe:	63 c0       	rjmp	.+198    	; 0xd86 <glcd_draw_char_xy+0x406>
     cc0:	0f 81       	ldd	r16, Y+7	; 0x07
     cc2:	e1 2c       	mov	r14, r1
     cc4:	f1 2c       	mov	r15, r1
					if ((j*8 + bit) >= font_current.height) {
						/* Skip the bit */
						continue;
					}
					
					if (dat & (1<<bit)) {
     cc6:	8e 2f       	mov	r24, r30
     cc8:	90 e0       	ldi	r25, 0x00	; 0
     cca:	9f 87       	std	Y+15, r25	; 0x0f
     ccc:	8e 87       	std	Y+14, r24	; 0x0e
						/* Don't write past the dimensions of the LCD, skip the entire char */
						return 0;
					}
					
					/* We should not write if the y bit exceeds font height */
					if ((j*8 + bit) >= font_current.height) {
     cce:	d5 01       	movw	r26, r10
     cd0:	13 96       	adiw	r26, 0x03	; 3
     cd2:	8c 91       	ld	r24, X
     cd4:	90 e0       	ldi	r25, 0x00	; 0
     cd6:	97 01       	movw	r18, r14
     cd8:	2c 0d       	add	r18, r12
     cda:	3d 1d       	adc	r19, r13
     cdc:	28 17       	cp	r18, r24
     cde:	39 07       	cpc	r19, r25
     ce0:	0c f0       	brlt	.+2      	; 0xce4 <glcd_draw_char_xy+0x364>
     ce2:	86 c0       	rjmp	.+268    	; 0xdf0 <glcd_draw_char_xy+0x470>
						/* Skip the bit */
						continue;
					}
					
					if (dat & (1<<bit)) {
     ce4:	8e 85       	ldd	r24, Y+14	; 0x0e
     ce6:	9f 85       	ldd	r25, Y+15	; 0x0f
     ce8:	0e 2c       	mov	r0, r14
     cea:	02 c0       	rjmp	.+4      	; 0xcf0 <glcd_draw_char_xy+0x370>
     cec:	95 95       	asr	r25
     cee:	87 95       	ror	r24
     cf0:	0a 94       	dec	r0
     cf2:	e2 f7       	brpl	.-8      	; 0xcec <glcd_draw_char_xy+0x36c>
     cf4:	80 ff       	sbrs	r24, 0
     cf6:	06 c0       	rjmp	.+12     	; 0xd04 <glcd_draw_char_xy+0x384>
						glcd_set_pixel(x+i,y+j*8+bit,BLACK);
     cf8:	41 e0       	ldi	r20, 0x01	; 1
     cfa:	60 2f       	mov	r22, r16
     cfc:	81 2f       	mov	r24, r17
     cfe:	0e 94 74 04 	call	0x8e8	; 0x8e8 <glcd_set_pixel>
     d02:	76 c0       	rjmp	.+236    	; 0xdf0 <glcd_draw_char_xy+0x470>
					} else {
						glcd_set_pixel(x+i,y+j*8+bit,WHITE);
     d04:	40 e0       	ldi	r20, 0x00	; 0
     d06:	60 2f       	mov	r22, r16
     d08:	81 2f       	mov	r24, r17
     d0a:	0e 94 74 04 	call	0x8e8	; 0x8e8 <glcd_set_pixel>
     d0e:	70 c0       	rjmp	.+224    	; 0xdf0 <glcd_draw_char_xy+0x470>
     d10:	bf ef       	ldi	r27, 0xFF	; 255
     d12:	6b 1a       	sub	r6, r27
     d14:	7b 0a       	sbc	r7, r27
     d16:	1f 5f       	subi	r17, 0xFF	; 255
		 /* loop as rows, 1st row, j=0 */
		for ( j = 0; j < bytes_high; j++ ) {
			/* Loop one row at a time */
		
			uint8_t i;
			for ( i = 0; i < var_width; i++ ) {
     d18:	e9 81       	ldd	r30, Y+1	; 0x01
     d1a:	6e 16       	cp	r6, r30
     d1c:	08 f4       	brcc	.+2      	; 0xd20 <glcd_draw_char_xy+0x3a0>
     d1e:	b5 cf       	rjmp	.-150    	; 0xc8a <glcd_draw_char_xy+0x30a>
     d20:	2a 85       	ldd	r18, Y+10	; 0x0a
     d22:	3b 85       	ldd	r19, Y+11	; 0x0b
     d24:	2f 5f       	subi	r18, 0xFF	; 255
     d26:	3f 4f       	sbci	r19, 0xFF	; 255
     d28:	3b 87       	std	Y+11, r19	; 0x0b
     d2a:	2a 87       	std	Y+10, r18	; 0x0a
     d2c:	3f 81       	ldd	r19, Y+7	; 0x07
     d2e:	38 5f       	subi	r19, 0xF8	; 248
     d30:	3f 83       	std	Y+7, r19	; 0x07
     d32:	88 e0       	ldi	r24, 0x08	; 8
     d34:	c8 0e       	add	r12, r24
     d36:	d1 1c       	adc	r13, r1
     d38:	98 e0       	ldi	r25, 0x08	; 8
     d3a:	29 1a       	sub	r2, r25
     d3c:	31 08       	sbc	r3, r1
		/* Uncomment line below, to force fixed width, for debugging only */
		//var_width = font_current.width; // bypass auto width detection, treat as fixed width
				
		/* For glcd-utils format, we write one complete row at a time */
		 /* loop as rows, 1st row, j=0 */
		for ( j = 0; j < bytes_high; j++ ) {
     d3e:	ad 85       	ldd	r26, Y+13	; 0x0d
     d40:	2a 17       	cp	r18, r26
     d42:	18 f5       	brcc	.+70     	; 0xd8a <glcd_draw_char_xy+0x40a>
			/* Loop one row at a time */
		
			uint8_t i;
			for ( i = 0; i < var_width; i++ ) {
     d44:	b9 81       	ldd	r27, Y+1	; 0x01
     d46:	bb 23       	and	r27, r27
     d48:	59 f3       	breq	.-42     	; 0xd20 <glcd_draw_char_xy+0x3a0>
				/* Loop one column at a time */
				
				uint8_t dat, bit;
				
#if defined(GLCD_DEVICE_AVR8)
				dat = pgm_read_byte( p + j*font_current.width + i );
     d4a:	4a 84       	ldd	r4, Y+10	; 0x0a
     d4c:	5b 84       	ldd	r5, Y+11	; 0x0b
     d4e:	ec 85       	ldd	r30, Y+12	; 0x0c
     d50:	ee 87       	std	Y+14, r30	; 0x0e
     d52:	61 2c       	mov	r6, r1
     d54:	71 2c       	mov	r7, r1
				dat = *( p + j*font_current.width + i );
#endif
				
				for (bit = 0; bit < 8; bit++) {
					
					if ((x+i) >= GLCD_LCD_WIDTH || (y+j*8+bit) >= GLCD_LCD_HEIGHT) {
     d56:	88 84       	ldd	r8, Y+8	; 0x08
     d58:	99 84       	ldd	r9, Y+9	; 0x09
     d5a:	8c 0c       	add	r8, r12
     d5c:	9d 1c       	adc	r9, r13
     d5e:	1e 2f       	mov	r17, r30
     d60:	94 cf       	rjmp	.-216    	; 0xc8a <glcd_draw_char_xy+0x30a>
			uint8_t j;
			for (j = 0; j < 8; j++) {
				/* Set pixel color for each bit of the column (8-bits) */
				if (x+i >= GLCD_LCD_WIDTH || y+j >= GLCD_LCD_HEIGHT) {
					/* Don't try and write past the dimensions of the LCD */
					return 0;
     d62:	80 e0       	ldi	r24, 0x00	; 0
     d64:	4a c0       	rjmp	.+148    	; 0xdfa <glcd_draw_char_xy+0x47a>
     d66:	80 e0       	ldi	r24, 0x00	; 0
     d68:	48 c0       	rjmp	.+144    	; 0xdfa <glcd_draw_char_xy+0x47a>
						glcd_set_pixel(x+i,y+j*8+bit,WHITE);
					}
				}									
			}				
		}
		return var_width;	
     d6a:	80 e0       	ldi	r24, 0x00	; 0
     d6c:	46 c0       	rjmp	.+140    	; 0xdfa <glcd_draw_char_xy+0x47a>
				uint8_t bit;
				for (bit = 0; bit < 8; bit++) {
					
					if (x+i >= GLCD_LCD_WIDTH || y+j*8+bit >= GLCD_LCD_HEIGHT) {
						/* Don't write past the dimensions of the LCD, skip the entire char */
						return 0;
     d6e:	80 e0       	ldi	r24, 0x00	; 0
     d70:	44 c0       	rjmp	.+136    	; 0xdfa <glcd_draw_char_xy+0x47a>
     d72:	80 e0       	ldi	r24, 0x00	; 0
     d74:	42 c0       	rjmp	.+132    	; 0xdfa <glcd_draw_char_xy+0x47a>
						glcd_set_pixel(x+i,y+j*8+bit,WHITE);
					}
				}									
			}				
		}
		return var_width;	
     d76:	8b 81       	ldd	r24, Y+3	; 0x03
     d78:	40 c0       	rjmp	.+128    	; 0xdfa <glcd_draw_char_xy+0x47a>
		
		return var_width; /* Number of columns written to display */
		
	} else {
		/* Don't recognise the font table */
		return 0;
     d7a:	80 e0       	ldi	r24, 0x00	; 0
     d7c:	3e c0       	rjmp	.+124    	; 0xdfa <glcd_draw_char_xy+0x47a>
				max_byte = *(p + offset);
			}
			if (max_byte == 0) {
				/* column is empty for all rows, go left and test again */
				/* reduce variable width by 1 */
				var_width--;
     d7e:	80 e0       	ldi	r24, 0x00	; 0
     d80:	3c c0       	rjmp	.+120    	; 0xdfa <glcd_draw_char_xy+0x47a>
				
				for (bit = 0; bit < 8; bit++) {
					
					if ((x+i) >= GLCD_LCD_WIDTH || (y+j*8+bit) >= GLCD_LCD_HEIGHT) {
						/* Don't write past the dimensions of the LCD, skip the entire char */
						return 0;
     d82:	80 e0       	ldi	r24, 0x00	; 0
     d84:	3a c0       	rjmp	.+116    	; 0xdfa <glcd_draw_char_xy+0x47a>
     d86:	80 e0       	ldi	r24, 0x00	; 0
     d88:	38 c0       	rjmp	.+112    	; 0xdfa <glcd_draw_char_xy+0x47a>
     d8a:	49 80       	ldd	r4, Y+1	; 0x01
     d8c:	84 2d       	mov	r24, r4
     d8e:	35 c0       	rjmp	.+106    	; 0xdfa <glcd_draw_char_xy+0x47a>
			uint8_t j;
			for (j = 0; j < 8; j++) {
				/* Set pixel color for each bit of the column (8-bits) */
				if (x+i >= GLCD_LCD_WIDTH || y+j >= GLCD_LCD_HEIGHT) {
					/* Don't try and write past the dimensions of the LCD */
					return 0;
     d90:	80 e0       	ldi	r24, 0x00	; 0
     d92:	33 c0       	rjmp	.+102    	; 0xdfa <glcd_draw_char_xy+0x47a>
				uint8_t bit;
				for (bit = 0; bit < 8; bit++) {
					
					if (x+i >= GLCD_LCD_WIDTH || y+j*8+bit >= GLCD_LCD_HEIGHT) {
						/* Don't write past the dimensions of the LCD, skip the entire char */
						return 0;
     d94:	80 e0       	ldi	r24, 0x00	; 0
     d96:	31 c0       	rjmp	.+98     	; 0xdfa <glcd_draw_char_xy+0x47a>
				
				for (bit = 0; bit < 8; bit++) {
					
					if ((x+i) >= GLCD_LCD_WIDTH || (y+j*8+bit) >= GLCD_LCD_HEIGHT) {
						/* Don't write past the dimensions of the LCD, skip the entire char */
						return 0;
     d98:	80 e0       	ldi	r24, 0x00	; 0
     d9a:	2f c0       	rjmp	.+94     	; 0xdfa <glcd_draw_char_xy+0x47a>
     d9c:	29 81       	ldd	r18, Y+1	; 0x01
     d9e:	3a 81       	ldd	r19, Y+2	; 0x02
     da0:	2f 5f       	subi	r18, 0xFF	; 255
     da2:	3f 4f       	sbci	r19, 0xFF	; 255
     da4:	3a 83       	std	Y+2, r19	; 0x02
     da6:	29 83       	std	Y+1, r18	; 0x01
     da8:	73 94       	inc	r7
			uint8_t dat = *( font_current.font_table + ((c - font_current.start_char) * (font_current.width)) + i );
#endif
			uint8_t j;
			for (j = 0; j < 8; j++) {
				/* Set pixel color for each bit of the column (8-bits) */
				if (x+i >= GLCD_LCD_WIDTH || y+j >= GLCD_LCD_HEIGHT) {
     daa:	20 17       	cp	r18, r16
     dac:	31 07       	cpc	r19, r17
     dae:	09 f0       	breq	.+2      	; 0xdb2 <glcd_draw_char_xy+0x432>
     db0:	4d ce       	rjmp	.-870    	; 0xa4c <glcd_draw_char_xy+0xcc>
     db2:	ee cf       	rjmp	.-36     	; 0xd90 <glcd_draw_char_xy+0x410>
			uint8_t dat = pgm_read_byte( font_current.font_table + ((c - font_current.start_char) * (font_current.width)) + i );
#else
			uint8_t dat = *( font_current.font_table + ((c - font_current.start_char) * (font_current.width)) + i );
#endif
			uint8_t j;
			for (j = 0; j < 8; j++) {
     db4:	89 81       	ldd	r24, Y+1	; 0x01
     db6:	9a 81       	ldd	r25, Y+2	; 0x02
     db8:	07 97       	sbiw	r24, 0x07	; 7
     dba:	81 f7       	brne	.-32     	; 0xd9c <glcd_draw_char_xy+0x41c>
     dbc:	5c ce       	rjmp	.-840    	; 0xa76 <glcd_draw_char_xy+0xf6>
     dbe:	ae 85       	ldd	r26, Y+14	; 0x0e
     dc0:	bf 85       	ldd	r27, Y+15	; 0x0f
     dc2:	11 96       	adiw	r26, 0x01	; 1
     dc4:	bf 87       	std	Y+15, r27	; 0x0f
     dc6:	ae 87       	std	Y+14, r26	; 0x0e
     dc8:	73 94       	inc	r7
				uint8_t dat = *( p + i*bytes_high + j );
#endif
				uint8_t bit;
				for (bit = 0; bit < 8; bit++) {
					
					if (x+i >= GLCD_LCD_WIDTH || y+j*8+bit >= GLCD_LCD_HEIGHT) {
     dca:	a0 17       	cp	r26, r16
     dcc:	b1 07       	cpc	r27, r17
     dce:	09 f0       	breq	.+2      	; 0xdd2 <glcd_draw_char_xy+0x452>
     dd0:	b0 ce       	rjmp	.-672    	; 0xb32 <glcd_draw_char_xy+0x1b2>
     dd2:	e0 cf       	rjmp	.-64     	; 0xd94 <glcd_draw_char_xy+0x414>
				uint8_t dat = pgm_read_byte( p + i*bytes_high + j );
#else
				uint8_t dat = *( p + i*bytes_high + j );
#endif
				uint8_t bit;
				for (bit = 0; bit < 8; bit++) {
     dd4:	ee 85       	ldd	r30, Y+14	; 0x0e
     dd6:	ff 85       	ldd	r31, Y+15	; 0x0f
     dd8:	37 97       	sbiw	r30, 0x07	; 7
     dda:	89 f7       	brne	.-30     	; 0xdbe <glcd_draw_char_xy+0x43e>
     ddc:	cb ce       	rjmp	.-618    	; 0xb74 <glcd_draw_char_xy+0x1f4>
     dde:	ff ef       	ldi	r31, 0xFF	; 255
     de0:	ef 1a       	sub	r14, r31
     de2:	ff 0a       	sbc	r15, r31
     de4:	0f 5f       	subi	r16, 0xFF	; 255
				dat = *( p + j*font_current.width + i );
#endif
				
				for (bit = 0; bit < 8; bit++) {
					
					if ((x+i) >= GLCD_LCD_WIDTH || (y+j*8+bit) >= GLCD_LCD_HEIGHT) {
     de6:	e2 14       	cp	r14, r2
     de8:	f3 04       	cpc	r15, r3
     dea:	09 f0       	breq	.+2      	; 0xdee <glcd_draw_char_xy+0x46e>
     dec:	70 cf       	rjmp	.-288    	; 0xcce <glcd_draw_char_xy+0x34e>
     dee:	d4 cf       	rjmp	.-88     	; 0xd98 <glcd_draw_char_xy+0x418>
				dat = pgm_read_byte( p + j*font_current.width + i );
#else
				dat = *( p + j*font_current.width + i );
#endif
				
				for (bit = 0; bit < 8; bit++) {
     df0:	27 e0       	ldi	r18, 0x07	; 7
     df2:	e2 16       	cp	r14, r18
     df4:	f1 04       	cpc	r15, r1
     df6:	99 f7       	brne	.-26     	; 0xdde <glcd_draw_char_xy+0x45e>
     df8:	8b cf       	rjmp	.-234    	; 0xd10 <glcd_draw_char_xy+0x390>
		/* Don't recognise the font table */
		return 0;
		
	}

}
     dfa:	2f 96       	adiw	r28, 0x0f	; 15
     dfc:	0f b6       	in	r0, 0x3f	; 63
     dfe:	f8 94       	cli
     e00:	de bf       	out	0x3e, r29	; 62
     e02:	0f be       	out	0x3f, r0	; 63
     e04:	cd bf       	out	0x3d, r28	; 61
     e06:	df 91       	pop	r29
     e08:	cf 91       	pop	r28
     e0a:	1f 91       	pop	r17
     e0c:	0f 91       	pop	r16
     e0e:	ff 90       	pop	r15
     e10:	ef 90       	pop	r14
     e12:	df 90       	pop	r13
     e14:	cf 90       	pop	r12
     e16:	bf 90       	pop	r11
     e18:	af 90       	pop	r10
     e1a:	9f 90       	pop	r9
     e1c:	8f 90       	pop	r8
     e1e:	7f 90       	pop	r7
     e20:	6f 90       	pop	r6
     e22:	5f 90       	pop	r5
     e24:	4f 90       	pop	r4
     e26:	3f 90       	pop	r3
     e28:	2f 90       	pop	r2
     e2a:	08 95       	ret

00000e2c <glcd_draw_string_xy>:

void glcd_draw_string_xy(uint8_t x, uint8_t y, char *c)
{
     e2c:	0f 93       	push	r16
     e2e:	1f 93       	push	r17
     e30:	cf 93       	push	r28
     e32:	df 93       	push	r29
     e34:	c8 2f       	mov	r28, r24
     e36:	d6 2f       	mov	r29, r22
     e38:	fa 01       	movw	r30, r20
	uint8_t width;

	if (y > (GLCD_LCD_HEIGHT - font_current.height - 1)) {
     e3a:	26 2f       	mov	r18, r22
     e3c:	30 e0       	ldi	r19, 0x00	; 0
     e3e:	40 91 bf 05 	lds	r20, 0x05BF	; 0x8005bf <font_current+0x3>
     e42:	8f e3       	ldi	r24, 0x3F	; 63
     e44:	90 e0       	ldi	r25, 0x00	; 0
     e46:	84 1b       	sub	r24, r20
     e48:	91 09       	sbc	r25, r1
     e4a:	82 17       	cp	r24, r18
     e4c:	93 07       	cpc	r25, r19
     e4e:	94 f0       	brlt	.+36     	; 0xe74 <glcd_draw_string_xy+0x48>
		/* Character won't fit */
		return;
	}

	while (*c) {
     e50:	40 81       	ld	r20, Z
     e52:	44 23       	and	r20, r20
     e54:	79 f0       	breq	.+30     	; 0xe74 <glcd_draw_string_xy+0x48>
     e56:	8f 01       	movw	r16, r30
     e58:	0f 5f       	subi	r16, 0xFF	; 255
     e5a:	1f 4f       	sbci	r17, 0xFF	; 255
		width = glcd_draw_char_xy(x,y,*c);
     e5c:	6d 2f       	mov	r22, r29
     e5e:	8c 2f       	mov	r24, r28
     e60:	0e 94 c0 04 	call	0x980	; 0x980 <glcd_draw_char_xy>
		x += (width + 1);
     e64:	8c 0f       	add	r24, r28
     e66:	c1 e0       	ldi	r28, 0x01	; 1
     e68:	c8 0f       	add	r28, r24
	if (y > (GLCD_LCD_HEIGHT - font_current.height - 1)) {
		/* Character won't fit */
		return;
	}

	while (*c) {
     e6a:	f8 01       	movw	r30, r16
     e6c:	41 91       	ld	r20, Z+
     e6e:	8f 01       	movw	r16, r30
     e70:	41 11       	cpse	r20, r1
     e72:	f4 cf       	rjmp	.-24     	; 0xe5c <glcd_draw_string_xy+0x30>
		width = glcd_draw_char_xy(x,y,*c);
		x += (width + 1);
		c++;
	}		
}
     e74:	df 91       	pop	r29
     e76:	cf 91       	pop	r28
     e78:	1f 91       	pop	r17
     e7a:	0f 91       	pop	r16
     e7c:	08 95       	ret

00000e7e <glcd_tiny_set_font>:
#if defined(GLCD_DEVICE_AVR8)
void glcd_tiny_set_font(PGM_P font_table, uint8_t width, uint8_t height, char start_char, char end_char)
#else
void glcd_tiny_set_font(const char * font_table, uint8_t width, uint8_t height, char start_char, char end_char)
#endif
{
     e7e:	0f 93       	push	r16
	font_current.font_table = font_table;
     e80:	ec eb       	ldi	r30, 0xBC	; 188
     e82:	f5 e0       	ldi	r31, 0x05	; 5
     e84:	91 83       	std	Z+1, r25	; 0x01
     e86:	80 83       	st	Z, r24
	font_current.width = width;
     e88:	62 83       	std	Z+2, r22	; 0x02
	font_current.height = height;
     e8a:	43 83       	std	Z+3, r20	; 0x03
	font_current.start_char = start_char;
     e8c:	24 83       	std	Z+4, r18	; 0x04
	font_current.end_char = end_char;
     e8e:	05 83       	std	Z+5, r16	; 0x05
	font_current.table_type = STANG;
     e90:	16 82       	std	Z+6, r1	; 0x06
}
     e92:	0f 91       	pop	r16
     e94:	08 95       	ret

00000e96 <glcd_tiny_draw_char>:

void glcd_tiny_draw_char(uint8_t x, uint8_t line, char c)
{
     e96:	0f 93       	push	r16
     e98:	1f 93       	push	r17
     e9a:	cf 93       	push	r28
     e9c:	df 93       	push	r29
     e9e:	18 2f       	mov	r17, r24
     ea0:	36 2f       	mov	r19, r22
     ea2:	04 2f       	mov	r16, r20
	uint8_t i;
	
	/* Only works for fonts < 8 bits in height */
	if (font_current.height >= 8) {
     ea4:	e0 91 bf 05 	lds	r30, 0x05BF	; 0x8005bf <font_current+0x3>
     ea8:	e8 30       	cpi	r30, 0x08	; 8
     eaa:	08 f0       	brcs	.+2      	; 0xeae <glcd_tiny_draw_char+0x18>
     eac:	5b c0       	rjmp	.+182    	; 0xf64 <glcd_tiny_draw_char+0xce>
		return;
	}
	if (c < font_current.start_char || c > font_current.end_char) {
     eae:	80 91 c0 05 	lds	r24, 0x05C0	; 0x8005c0 <font_current+0x4>
     eb2:	48 17       	cp	r20, r24
     eb4:	30 f0       	brcs	.+12     	; 0xec2 <glcd_tiny_draw_char+0x2c>
     eb6:	80 91 c1 05 	lds	r24, 0x05C1	; 0x8005c1 <font_current+0x5>
     eba:	84 17       	cp	r24, r20
     ebc:	18 f4       	brcc	.+6      	; 0xec4 <glcd_tiny_draw_char+0x2e>
		c = '.';
     ebe:	0e e2       	ldi	r16, 0x2E	; 46
     ec0:	01 c0       	rjmp	.+2      	; 0xec4 <glcd_tiny_draw_char+0x2e>
     ec2:	0e e2       	ldi	r16, 0x2E	; 46
	}
	if ( line >= GLCD_LCD_HEIGHT / (font_current.height + 1) ) {
     ec4:	c3 2f       	mov	r28, r19
     ec6:	d0 e0       	ldi	r29, 0x00	; 0
     ec8:	f0 e0       	ldi	r31, 0x00	; 0
     eca:	31 96       	adiw	r30, 0x01	; 1
     ecc:	80 e4       	ldi	r24, 0x40	; 64
     ece:	90 e0       	ldi	r25, 0x00	; 0
     ed0:	bf 01       	movw	r22, r30
     ed2:	0e 94 06 0f 	call	0x1e0c	; 0x1e0c <__divmodhi4>
     ed6:	c6 17       	cp	r28, r22
     ed8:	d7 07       	cpc	r29, r23
     eda:	0c f0       	brlt	.+2      	; 0xede <glcd_tiny_draw_char+0x48>
     edc:	43 c0       	rjmp	.+134    	; 0xf64 <glcd_tiny_draw_char+0xce>
		return;
	}		
	if ( (x+font_current.width) >= GLCD_LCD_WIDTH ) {
     ede:	40 91 be 05 	lds	r20, 0x05BE	; 0x8005be <font_current+0x2>
     ee2:	84 2f       	mov	r24, r20
     ee4:	90 e0       	ldi	r25, 0x00	; 0
     ee6:	81 0f       	add	r24, r17
     ee8:	91 1d       	adc	r25, r1
     eea:	80 38       	cpi	r24, 0x80	; 128
     eec:	91 05       	cpc	r25, r1
     eee:	d4 f5       	brge	.+116    	; 0xf64 <glcd_tiny_draw_char+0xce>
		return;
	}		
	
	glcd_update_bbox(x, line*(font_current.height + 1), x+font_current.width, line*(font_current.height + 1) + (font_current.height + 1));
     ef0:	2e 2f       	mov	r18, r30
     ef2:	3e 9f       	mul	r19, r30
     ef4:	20 0d       	add	r18, r0
     ef6:	11 24       	eor	r1, r1
     ef8:	41 0f       	add	r20, r17
     efa:	3e 9f       	mul	r19, r30
     efc:	60 2d       	mov	r22, r0
     efe:	11 24       	eor	r1, r1
     f00:	81 2f       	mov	r24, r17
     f02:	0e 94 07 04 	call	0x80e	; 0x80e <glcd_update_bbox>
	
	for ( i = 0; i < font_current.width; i++ ) {
     f06:	30 91 be 05 	lds	r19, 0x05BE	; 0x8005be <font_current+0x2>
     f0a:	33 23       	and	r19, r19
     f0c:	59 f1       	breq	.+86     	; 0xf64 <glcd_tiny_draw_char+0xce>
#if defined(GLCD_DEVICE_AVR8)		
		glcd_buffer_selected[x + (line * GLCD_LCD_WIDTH)] = pgm_read_byte( font_current.font_table + ((c - font_current.start_char) * (font_current.width)) + i );
     f0e:	ce 01       	movw	r24, r28
     f10:	96 95       	lsr	r25
     f12:	98 2f       	mov	r25, r24
     f14:	88 27       	eor	r24, r24
     f16:	97 95       	ror	r25
     f18:	87 95       	ror	r24
     f1a:	20 e0       	ldi	r18, 0x00	; 0
     f1c:	cc eb       	ldi	r28, 0xBC	; 188
     f1e:	d5 e0       	ldi	r29, 0x05	; 5
     f20:	40 2f       	mov	r20, r16
     f22:	50 e0       	ldi	r21, 0x00	; 0
     f24:	6c 81       	ldd	r22, Y+4	; 0x04
     f26:	fa 01       	movw	r30, r20
     f28:	e6 1b       	sub	r30, r22
     f2a:	f1 09       	sbc	r31, r1
     f2c:	bf 01       	movw	r22, r30
     f2e:	36 9f       	mul	r19, r22
     f30:	f0 01       	movw	r30, r0
     f32:	37 9f       	mul	r19, r23
     f34:	f0 0d       	add	r31, r0
     f36:	11 24       	eor	r1, r1
     f38:	e2 0f       	add	r30, r18
     f3a:	f1 1d       	adc	r31, r1
     f3c:	68 81       	ld	r22, Y
     f3e:	79 81       	ldd	r23, Y+1	; 0x01
     f40:	e6 0f       	add	r30, r22
     f42:	f7 1f       	adc	r31, r23
     f44:	e4 91       	lpm	r30, Z
     f46:	31 2f       	mov	r19, r17
     f48:	32 0f       	add	r19, r18
     f4a:	a0 91 b8 05 	lds	r26, 0x05B8	; 0x8005b8 <glcd_buffer_selected>
     f4e:	b0 91 b9 05 	lds	r27, 0x05B9	; 0x8005b9 <glcd_buffer_selected+0x1>
     f52:	a8 0f       	add	r26, r24
     f54:	b9 1f       	adc	r27, r25
     f56:	a3 0f       	add	r26, r19
     f58:	b1 1d       	adc	r27, r1
     f5a:	ec 93       	st	X, r30
		return;
	}		
	
	glcd_update_bbox(x, line*(font_current.height + 1), x+font_current.width, line*(font_current.height + 1) + (font_current.height + 1));
	
	for ( i = 0; i < font_current.width; i++ ) {
     f5c:	2f 5f       	subi	r18, 0xFF	; 255
     f5e:	3a 81       	ldd	r19, Y+2	; 0x02
     f60:	23 17       	cp	r18, r19
     f62:	00 f3       	brcs	.-64     	; 0xf24 <glcd_tiny_draw_char+0x8e>
#else
		glcd_buffer_selected[x + (line * GLCD_LCD_WIDTH)] = *( font_current.font_table + ((c - font_current.start_char) * (font_current.width)) + i );
#endif
		x++;
	}
}
     f64:	df 91       	pop	r29
     f66:	cf 91       	pop	r28
     f68:	1f 91       	pop	r17
     f6a:	0f 91       	pop	r16
     f6c:	08 95       	ret

00000f6e <glcd_tiny_draw_string>:

void glcd_tiny_draw_string(uint8_t x, uint8_t line, char *str)
{
     f6e:	cf 92       	push	r12
     f70:	df 92       	push	r13
     f72:	ef 92       	push	r14
     f74:	ff 92       	push	r15
     f76:	0f 93       	push	r16
     f78:	1f 93       	push	r17
     f7a:	cf 93       	push	r28
     f7c:	df 93       	push	r29
     f7e:	d8 2e       	mov	r13, r24
     f80:	c6 2e       	mov	r12, r22
	if (font_current.height >= 8) {
     f82:	80 91 bf 05 	lds	r24, 0x05BF	; 0x8005bf <font_current+0x3>
     f86:	88 30       	cpi	r24, 0x08	; 8
     f88:	58 f5       	brcc	.+86     	; 0xfe0 <glcd_tiny_draw_string+0x72>
     f8a:	c4 2f       	mov	r28, r20
     f8c:	d5 2f       	mov	r29, r21
		return;
	}
	while (*str) {
		glcd_tiny_draw_char(x, line, *str++);
		x += (font_current.width + 1);
     f8e:	0c eb       	ldi	r16, 0xBC	; 188
     f90:	15 e0       	ldi	r17, 0x05	; 5
		if ((x + font_current.width + 1) > GLCD_LCD_WIDTH) {
			x = 0; /* Ran out of this line */
			line++;
		}
		if (line >= (GLCD_LCD_HEIGHT/(font_current.height + 1)))
     f92:	68 94       	set
     f94:	ee 24       	eor	r14, r14
     f96:	e6 f8       	bld	r14, 6
     f98:	f1 2c       	mov	r15, r1
     f9a:	1f c0       	rjmp	.+62     	; 0xfda <glcd_tiny_draw_string+0x6c>
{
	if (font_current.height >= 8) {
		return;
	}
	while (*str) {
		glcd_tiny_draw_char(x, line, *str++);
     f9c:	6c 2d       	mov	r22, r12
     f9e:	8d 2d       	mov	r24, r13
     fa0:	0e 94 4b 07 	call	0xe96	; 0xe96 <glcd_tiny_draw_char>
		x += (font_current.width + 1);
     fa4:	f8 01       	movw	r30, r16
     fa6:	82 81       	ldd	r24, Z+2	; 0x02
     fa8:	91 e0       	ldi	r25, 0x01	; 1
     faa:	98 0f       	add	r25, r24
     fac:	d9 0e       	add	r13, r25
		if ((x + font_current.width + 1) > GLCD_LCD_WIDTH) {
     fae:	90 e0       	ldi	r25, 0x00	; 0
     fb0:	8d 0d       	add	r24, r13
     fb2:	91 1d       	adc	r25, r1
     fb4:	01 96       	adiw	r24, 0x01	; 1
     fb6:	81 38       	cpi	r24, 0x81	; 129
     fb8:	91 05       	cpc	r25, r1
     fba:	14 f0       	brlt	.+4      	; 0xfc0 <glcd_tiny_draw_string+0x52>
			x = 0; /* Ran out of this line */
			line++;
     fbc:	c3 94       	inc	r12
	}
	while (*str) {
		glcd_tiny_draw_char(x, line, *str++);
		x += (font_current.width + 1);
		if ((x + font_current.width + 1) > GLCD_LCD_WIDTH) {
			x = 0; /* Ran out of this line */
     fbe:	d1 2c       	mov	r13, r1
			line++;
		}
		if (line >= (GLCD_LCD_HEIGHT/(font_current.height + 1)))
     fc0:	2c 2d       	mov	r18, r12
     fc2:	30 e0       	ldi	r19, 0x00	; 0
     fc4:	f8 01       	movw	r30, r16
     fc6:	63 81       	ldd	r22, Z+3	; 0x03
     fc8:	70 e0       	ldi	r23, 0x00	; 0
     fca:	6f 5f       	subi	r22, 0xFF	; 255
     fcc:	7f 4f       	sbci	r23, 0xFF	; 255
     fce:	c7 01       	movw	r24, r14
     fd0:	0e 94 06 0f 	call	0x1e0c	; 0x1e0c <__divmodhi4>
     fd4:	26 17       	cp	r18, r22
     fd6:	37 07       	cpc	r19, r23
     fd8:	1c f4       	brge	.+6      	; 0xfe0 <glcd_tiny_draw_string+0x72>
void glcd_tiny_draw_string(uint8_t x, uint8_t line, char *str)
{
	if (font_current.height >= 8) {
		return;
	}
	while (*str) {
     fda:	49 91       	ld	r20, Y+
     fdc:	41 11       	cpse	r20, r1
     fde:	de cf       	rjmp	.-68     	; 0xf9c <glcd_tiny_draw_string+0x2e>
			line++;
		}
		if (line >= (GLCD_LCD_HEIGHT/(font_current.height + 1)))
			return; /* Ran out of space :( */
	}
}
     fe0:	df 91       	pop	r29
     fe2:	cf 91       	pop	r28
     fe4:	1f 91       	pop	r17
     fe6:	0f 91       	pop	r16
     fe8:	ff 90       	pop	r15
     fea:	ef 90       	pop	r14
     fec:	df 90       	pop	r13
     fee:	cf 90       	pop	r12
     ff0:	08 95       	ret

00000ff2 <test_rw_eeprom>:
float test_float = 1.5;

/**
 * [test_rw_eeprom --> Test EEPROM]
 */
int test_rw_eeprom(void){
     ff2:	4f 92       	push	r4
     ff4:	5f 92       	push	r5
     ff6:	6f 92       	push	r6
     ff8:	7f 92       	push	r7
     ffa:	8f 92       	push	r8
     ffc:	9f 92       	push	r9
     ffe:	af 92       	push	r10
    1000:	bf 92       	push	r11
    1002:	cf 92       	push	r12
    1004:	df 92       	push	r13
    1006:	ef 92       	push	r14
    1008:	ff 92       	push	r15
    100a:	0f 93       	push	r16
    100c:	1f 93       	push	r17
    100e:	cf 93       	push	r28
    1010:	df 93       	push	r29
    1012:	00 d0       	rcall	.+0      	; 0x1014 <__DATA_REGION_LENGTH__+0x14>
    1014:	00 d0       	rcall	.+0      	; 0x1016 <__DATA_REGION_LENGTH__+0x16>
    1016:	00 d0       	rcall	.+0      	; 0x1018 <__DATA_REGION_LENGTH__+0x18>
    1018:	cd b7       	in	r28, 0x3d	; 61
    101a:	de b7       	in	r29, 0x3e	; 62
    101c:	ce 01       	movw	r24, r28
    101e:	01 96       	adiw	r24, 0x01	; 1
    1020:	5c 01       	movw	r10, r24
    1022:	7c 01       	movw	r14, r24
    1024:	0f 2e       	mov	r0, r31
    1026:	f3 e6       	ldi	r31, 0x63	; 99
    1028:	cf 2e       	mov	r12, r31
    102a:	fa ee       	ldi	r31, 0xEA	; 234
    102c:	df 2e       	mov	r13, r31
    102e:	f0 2d       	mov	r31, r0
    1030:	10 e0       	ldi	r17, 0x00	; 0

    // test write
    b =0;
    for (a=ADDR_TEST;a<ADDR_TEST+LEN_TEST;a++)
    {
        write_value[b] = b;
    1032:	f7 01       	movw	r30, r14
    1034:	10 83       	st	Z, r17
//        printf("write ee\n\r");
        EEWrite(a,(uint8_t *)&write_value[b],1);
    1036:	41 e0       	ldi	r20, 0x01	; 1
    1038:	50 e0       	ldi	r21, 0x00	; 0
    103a:	b7 01       	movw	r22, r14
    103c:	c6 01       	movw	r24, r12
    103e:	0e 94 41 09 	call	0x1282	; 0x1282 <EEWrite>
    1042:	1f 5f       	subi	r17, 0xFF	; 255
    1044:	ff ef       	ldi	r31, 0xFF	; 255
    1046:	ef 1a       	sub	r14, r31
    1048:	ff 0a       	sbc	r15, r31
    104a:	8f ef       	ldi	r24, 0xFF	; 255
    104c:	c8 1a       	sub	r12, r24
    104e:	d8 0a       	sbc	r13, r24
    unsigned char write_value[LEN_TEST];
    unsigned char read_value[LEN_TEST];

    // test write
    b =0;
    for (a=ADDR_TEST;a<ADDR_TEST+LEN_TEST;a++)
    1050:	13 30       	cpi	r17, 0x03	; 3
    1052:	79 f7       	brne	.-34     	; 0x1032 <__DATA_REGION_LENGTH__+0x32>
    // test read
    b =0;
    for (a=ADDR_TEST;a<ADDR_TEST+LEN_TEST;a++)
    {                        
//        printf("read ee\n\r");
         EERead(a,(uint8_t *)&read_value[b],1) ;
    1054:	41 e0       	ldi	r20, 0x01	; 1
    1056:	50 e0       	ldi	r21, 0x00	; 0
    1058:	be 01       	movw	r22, r28
    105a:	6c 5f       	subi	r22, 0xFC	; 252
    105c:	7f 4f       	sbci	r23, 0xFF	; 255
    105e:	83 e6       	ldi	r24, 0x63	; 99
    1060:	9a ee       	ldi	r25, 0xEA	; 234
    1062:	0e 94 54 09 	call	0x12a8	; 0x12a8 <EERead>
    1066:	41 e0       	ldi	r20, 0x01	; 1
    1068:	50 e0       	ldi	r21, 0x00	; 0
    106a:	be 01       	movw	r22, r28
    106c:	6b 5f       	subi	r22, 0xFB	; 251
    106e:	7f 4f       	sbci	r23, 0xFF	; 255
    1070:	84 e6       	ldi	r24, 0x64	; 100
    1072:	9a ee       	ldi	r25, 0xEA	; 234
    1074:	0e 94 54 09 	call	0x12a8	; 0x12a8 <EERead>
    1078:	41 e0       	ldi	r20, 0x01	; 1
    107a:	50 e0       	ldi	r21, 0x00	; 0
    107c:	be 01       	movw	r22, r28
    107e:	6a 5f       	subi	r22, 0xFA	; 250
    1080:	7f 4f       	sbci	r23, 0xFF	; 255
    1082:	85 e6       	ldi	r24, 0x65	; 101
    1084:	9a ee       	ldi	r25, 0xEA	; 234
    1086:	0e 94 54 09 	call	0x12a8	; 0x12a8 <EERead>
    108a:	fe 01       	movw	r30, r28
    108c:	34 96       	adiw	r30, 0x04	; 4
    108e:	7f 01       	movw	r14, r30
    1090:	00 e0       	ldi	r16, 0x00	; 0
    1092:	10 e0       	ldi	r17, 0x00	; 0
            #endif
            status = -1;
        }               
        else{
            #ifdef DEBUG_TEST_EEPROM
                printf("read[%d]=0x%x equal write[%d]=0x%x\n\r",b,read_value[b],b,write_value[b]);
    1094:	0f 2e       	mov	r0, r31
    1096:	fb e3       	ldi	r31, 0x3B	; 59
    1098:	8f 2e       	mov	r8, r31
    109a:	f1 e0       	ldi	r31, 0x01	; 1
    109c:	9f 2e       	mov	r9, r31
    109e:	f0 2d       	mov	r31, r0
            #endif
            status = 0;
    10a0:	41 2c       	mov	r4, r1
    10a2:	51 2c       	mov	r5, r1
    // compare value
    for (b=0;b<LEN_TEST;b++)
    {
        if(read_value[b] != write_value[b]){
            #ifdef DEBUG_TEST_EEPROM
                printf("read[%d]=0x%x not equal write[%d]=0x%x\n\r",b,read_value[b],b,write_value[b]);
    10a4:	0f 2e       	mov	r0, r31
    10a6:	f2 e1       	ldi	r31, 0x12	; 18
    10a8:	cf 2e       	mov	r12, r31
    10aa:	f1 e0       	ldi	r31, 0x01	; 1
    10ac:	df 2e       	mov	r13, r31
    10ae:	f0 2d       	mov	r31, r0
            #endif
            status = -1;
    10b0:	66 24       	eor	r6, r6
    10b2:	6a 94       	dec	r6
    10b4:	77 24       	eor	r7, r7
    10b6:	7a 94       	dec	r7
         b++;         
    }     
    // compare value
    for (b=0;b<LEN_TEST;b++)
    {
        if(read_value[b] != write_value[b]){
    10b8:	f7 01       	movw	r30, r14
    10ba:	81 91       	ld	r24, Z+
    10bc:	7f 01       	movw	r14, r30
    10be:	f5 01       	movw	r30, r10
    10c0:	91 91       	ld	r25, Z+
    10c2:	5f 01       	movw	r10, r30
    10c4:	89 17       	cp	r24, r25
    10c6:	a1 f0       	breq	.+40     	; 0x10f0 <__DATA_REGION_LENGTH__+0xf0>
            #ifdef DEBUG_TEST_EEPROM
                printf("read[%d]=0x%x not equal write[%d]=0x%x\n\r",b,read_value[b],b,write_value[b]);
    10c8:	1f 92       	push	r1
    10ca:	9f 93       	push	r25
    10cc:	1f 93       	push	r17
    10ce:	0f 93       	push	r16
    10d0:	1f 92       	push	r1
    10d2:	8f 93       	push	r24
    10d4:	1f 93       	push	r17
    10d6:	0f 93       	push	r16
    10d8:	df 92       	push	r13
    10da:	cf 92       	push	r12
    10dc:	0e 94 8f 10 	call	0x211e	; 0x211e <printf>
    10e0:	0f b6       	in	r0, 0x3f	; 63
    10e2:	f8 94       	cli
    10e4:	de bf       	out	0x3e, r29	; 62
    10e6:	0f be       	out	0x3f, r0	; 63
    10e8:	cd bf       	out	0x3d, r28	; 61
            #endif
            status = -1;
    10ea:	86 2d       	mov	r24, r6
    10ec:	97 2d       	mov	r25, r7
    10ee:	13 c0       	rjmp	.+38     	; 0x1116 <__stack+0x17>
        }               
        else{
            #ifdef DEBUG_TEST_EEPROM
                printf("read[%d]=0x%x equal write[%d]=0x%x\n\r",b,read_value[b],b,write_value[b]);
    10f0:	1f 92       	push	r1
    10f2:	8f 93       	push	r24
    10f4:	1f 93       	push	r17
    10f6:	0f 93       	push	r16
    10f8:	1f 92       	push	r1
    10fa:	8f 93       	push	r24
    10fc:	1f 93       	push	r17
    10fe:	0f 93       	push	r16
    1100:	9f 92       	push	r9
    1102:	8f 92       	push	r8
    1104:	0e 94 8f 10 	call	0x211e	; 0x211e <printf>
    1108:	0f b6       	in	r0, 0x3f	; 63
    110a:	f8 94       	cli
    110c:	de bf       	out	0x3e, r29	; 62
    110e:	0f be       	out	0x3f, r0	; 63
    1110:	cd bf       	out	0x3d, r28	; 61
            #endif
            status = 0;
    1112:	84 2d       	mov	r24, r4
    1114:	95 2d       	mov	r25, r5
         EERead(a,(uint8_t *)&read_value[b],1) ;
//        printf("read ee done\n\r");
         b++;         
    }     
    // compare value
    for (b=0;b<LEN_TEST;b++)
    1116:	0f 5f       	subi	r16, 0xFF	; 255
    1118:	1f 4f       	sbci	r17, 0xFF	; 255
    111a:	03 30       	cpi	r16, 0x03	; 3
    111c:	11 05       	cpc	r17, r1
    111e:	61 f6       	brne	.-104    	; 0x10b8 <__DATA_REGION_LENGTH__+0xb8>
            #endif
            status = 0;
        }
    }     
    return status;            
}
    1120:	26 96       	adiw	r28, 0x06	; 6
    1122:	0f b6       	in	r0, 0x3f	; 63
    1124:	f8 94       	cli
    1126:	de bf       	out	0x3e, r29	; 62
    1128:	0f be       	out	0x3f, r0	; 63
    112a:	cd bf       	out	0x3d, r28	; 61
    112c:	df 91       	pop	r29
    112e:	cf 91       	pop	r28
    1130:	1f 91       	pop	r17
    1132:	0f 91       	pop	r16
    1134:	ff 90       	pop	r15
    1136:	ef 90       	pop	r14
    1138:	df 90       	pop	r13
    113a:	cf 90       	pop	r12
    113c:	bf 90       	pop	r11
    113e:	af 90       	pop	r10
    1140:	9f 90       	pop	r9
    1142:	8f 90       	pop	r8
    1144:	7f 90       	pop	r7
    1146:	6f 90       	pop	r6
    1148:	5f 90       	pop	r5
    114a:	4f 90       	pop	r4
    114c:	08 95       	ret

0000114e <main>:

int main(void)
{
    114e:	cf 93       	push	r28
    1150:	df 93       	push	r29
    1152:	cd b7       	in	r28, 0x3d	; 61
    1154:	de b7       	in	r29, 0x3e	; 62
    1156:	28 97       	sbiw	r28, 0x08	; 8
    1158:	0f b6       	in	r0, 0x3f	; 63
    115a:	f8 94       	cli
    115c:	de bf       	out	0x3e, r29	; 62
    115e:	0f be       	out	0x3f, r0	; 63
    1160:	cd bf       	out	0x3d, r28	; 61
	/* Initializes MCU, drivers and middleware */
	atmel_start_init();
    1162:	0e 94 e2 02 	call	0x5c4	; 0x5c4 <atmel_start_init>
	
	/* Enable interrupts */
	//sei();
	
	printf("PT.Korosi Specindo\r\n");
    1166:	80 e6       	ldi	r24, 0x60	; 96
    1168:	91 e0       	ldi	r25, 0x01	; 1
    116a:	0e 94 a5 10 	call	0x214a	; 0x214a <puts>
	printf("RnD Team\r\n");
    116e:	84 e7       	ldi	r24, 0x74	; 116
    1170:	91 e0       	ldi	r25, 0x01	; 1
    1172:	0e 94 a5 10 	call	0x214a	; 0x214a <puts>
	printf("FW DCI\r\n");
    1176:	8e e7       	ldi	r24, 0x7E	; 126
    1178:	91 e0       	ldi	r25, 0x01	; 1
    117a:	0e 94 a5 10 	call	0x214a	; 0x214a <puts>
	printf("v2.1.0\r\n");
    117e:	86 e8       	ldi	r24, 0x86	; 134
    1180:	91 e0       	ldi	r25, 0x01	; 1
    1182:	0e 94 a5 10 	call	0x214a	; 0x214a <puts>
	
	glcd_init();
    1186:	0e 94 e5 03 	call	0x7ca	; 0x7ca <glcd_init>

	#if 1
		//stdin=stdout=&amp;uart0_str;
		char string[8] = "";
    118a:	1a 82       	std	Y+2, r1	; 0x02
    118c:	19 82       	std	Y+1, r1	; 0x01
    118e:	fe 01       	movw	r30, r28
    1190:	33 96       	adiw	r30, 0x03	; 3
    1192:	86 e0       	ldi	r24, 0x06	; 6
    1194:	df 01       	movw	r26, r30
    1196:	1d 92       	st	X+, r1
    1198:	8a 95       	dec	r24
    119a:	e9 f7       	brne	.-6      	; 0x1196 <main+0x48>
		double aa= 2.456/1000;
		
		glcd_clear_buffer();
    119c:	0e 94 58 04 	call	0x8b0	; 0x8b0 <glcd_clear_buffer>

		glcd_set_font(Liberation_Sans15x21_Numbers,15,21,46,57);
    11a0:	09 e3       	ldi	r16, 0x39	; 57
    11a2:	2e e2       	ldi	r18, 0x2E	; 46
    11a4:	45 e1       	ldi	r20, 0x15	; 21
    11a6:	6f e0       	ldi	r22, 0x0F	; 15
    11a8:	8e e7       	ldi	r24, 0x7E	; 126
    11aa:	91 e0       	ldi	r25, 0x01	; 1
    11ac:	0e 94 b3 04 	call	0x966	; 0x966 <glcd_set_font>
		sprintf(string,"%.3f",0.256);
    11b0:	8e e3       	ldi	r24, 0x3E	; 62
    11b2:	8f 93       	push	r24
    11b4:	83 e8       	ldi	r24, 0x83	; 131
    11b6:	8f 93       	push	r24
    11b8:	82 e1       	ldi	r24, 0x12	; 18
    11ba:	8f 93       	push	r24
    11bc:	8f e6       	ldi	r24, 0x6F	; 111
    11be:	8f 93       	push	r24
    11c0:	8e e8       	ldi	r24, 0x8E	; 142
    11c2:	91 e0       	ldi	r25, 0x01	; 1
    11c4:	9f 93       	push	r25
    11c6:	8f 93       	push	r24
    11c8:	8e 01       	movw	r16, r28
    11ca:	0f 5f       	subi	r16, 0xFF	; 255
    11cc:	1f 4f       	sbci	r17, 0xFF	; 255
    11ce:	1f 93       	push	r17
    11d0:	0f 93       	push	r16
    11d2:	0e 94 d5 10 	call	0x21aa	; 0x21aa <sprintf>
		glcd_draw_string_xy(0,20,string);
    11d6:	a8 01       	movw	r20, r16
    11d8:	64 e1       	ldi	r22, 0x14	; 20
    11da:	80 e0       	ldi	r24, 0x00	; 0
    11dc:	0e 94 16 07 	call	0xe2c	; 0xe2c <glcd_draw_string_xy>
		glcd_write();
    11e0:	0e 94 45 03 	call	0x68a	; 0x68a <glcd_write>

		glcd_tiny_set_font(Font5x7,5,7,32,127);
    11e4:	0f e7       	ldi	r16, 0x7F	; 127
    11e6:	20 e2       	ldi	r18, 0x20	; 32
    11e8:	47 e0       	ldi	r20, 0x07	; 7
    11ea:	65 e0       	ldi	r22, 0x05	; 5
    11ec:	86 ea       	ldi	r24, 0xA6	; 166
    11ee:	93 e0       	ldi	r25, 0x03	; 3
    11f0:	0e 94 3f 07 	call	0xe7e	; 0xe7e <glcd_tiny_set_font>
		glcd_tiny_draw_string(0,0,"Metalloss :");
    11f4:	43 e9       	ldi	r20, 0x93	; 147
    11f6:	51 e0       	ldi	r21, 0x01	; 1
    11f8:	60 e0       	ldi	r22, 0x00	; 0
    11fa:	80 e0       	ldi	r24, 0x00	; 0
    11fc:	0e 94 b7 07 	call	0xf6e	; 0xf6e <glcd_tiny_draw_string>
		glcd_write();
    1200:	0e 94 45 03 	call	0x68a	; 0x68a <glcd_write>

	#endif
	
	
	test_rw_eeprom();
    1204:	0e 94 f9 07 	call	0xff2	; 0xff2 <test_rw_eeprom>
    1208:	0f b6       	in	r0, 0x3f	; 63
    120a:	f8 94       	cli
    120c:	de bf       	out	0x3e, r29	; 62
    120e:	0f be       	out	0x3f, r0	; 63
    1210:	cd bf       	out	0x3d, r28	; 61
	
	/* Replace with your application code */
	while (1) {
		printf("Hello World!!! %f\r\n",test_float++);
    1212:	0f 2e       	mov	r0, r31
    1214:	ff e9       	ldi	r31, 0x9F	; 159
    1216:	ef 2e       	mov	r14, r31
    1218:	f1 e0       	ldi	r31, 0x01	; 1
    121a:	ff 2e       	mov	r15, r31
    121c:	f0 2d       	mov	r31, r0
    121e:	08 ec       	ldi	r16, 0xC8	; 200
    1220:	10 e0       	ldi	r17, 0x00	; 0
    1222:	d0 90 00 01 	lds	r13, 0x0100	; 0x800100 <__DATA_REGION_ORIGIN__>
    1226:	c0 90 01 01 	lds	r12, 0x0101	; 0x800101 <__DATA_REGION_ORIGIN__+0x1>
    122a:	b0 90 02 01 	lds	r11, 0x0102	; 0x800102 <__DATA_REGION_ORIGIN__+0x2>
    122e:	a0 90 03 01 	lds	r10, 0x0103	; 0x800103 <__DATA_REGION_ORIGIN__+0x3>
    1232:	20 e0       	ldi	r18, 0x00	; 0
    1234:	30 e0       	ldi	r19, 0x00	; 0
    1236:	40 e8       	ldi	r20, 0x80	; 128
    1238:	5f e3       	ldi	r21, 0x3F	; 63
    123a:	6d 2d       	mov	r22, r13
    123c:	7c 2d       	mov	r23, r12
    123e:	8b 2d       	mov	r24, r11
    1240:	9a 2d       	mov	r25, r10
    1242:	0e 94 cc 0a 	call	0x1598	; 0x1598 <__addsf3>
    1246:	60 93 00 01 	sts	0x0100, r22	; 0x800100 <__DATA_REGION_ORIGIN__>
    124a:	70 93 01 01 	sts	0x0101, r23	; 0x800101 <__DATA_REGION_ORIGIN__+0x1>
    124e:	80 93 02 01 	sts	0x0102, r24	; 0x800102 <__DATA_REGION_ORIGIN__+0x2>
    1252:	90 93 03 01 	sts	0x0103, r25	; 0x800103 <__DATA_REGION_ORIGIN__+0x3>
    1256:	af 92       	push	r10
    1258:	bf 92       	push	r11
    125a:	cf 92       	push	r12
    125c:	df 92       	push	r13
    125e:	ff 92       	push	r15
    1260:	ef 92       	push	r14
    1262:	0e 94 8f 10 	call	0x211e	; 0x211e <printf>
    1266:	0f 90       	pop	r0
    1268:	0f 90       	pop	r0
    126a:	0f 90       	pop	r0
    126c:	0f 90       	pop	r0
    126e:	0f 90       	pop	r0
    1270:	0f 90       	pop	r0
    1272:	88 e8       	ldi	r24, 0x88	; 136
    1274:	93 e1       	ldi	r25, 0x13	; 19
    1276:	f8 01       	movw	r30, r16
    1278:	31 97       	sbiw	r30, 0x01	; 1
    127a:	f1 f7       	brne	.-4      	; 0x1278 <main+0x12a>
    127c:	01 97       	sbiw	r24, 0x01	; 1
		__ticks = 1;
	else if (__tmp > 65535)
	{
		//	__ticks = requested delay in 1/10 ms
		__ticks = (uint16_t) (__ms * 10.0);
		while(__ticks)
    127e:	d9 f7       	brne	.-10     	; 0x1276 <main+0x128>
    1280:	d0 cf       	rjmp	.-96     	; 0x1222 <main+0xd4>

00001282 <EEWrite>:
	
	return 0;
}

uint8_t EEWrite(uint16_t u16addr, uint8_t *u8data, int len)
{
    1282:	9a 01       	movw	r18, r20
	
	
	if(i2c_writeReg16(EEDEVADR,u16addr,u8data,len)==1){
    1284:	ab 01       	movw	r20, r22
    1286:	bc 01       	movw	r22, r24
    1288:	80 ea       	ldi	r24, 0xA0	; 160
    128a:	0e 94 1d 0a 	call	0x143a	; 0x143a <i2c_writeReg16>
    128e:	81 30       	cpi	r24, 0x01	; 1
    1290:	29 f4       	brne	.+10     	; 0x129c <EEWrite+0x1a>
    1292:	e4 ec       	ldi	r30, 0xC4	; 196
    1294:	f9 e0       	ldi	r31, 0x09	; 9
    1296:	31 97       	sbiw	r30, 0x01	; 1
    1298:	f1 f7       	brne	.-4      	; 0x1296 <EEWrite+0x14>
    129a:	08 95       	ret
    129c:	84 ec       	ldi	r24, 0xC4	; 196
    129e:	99 e0       	ldi	r25, 0x09	; 9
    12a0:	01 97       	sbiw	r24, 0x01	; 1
    12a2:	f1 f7       	brne	.-4      	; 0x12a0 <EEWrite+0x1e>
		_delay_ms(10);
		return ERROR;
	}else{
		//delay_ms(10);
		_delay_ms(10);
		return SUCCESS;
    12a4:	80 e0       	ldi	r24, 0x00	; 0
	}
}
    12a6:	08 95       	ret

000012a8 <EERead>:

uint8_t EERead(uint16_t u16addr, uint8_t *u8data,int len)
{
    12a8:	9a 01       	movw	r18, r20
	if(i2c_readReg16(EEDEVADR,u16addr,u8data,len)==1){
    12aa:	ab 01       	movw	r20, r22
    12ac:	bc 01       	movw	r22, r24
    12ae:	80 ea       	ldi	r24, 0xA0	; 160
    12b0:	0e 94 53 0a 	call	0x14a6	; 0x14a6 <i2c_readReg16>
    12b4:	81 30       	cpi	r24, 0x01	; 1
    12b6:	29 f4       	brne	.+10     	; 0x12c2 <EERead+0x1a>
    12b8:	e4 ec       	ldi	r30, 0xC4	; 196
    12ba:	f9 e0       	ldi	r31, 0x09	; 9
    12bc:	31 97       	sbiw	r30, 0x01	; 1
    12be:	f1 f7       	brne	.-4      	; 0x12bc <EERead+0x14>
    12c0:	08 95       	ret
    12c2:	84 ec       	ldi	r24, 0xC4	; 196
    12c4:	99 e0       	ldi	r25, 0x09	; 9
    12c6:	01 97       	sbiw	r24, 0x01	; 1
    12c8:	f1 f7       	brne	.-4      	; 0x12c6 <EERead+0x1e>
		return ERROR;
	}	
	else{
		//delay_ms(10);
		_delay_ms(10);
		return SUCCESS;
    12ca:	80 e0       	ldi	r24, 0x00	; 0
	}
	
	
	
    12cc:	08 95       	ret

000012ce <I2C_0_initialization>:
	switch (direction) {
	case PORT_DIR_IN:
		DDRC &= ~(1 << pin);
		break;
	case PORT_DIR_OUT:
		DDRC |= 1 << pin;
    12ce:	38 9a       	sbi	0x07, 0	; 7
static inline void PORTC_set_pin_level(const uint8_t pin, const bool level)
{
	if (level) {
		PORTC |= 1 << pin;
	} else {
		PORTC &= ~(1 << pin);
    12d0:	40 98       	cbi	0x08, 0	; 8
		DDRC &= ~(1 << pin);

		PORTC |= 1 << pin;
	} else if (pull_mode == PORT_PULL_OFF) {

		PORTC &= ~(1 << pin);
    12d2:	40 98       	cbi	0x08, 0	; 8
	switch (direction) {
	case PORT_DIR_IN:
		DDRC &= ~(1 << pin);
		break;
	case PORT_DIR_OUT:
		DDRC |= 1 << pin;
    12d4:	39 9a       	sbi	0x07, 1	; 7
static inline void PORTC_set_pin_level(const uint8_t pin, const bool level)
{
	if (level) {
		PORTC |= 1 << pin;
	} else {
		PORTC &= ~(1 << pin);
    12d6:	41 98       	cbi	0x08, 1	; 8
		DDRC &= ~(1 << pin);

		PORTC |= 1 << pin;
	} else if (pull_mode == PORT_PULL_OFF) {

		PORTC &= ~(1 << pin);
    12d8:	41 98       	cbi	0x08, 1	; 8
	    // <id> pad_pull_config
	    // <PORT_PULL_OFF"> Off
	    // <PORT_PULL_UP"> Pull-up
	    PORT_PULL_OFF);

	I2C_0_init();
    12da:	0e 94 9e 09 	call	0x133c	; 0x133c <I2C_0_init>
    12de:	08 95       	ret

000012e0 <USART_0_initialization>:
 */
static inline void PORTD_set_pin_dir(const uint8_t pin, const enum port_dir direction)
{
	switch (direction) {
	case PORT_DIR_IN:
		DDRD &= ~(1 << pin);
    12e0:	50 98       	cbi	0x0a, 0	; 10
		DDRD &= ~(1 << pin);

		PORTD |= 1 << pin;
	} else if (pull_mode == PORT_PULL_OFF) {

		PORTD &= ~(1 << pin);
    12e2:	58 98       	cbi	0x0b, 0	; 11
	switch (direction) {
	case PORT_DIR_IN:
		DDRD &= ~(1 << pin);
		break;
	case PORT_DIR_OUT:
		DDRD |= 1 << pin;
    12e4:	51 9a       	sbi	0x0a, 1	; 10
static inline void PORTD_set_pin_level(const uint8_t pin, const bool level)
{
	if (level) {
		PORTD |= 1 << pin;
	} else {
		PORTD &= ~(1 << pin);
    12e6:	59 98       	cbi	0x0b, 1	; 11
	    // <id> pad_initial_level
	    // <false"> Low
	    // <true"> High
	    false);

	USART_0_init();
    12e8:	0e 94 b4 0a 	call	0x1568	; 0x1568 <USART_0_init>
    12ec:	08 95       	ret

000012ee <system_init>:
{
	/* On AVR devices all peripherals are enabled from power on reset, this
	 * disables all peripherals to save power. Driver shall enable
	 * peripheral if used */

	PRR0 = (1 << PRSPI) | (1 << PRTIM2) | (1 << PRTIM0) | (1 << PRTIM1) | (1 << PRTWI) | (1 << PRUSART1)
    12ee:	8f ef       	ldi	r24, 0xFF	; 255
    12f0:	80 93 64 00 	sts	0x0064, r24	; 0x800064 <__TEXT_REGION_LENGTH__+0x7f0064>
		break;
	case PORT_DIR_OUT:
		DDRA |= mask;
		break;
	case PORT_DIR_OFF:
		DDRA &= ~mask;
    12f4:	91 b1       	in	r25, 0x01	; 1
    12f6:	11 b8       	out	0x01, r1	; 1

		PORTA |= mask;
    12f8:	92 b1       	in	r25, 0x02	; 2
    12fa:	82 b9       	out	0x02, r24	; 2
		break;
	case PORT_DIR_OUT:
		DDRB |= mask;
		break;
	case PORT_DIR_OFF:
		DDRB &= ~mask;
    12fc:	94 b1       	in	r25, 0x04	; 4
    12fe:	14 b8       	out	0x04, r1	; 4

		PORTB |= mask;
    1300:	95 b1       	in	r25, 0x05	; 5
    1302:	85 b9       	out	0x05, r24	; 5
		break;
	case PORT_DIR_OUT:
		DDRC |= mask;
		break;
	case PORT_DIR_OFF:
		DDRC &= ~mask;
    1304:	97 b1       	in	r25, 0x07	; 7
    1306:	17 b8       	out	0x07, r1	; 7

		PORTC |= mask;
    1308:	98 b1       	in	r25, 0x08	; 8
    130a:	88 b9       	out	0x08, r24	; 8
		break;
	case PORT_DIR_OUT:
		DDRD |= mask;
		break;
	case PORT_DIR_OFF:
		DDRD &= ~mask;
    130c:	9a b1       	in	r25, 0x0a	; 10
    130e:	1a b8       	out	0x0a, r1	; 10

		PORTD |= mask;
    1310:	9b b1       	in	r25, 0x0b	; 11
    1312:	8b b9       	out	0x0b, r24	; 11
 * \return Initialization status.
 */
static inline int8_t sysctrl_init()
{
	/* Set up system clock prescaler according to configuration */
	protected_write_io((void *)&CLKPR, 1 << CLKPCE, (0 << CLKPS3) | (0 << CLKPS2) | (0 << CLKPS1) | (0 << CLKPS0));
    1314:	40 e0       	ldi	r20, 0x00	; 0
    1316:	60 e8       	ldi	r22, 0x80	; 128
    1318:	81 e6       	ldi	r24, 0x61	; 97
    131a:	90 e0       	ldi	r25, 0x00	; 0
    131c:	0e 94 97 09 	call	0x132e	; 0x132e <protected_write_io>

	SMCR = (0 << SM2) | (0 << SM1) | (0 << SM0) | // Idle
    1320:	13 be       	out	0x33, r1	; 51
	       (0 << SE);

	MCUCR = (0 << PUD);
    1322:	15 be       	out	0x35, r1	; 53
{
	mcu_init();

	sysctrl_init();

	I2C_0_initialization();
    1324:	0e 94 67 09 	call	0x12ce	; 0x12ce <I2C_0_initialization>

	USART_0_initialization();
    1328:	0e 94 70 09 	call	0x12e0	; 0x12e0 <USART_0_initialization>
    132c:	08 95       	ret

0000132e <protected_write_io>:
#if defined(__GNUC__)
	/*
	 * We need to disable interrupts globally before the protected
	 * sequence. In order to do that we must save SREG first.
	 */
	in      r18,    _SFR_IO_ADDR(SREG)
    132e:	2f b7       	in	r18, 0x3f	; 63
	cli
    1330:	f8 94       	cli
  
#ifdef RAMPZ
	out     _SFR_IO_ADDR(RAMPZ), r1         // Clear bits 23:16 of Z
#endif
	movw    r30, r24                // Load addr into Z
    1332:	fc 01       	movw	r30, r24
	st      Z, r22                  // Write protection bit to I/O register
    1334:	60 83       	st	Z, r22
	st      Z, r20                  // Write value to I/O register
    1336:	40 83       	st	Z, r20
	out     _SFR_IO_ADDR(SREG), r18
    1338:	2f bf       	out	0x3f, r18	; 63

	ret                             // Return to caller
    133a:	08 95       	ret

0000133c <I2C_0_init>:
 */
int8_t I2C_0_init()
{

	/* Enable TWI */
	PRR0 &= ~(1 << PRTWI);
    133c:	e4 e6       	ldi	r30, 0x64	; 100
    133e:	f0 e0       	ldi	r31, 0x00	; 0
    1340:	80 81       	ld	r24, Z
    1342:	8f 77       	andi	r24, 0x7F	; 127
    1344:	80 83       	st	Z, r24

	/* SCL bitrate = F_CPU / (16 + 2 * TWBR * TWPS value) */
	/* Configured bit rate is 100.000kHz, based on CPU frequency 8.000MHz */
	TWBR = 0x20;          /* SCL bit rate: 100.000kHZ before prescaling */
    1346:	80 e2       	ldi	r24, 0x20	; 32
    1348:	80 93 b8 00 	sts	0x00B8, r24	; 0x8000b8 <__TEXT_REGION_LENGTH__+0x7f00b8>
	TWSR = 0x00 << TWPS0; /* SCL precaler: 1, effective bitrate = 100.000kHz */
    134c:	10 92 b9 00 	sts	0x00B9, r1	; 0x8000b9 <__TEXT_REGION_LENGTH__+0x7f00b9>

	return 0;
}
    1350:	80 e0       	ldi	r24, 0x00	; 0
    1352:	08 95       	ret

00001354 <i2c_periph_start>:
	data[(length-1)] = i2c_read_nack(100,NULL);

	i2c_periph_stop();

	return 0;
}
    1354:	ec eb       	ldi	r30, 0xBC	; 188
    1356:	f0 e0       	ldi	r31, 0x00	; 0
    1358:	10 82       	st	Z, r1
    135a:	94 ea       	ldi	r25, 0xA4	; 164
    135c:	90 83       	st	Z, r25
    135e:	90 81       	ld	r25, Z
    1360:	99 23       	and	r25, r25
    1362:	ec f7       	brge	.-6      	; 0x135e <i2c_periph_start+0xa>
    1364:	90 91 b9 00 	lds	r25, 0x00B9	; 0x8000b9 <__TEXT_REGION_LENGTH__+0x7f00b9>
    1368:	98 7f       	andi	r25, 0xF8	; 248
    136a:	98 30       	cpi	r25, 0x08	; 8
    136c:	a1 f4       	brne	.+40     	; 0x1396 <i2c_periph_start+0x42>
    136e:	80 93 bb 00 	sts	0x00BB, r24	; 0x8000bb <__TEXT_REGION_LENGTH__+0x7f00bb>
    1372:	84 e8       	ldi	r24, 0x84	; 132
    1374:	80 93 bc 00 	sts	0x00BC, r24	; 0x8000bc <__TEXT_REGION_LENGTH__+0x7f00bc>
    1378:	ec eb       	ldi	r30, 0xBC	; 188
    137a:	f0 e0       	ldi	r31, 0x00	; 0
    137c:	80 81       	ld	r24, Z
    137e:	88 23       	and	r24, r24
    1380:	ec f7       	brge	.-6      	; 0x137c <i2c_periph_start+0x28>
    1382:	90 91 b9 00 	lds	r25, 0x00B9	; 0x8000b9 <__TEXT_REGION_LENGTH__+0x7f00b9>
    1386:	98 7f       	andi	r25, 0xF8	; 248
    1388:	98 31       	cpi	r25, 0x18	; 24
    138a:	39 f0       	breq	.+14     	; 0x139a <i2c_periph_start+0x46>
    138c:	81 e0       	ldi	r24, 0x01	; 1
    138e:	90 34       	cpi	r25, 0x40	; 64
    1390:	29 f4       	brne	.+10     	; 0x139c <i2c_periph_start+0x48>
    1392:	80 e0       	ldi	r24, 0x00	; 0
    1394:	08 95       	ret
    1396:	81 e0       	ldi	r24, 0x01	; 1
    1398:	08 95       	ret
    139a:	80 e0       	ldi	r24, 0x00	; 0
    139c:	08 95       	ret

0000139e <i2c_periph_write>:
    139e:	80 93 bb 00 	sts	0x00BB, r24	; 0x8000bb <__TEXT_REGION_LENGTH__+0x7f00bb>
    13a2:	84 e8       	ldi	r24, 0x84	; 132
    13a4:	80 93 bc 00 	sts	0x00BC, r24	; 0x8000bc <__TEXT_REGION_LENGTH__+0x7f00bc>
    13a8:	ec eb       	ldi	r30, 0xBC	; 188
    13aa:	f0 e0       	ldi	r31, 0x00	; 0
    13ac:	80 81       	ld	r24, Z
    13ae:	88 23       	and	r24, r24
    13b0:	ec f7       	brge	.-6      	; 0x13ac <i2c_periph_write+0xe>
    13b2:	90 91 b9 00 	lds	r25, 0x00B9	; 0x8000b9 <__TEXT_REGION_LENGTH__+0x7f00b9>
    13b6:	98 7f       	andi	r25, 0xF8	; 248
    13b8:	81 e0       	ldi	r24, 0x01	; 1
    13ba:	98 32       	cpi	r25, 0x28	; 40
    13bc:	09 f4       	brne	.+2      	; 0x13c0 <i2c_periph_write+0x22>
    13be:	80 e0       	ldi	r24, 0x00	; 0
    13c0:	08 95       	ret

000013c2 <i2c_read_ack>:
    13c2:	fb 01       	movw	r30, r22
    13c4:	ac eb       	ldi	r26, 0xBC	; 188
    13c6:	b0 e0       	ldi	r27, 0x00	; 0
    13c8:	94 ec       	ldi	r25, 0xC4	; 196
    13ca:	9c 93       	st	X, r25
    13cc:	9c 91       	ld	r25, X
    13ce:	99 23       	and	r25, r25
    13d0:	7c f4       	brge	.+30     	; 0x13f0 <i2c_read_ack+0x2e>
    13d2:	12 c0       	rjmp	.+36     	; 0x13f8 <i2c_read_ack+0x36>
    13d4:	10 82       	st	Z, r1
    13d6:	81 11       	cpse	r24, r1
    13d8:	03 c0       	rjmp	.+6      	; 0x13e0 <i2c_read_ack+0x1e>
    13da:	07 c0       	rjmp	.+14     	; 0x13ea <i2c_read_ack+0x28>
    13dc:	ac eb       	ldi	r26, 0xBC	; 188
    13de:	b0 e0       	ldi	r27, 0x00	; 0
    13e0:	81 50       	subi	r24, 0x01	; 1
    13e2:	9c 91       	ld	r25, X
    13e4:	99 23       	and	r25, r25
    13e6:	b4 f7       	brge	.-20     	; 0x13d4 <i2c_read_ack+0x12>
    13e8:	07 c0       	rjmp	.+14     	; 0x13f8 <i2c_read_ack+0x36>
    13ea:	81 e0       	ldi	r24, 0x01	; 1
    13ec:	80 83       	st	Z, r24
    13ee:	04 c0       	rjmp	.+8      	; 0x13f8 <i2c_read_ack+0x36>
    13f0:	10 82       	st	Z, r1
    13f2:	81 11       	cpse	r24, r1
    13f4:	f3 cf       	rjmp	.-26     	; 0x13dc <i2c_read_ack+0x1a>
    13f6:	f9 cf       	rjmp	.-14     	; 0x13ea <i2c_read_ack+0x28>
    13f8:	80 91 bb 00 	lds	r24, 0x00BB	; 0x8000bb <__TEXT_REGION_LENGTH__+0x7f00bb>
    13fc:	08 95       	ret

000013fe <i2c_read_nack>:
    13fe:	fb 01       	movw	r30, r22
    1400:	ac eb       	ldi	r26, 0xBC	; 188
    1402:	b0 e0       	ldi	r27, 0x00	; 0
    1404:	94 e8       	ldi	r25, 0x84	; 132
    1406:	9c 93       	st	X, r25
    1408:	9c 91       	ld	r25, X
    140a:	99 23       	and	r25, r25
    140c:	7c f4       	brge	.+30     	; 0x142c <i2c_read_nack+0x2e>
    140e:	12 c0       	rjmp	.+36     	; 0x1434 <i2c_read_nack+0x36>
    1410:	10 82       	st	Z, r1
    1412:	81 11       	cpse	r24, r1
    1414:	03 c0       	rjmp	.+6      	; 0x141c <i2c_read_nack+0x1e>
    1416:	07 c0       	rjmp	.+14     	; 0x1426 <i2c_read_nack+0x28>
    1418:	ac eb       	ldi	r26, 0xBC	; 188
    141a:	b0 e0       	ldi	r27, 0x00	; 0
    141c:	81 50       	subi	r24, 0x01	; 1
    141e:	9c 91       	ld	r25, X
    1420:	99 23       	and	r25, r25
    1422:	b4 f7       	brge	.-20     	; 0x1410 <i2c_read_nack+0x12>
    1424:	07 c0       	rjmp	.+14     	; 0x1434 <i2c_read_nack+0x36>
    1426:	81 e0       	ldi	r24, 0x01	; 1
    1428:	80 83       	st	Z, r24
    142a:	04 c0       	rjmp	.+8      	; 0x1434 <i2c_read_nack+0x36>
    142c:	10 82       	st	Z, r1
    142e:	81 11       	cpse	r24, r1
    1430:	f3 cf       	rjmp	.-26     	; 0x1418 <i2c_read_nack+0x1a>
    1432:	f9 cf       	rjmp	.-14     	; 0x1426 <i2c_read_nack+0x28>
    1434:	80 91 bb 00 	lds	r24, 0x00BB	; 0x8000bb <__TEXT_REGION_LENGTH__+0x7f00bb>
    1438:	08 95       	ret

0000143a <i2c_writeReg16>:
    143a:	cf 92       	push	r12
    143c:	df 92       	push	r13
    143e:	ff 92       	push	r15
    1440:	0f 93       	push	r16
    1442:	1f 93       	push	r17
    1444:	cf 93       	push	r28
    1446:	df 93       	push	r29
    1448:	c6 2f       	mov	r28, r22
    144a:	d7 2f       	mov	r29, r23
    144c:	6a 01       	movw	r12, r20
    144e:	89 01       	movw	r16, r18
    1450:	0e 94 aa 09 	call	0x1354	; 0x1354 <i2c_periph_start>
    1454:	f8 2e       	mov	r15, r24
    1456:	81 11       	cpse	r24, r1
    1458:	18 c0       	rjmp	.+48     	; 0x148a <i2c_writeReg16+0x50>
    145a:	8d 2f       	mov	r24, r29
    145c:	0e 94 cf 09 	call	0x139e	; 0x139e <i2c_periph_write>
    1460:	8c 2f       	mov	r24, r28
    1462:	0e 94 cf 09 	call	0x139e	; 0x139e <i2c_periph_write>
    1466:	01 15       	cp	r16, r1
    1468:	11 05       	cpc	r17, r1
    146a:	59 f0       	breq	.+22     	; 0x1482 <i2c_writeReg16+0x48>
    146c:	e6 01       	movw	r28, r12
    146e:	0c 0d       	add	r16, r12
    1470:	1d 1d       	adc	r17, r13
    1472:	89 91       	ld	r24, Y+
    1474:	0e 94 cf 09 	call	0x139e	; 0x139e <i2c_periph_write>
    1478:	81 11       	cpse	r24, r1
    147a:	0a c0       	rjmp	.+20     	; 0x1490 <i2c_writeReg16+0x56>
    147c:	c0 17       	cp	r28, r16
    147e:	d1 07       	cpc	r29, r17
    1480:	c1 f7       	brne	.-16     	; 0x1472 <i2c_writeReg16+0x38>
    1482:	84 e9       	ldi	r24, 0x94	; 148
    1484:	80 93 bc 00 	sts	0x00BC, r24	; 0x8000bc <__TEXT_REGION_LENGTH__+0x7f00bc>
    1488:	05 c0       	rjmp	.+10     	; 0x1494 <i2c_writeReg16+0x5a>
    148a:	ff 24       	eor	r15, r15
    148c:	f3 94       	inc	r15
    148e:	02 c0       	rjmp	.+4      	; 0x1494 <i2c_writeReg16+0x5a>
    1490:	ff 24       	eor	r15, r15
    1492:	f3 94       	inc	r15
    1494:	8f 2d       	mov	r24, r15
    1496:	df 91       	pop	r29
    1498:	cf 91       	pop	r28
    149a:	1f 91       	pop	r17
    149c:	0f 91       	pop	r16
    149e:	ff 90       	pop	r15
    14a0:	df 90       	pop	r13
    14a2:	cf 90       	pop	r12
    14a4:	08 95       	ret

000014a6 <i2c_readReg16>:

uint8_t i2c_readReg16(uint8_t devaddr, uint16_t regaddr, uint8_t* data, uint16_t length)
{
    14a6:	af 92       	push	r10
    14a8:	bf 92       	push	r11
    14aa:	df 92       	push	r13
    14ac:	ef 92       	push	r14
    14ae:	ff 92       	push	r15
    14b0:	0f 93       	push	r16
    14b2:	1f 93       	push	r17
    14b4:	cf 93       	push	r28
    14b6:	df 93       	push	r29
    14b8:	18 2f       	mov	r17, r24
    14ba:	06 2f       	mov	r16, r22
    14bc:	f7 2e       	mov	r15, r23
    14be:	5a 01       	movw	r10, r20
    14c0:	e9 01       	movw	r28, r18
	uint16_t i;
	if (i2c_periph_start(devaddr)) return 1;
    14c2:	0e 94 aa 09 	call	0x1354	; 0x1354 <i2c_periph_start>
    14c6:	81 11       	cpse	r24, r1
    14c8:	2b c0       	rjmp	.+86     	; 0x1520 <i2c_readReg16+0x7a>

	i2c_periph_write(regaddr >>8 );
    14ca:	8f 2d       	mov	r24, r15
    14cc:	0e 94 cf 09 	call	0x139e	; 0x139e <i2c_periph_write>
	i2c_periph_write(regaddr & 0xFF);
    14d0:	80 2f       	mov	r24, r16
    14d2:	0e 94 cf 09 	call	0x139e	; 0x139e <i2c_periph_write>

	if (i2c_periph_start(devaddr | 0x01)) return 1;
    14d6:	81 2f       	mov	r24, r17
    14d8:	81 60       	ori	r24, 0x01	; 1
    14da:	0e 94 aa 09 	call	0x1354	; 0x1354 <i2c_periph_start>
    14de:	d8 2e       	mov	r13, r24
    14e0:	81 11       	cpse	r24, r1
    14e2:	21 c0       	rjmp	.+66     	; 0x1526 <i2c_readReg16+0x80>
         
    for (i = 0; i < (length-1); i++)
    14e4:	8e 01       	movw	r16, r28
    14e6:	01 50       	subi	r16, 0x01	; 1
    14e8:	11 09       	sbc	r17, r1
    14ea:	69 f0       	breq	.+26     	; 0x1506 <i2c_readReg16+0x60>
    14ec:	e5 01       	movw	r28, r10
    14ee:	75 01       	movw	r14, r10
    14f0:	e0 0e       	add	r14, r16
    14f2:	f1 1e       	adc	r15, r17
	{
		data[i] = i2c_read_ack(100,NULL);
    14f4:	60 e0       	ldi	r22, 0x00	; 0
    14f6:	70 e0       	ldi	r23, 0x00	; 0
    14f8:	84 e6       	ldi	r24, 0x64	; 100
    14fa:	0e 94 e1 09 	call	0x13c2	; 0x13c2 <i2c_read_ack>
    14fe:	89 93       	st	Y+, r24
	i2c_periph_write(regaddr >>8 );
	i2c_periph_write(regaddr & 0xFF);

	if (i2c_periph_start(devaddr | 0x01)) return 1;
         
    for (i = 0; i < (length-1); i++)
    1500:	ec 16       	cp	r14, r28
    1502:	fd 06       	cpc	r15, r29
    1504:	b9 f7       	brne	.-18     	; 0x14f4 <i2c_readReg16+0x4e>
	{
		data[i] = i2c_read_ack(100,NULL);
	}
	data[(length-1)] = i2c_read_nack(100,NULL);
    1506:	e5 01       	movw	r28, r10
    1508:	c0 0f       	add	r28, r16
    150a:	d1 1f       	adc	r29, r17
    150c:	60 e0       	ldi	r22, 0x00	; 0
    150e:	70 e0       	ldi	r23, 0x00	; 0
    1510:	84 e6       	ldi	r24, 0x64	; 100
    1512:	0e 94 ff 09 	call	0x13fe	; 0x13fe <i2c_read_nack>
    1516:	88 83       	st	Y, r24
}

void i2c_periph_stop(void)
{
	// transmit STOP condition
	TWCR = (1<<TWINT) | (1<<TWEN) | (1<<TWSTO);
    1518:	84 e9       	ldi	r24, 0x94	; 148
    151a:	80 93 bc 00 	sts	0x00BC, r24	; 0x8000bc <__TEXT_REGION_LENGTH__+0x7f00bc>
    151e:	05 c0       	rjmp	.+10     	; 0x152a <i2c_readReg16+0x84>
}

uint8_t i2c_readReg16(uint8_t devaddr, uint16_t regaddr, uint8_t* data, uint16_t length)
{
	uint16_t i;
	if (i2c_periph_start(devaddr)) return 1;
    1520:	dd 24       	eor	r13, r13
    1522:	d3 94       	inc	r13
    1524:	02 c0       	rjmp	.+4      	; 0x152a <i2c_readReg16+0x84>

	i2c_periph_write(regaddr >>8 );
	i2c_periph_write(regaddr & 0xFF);

	if (i2c_periph_start(devaddr | 0x01)) return 1;
    1526:	dd 24       	eor	r13, r13
    1528:	d3 94       	inc	r13
	data[(length-1)] = i2c_read_nack(100,NULL);

	i2c_periph_stop();

	return 0;
}
    152a:	8d 2d       	mov	r24, r13
    152c:	df 91       	pop	r29
    152e:	cf 91       	pop	r28
    1530:	1f 91       	pop	r17
    1532:	0f 91       	pop	r16
    1534:	ff 90       	pop	r15
    1536:	ef 90       	pop	r14
    1538:	df 90       	pop	r13
    153a:	bf 90       	pop	r11
    153c:	af 90       	pop	r10
    153e:	08 95       	ret

00001540 <USART0SendByte>:

//Tambahkan fungsi pada usart.c
//reference USART printf
//https://wangready.wordpress.com/2015/09/12/printf-dan-scanf-usart-pada-avr-studio-4-avr-avr-gcc/
int USART0SendByte(char u8Data, FILE *stream)
{
    1540:	cf 93       	push	r28
    1542:	c8 2f       	mov	r28, r24
	if(u8Data == '\n')
    1544:	8a 30       	cpi	r24, 0x0A	; 10
    1546:	29 f4       	brne	.+10     	; 0x1552 <USART0SendByte+0x12>
	{
		USART0SendByte('\r', 0);
    1548:	60 e0       	ldi	r22, 0x00	; 0
    154a:	70 e0       	ldi	r23, 0x00	; 0
    154c:	8d e0       	ldi	r24, 0x0D	; 13
    154e:	0e 94 a0 0a 	call	0x1540	; 0x1540 <USART0SendByte>
	}
	//wait while previous byte is completed
	while(!(UCSR0A&(1<<UDRE0))){};
    1552:	e0 ec       	ldi	r30, 0xC0	; 192
    1554:	f0 e0       	ldi	r31, 0x00	; 0
    1556:	80 81       	ld	r24, Z
    1558:	85 ff       	sbrs	r24, 5
    155a:	fd cf       	rjmp	.-6      	; 0x1556 <USART0SendByte+0x16>
	// Transmit data
	UDR0 = u8Data;
    155c:	c0 93 c6 00 	sts	0x00C6, r28	; 0x8000c6 <__TEXT_REGION_LENGTH__+0x7f00c6>
	return 0;
}
    1560:	80 e0       	ldi	r24, 0x00	; 0
    1562:	90 e0       	ldi	r25, 0x00	; 0
    1564:	cf 91       	pop	r28
    1566:	08 95       	ret

00001568 <USART_0_init>:
{

	// Module is in UART mode

	/* Enable USART0 */
	PRR0 &= ~(1 << PRUSART0);
    1568:	e4 e6       	ldi	r30, 0x64	; 100
    156a:	f0 e0       	ldi	r31, 0x00	; 0
    156c:	80 81       	ld	r24, Z
    156e:	8d 7f       	andi	r24, 0xFD	; 253
    1570:	80 83       	st	Z, r24

#define BAUD 38400

#include <utils/setbaud.h>

	UBRR0H = UBRRH_VALUE;
    1572:	10 92 c5 00 	sts	0x00C5, r1	; 0x8000c5 <__TEXT_REGION_LENGTH__+0x7f00c5>
	UBRR0L = UBRRL_VALUE;
    1576:	8c e0       	ldi	r24, 0x0C	; 12
    1578:	80 93 c4 00 	sts	0x00C4, r24	; 0x8000c4 <__TEXT_REGION_LENGTH__+0x7f00c4>

	UCSR0A = USE_2X << U2X0 /*  */
    157c:	10 92 c0 00 	sts	0x00C0, r1	; 0x8000c0 <__TEXT_REGION_LENGTH__+0x7f00c0>
	         | 0 << MPCM0;  /* Multi-processor Communication Mode: disabled */

	UCSR0B = 1 << RXCIE0    /* RX Complete Interrupt Enable: enabled */
    1580:	88 e9       	ldi	r24, 0x98	; 152
    1582:	80 93 c1 00 	sts	0x00C1, r24	; 0x8000c1 <__TEXT_REGION_LENGTH__+0x7f00c1>
	//		 | (0 << UPM01) | (0 << UPM00) /* Disabled */
	//		 | 0 << USBS0 /* USART Stop Bit Select: disabled */
	//		 | (1 << UCSZ01) | (1 << UCSZ00); /* 8-bit */

	//Tambahkan pada fungsi USART_0_init
	stdout = &usart0_str;
    1586:	84 e0       	ldi	r24, 0x04	; 4
    1588:	91 e0       	ldi	r25, 0x01	; 1
    158a:	90 93 c6 05 	sts	0x05C6, r25	; 0x8005c6 <__iob+0x3>
    158e:	80 93 c5 05 	sts	0x05C5, r24	; 0x8005c5 <__iob+0x2>

	return 0;
}
    1592:	80 e0       	ldi	r24, 0x00	; 0
    1594:	08 95       	ret

00001596 <__subsf3>:
    1596:	50 58       	subi	r21, 0x80	; 128

00001598 <__addsf3>:
    1598:	bb 27       	eor	r27, r27
    159a:	aa 27       	eor	r26, r26
    159c:	0e 94 e3 0a 	call	0x15c6	; 0x15c6 <__addsf3x>
    15a0:	0c 94 4f 0b 	jmp	0x169e	; 0x169e <__fp_round>
    15a4:	0e 94 41 0b 	call	0x1682	; 0x1682 <__fp_pscA>
    15a8:	38 f0       	brcs	.+14     	; 0x15b8 <__addsf3+0x20>
    15aa:	0e 94 48 0b 	call	0x1690	; 0x1690 <__fp_pscB>
    15ae:	20 f0       	brcs	.+8      	; 0x15b8 <__addsf3+0x20>
    15b0:	39 f4       	brne	.+14     	; 0x15c0 <__addsf3+0x28>
    15b2:	9f 3f       	cpi	r25, 0xFF	; 255
    15b4:	19 f4       	brne	.+6      	; 0x15bc <__addsf3+0x24>
    15b6:	26 f4       	brtc	.+8      	; 0x15c0 <__addsf3+0x28>
    15b8:	0c 94 3e 0b 	jmp	0x167c	; 0x167c <__fp_nan>
    15bc:	0e f4       	brtc	.+2      	; 0x15c0 <__addsf3+0x28>
    15be:	e0 95       	com	r30
    15c0:	e7 fb       	bst	r30, 7
    15c2:	0c 94 38 0b 	jmp	0x1670	; 0x1670 <__fp_inf>

000015c6 <__addsf3x>:
    15c6:	e9 2f       	mov	r30, r25
    15c8:	0e 94 60 0b 	call	0x16c0	; 0x16c0 <__fp_split3>
    15cc:	58 f3       	brcs	.-42     	; 0x15a4 <__addsf3+0xc>
    15ce:	ba 17       	cp	r27, r26
    15d0:	62 07       	cpc	r22, r18
    15d2:	73 07       	cpc	r23, r19
    15d4:	84 07       	cpc	r24, r20
    15d6:	95 07       	cpc	r25, r21
    15d8:	20 f0       	brcs	.+8      	; 0x15e2 <__addsf3x+0x1c>
    15da:	79 f4       	brne	.+30     	; 0x15fa <__addsf3x+0x34>
    15dc:	a6 f5       	brtc	.+104    	; 0x1646 <__addsf3x+0x80>
    15de:	0c 94 82 0b 	jmp	0x1704	; 0x1704 <__fp_zero>
    15e2:	0e f4       	brtc	.+2      	; 0x15e6 <__addsf3x+0x20>
    15e4:	e0 95       	com	r30
    15e6:	0b 2e       	mov	r0, r27
    15e8:	ba 2f       	mov	r27, r26
    15ea:	a0 2d       	mov	r26, r0
    15ec:	0b 01       	movw	r0, r22
    15ee:	b9 01       	movw	r22, r18
    15f0:	90 01       	movw	r18, r0
    15f2:	0c 01       	movw	r0, r24
    15f4:	ca 01       	movw	r24, r20
    15f6:	a0 01       	movw	r20, r0
    15f8:	11 24       	eor	r1, r1
    15fa:	ff 27       	eor	r31, r31
    15fc:	59 1b       	sub	r21, r25
    15fe:	99 f0       	breq	.+38     	; 0x1626 <__addsf3x+0x60>
    1600:	59 3f       	cpi	r21, 0xF9	; 249
    1602:	50 f4       	brcc	.+20     	; 0x1618 <__addsf3x+0x52>
    1604:	50 3e       	cpi	r21, 0xE0	; 224
    1606:	68 f1       	brcs	.+90     	; 0x1662 <__addsf3x+0x9c>
    1608:	1a 16       	cp	r1, r26
    160a:	f0 40       	sbci	r31, 0x00	; 0
    160c:	a2 2f       	mov	r26, r18
    160e:	23 2f       	mov	r18, r19
    1610:	34 2f       	mov	r19, r20
    1612:	44 27       	eor	r20, r20
    1614:	58 5f       	subi	r21, 0xF8	; 248
    1616:	f3 cf       	rjmp	.-26     	; 0x15fe <__addsf3x+0x38>
    1618:	46 95       	lsr	r20
    161a:	37 95       	ror	r19
    161c:	27 95       	ror	r18
    161e:	a7 95       	ror	r26
    1620:	f0 40       	sbci	r31, 0x00	; 0
    1622:	53 95       	inc	r21
    1624:	c9 f7       	brne	.-14     	; 0x1618 <__addsf3x+0x52>
    1626:	7e f4       	brtc	.+30     	; 0x1646 <__addsf3x+0x80>
    1628:	1f 16       	cp	r1, r31
    162a:	ba 0b       	sbc	r27, r26
    162c:	62 0b       	sbc	r22, r18
    162e:	73 0b       	sbc	r23, r19
    1630:	84 0b       	sbc	r24, r20
    1632:	ba f0       	brmi	.+46     	; 0x1662 <__addsf3x+0x9c>
    1634:	91 50       	subi	r25, 0x01	; 1
    1636:	a1 f0       	breq	.+40     	; 0x1660 <__addsf3x+0x9a>
    1638:	ff 0f       	add	r31, r31
    163a:	bb 1f       	adc	r27, r27
    163c:	66 1f       	adc	r22, r22
    163e:	77 1f       	adc	r23, r23
    1640:	88 1f       	adc	r24, r24
    1642:	c2 f7       	brpl	.-16     	; 0x1634 <__addsf3x+0x6e>
    1644:	0e c0       	rjmp	.+28     	; 0x1662 <__addsf3x+0x9c>
    1646:	ba 0f       	add	r27, r26
    1648:	62 1f       	adc	r22, r18
    164a:	73 1f       	adc	r23, r19
    164c:	84 1f       	adc	r24, r20
    164e:	48 f4       	brcc	.+18     	; 0x1662 <__addsf3x+0x9c>
    1650:	87 95       	ror	r24
    1652:	77 95       	ror	r23
    1654:	67 95       	ror	r22
    1656:	b7 95       	ror	r27
    1658:	f7 95       	ror	r31
    165a:	9e 3f       	cpi	r25, 0xFE	; 254
    165c:	08 f0       	brcs	.+2      	; 0x1660 <__addsf3x+0x9a>
    165e:	b0 cf       	rjmp	.-160    	; 0x15c0 <__addsf3+0x28>
    1660:	93 95       	inc	r25
    1662:	88 0f       	add	r24, r24
    1664:	08 f0       	brcs	.+2      	; 0x1668 <__addsf3x+0xa2>
    1666:	99 27       	eor	r25, r25
    1668:	ee 0f       	add	r30, r30
    166a:	97 95       	ror	r25
    166c:	87 95       	ror	r24
    166e:	08 95       	ret

00001670 <__fp_inf>:
    1670:	97 f9       	bld	r25, 7
    1672:	9f 67       	ori	r25, 0x7F	; 127
    1674:	80 e8       	ldi	r24, 0x80	; 128
    1676:	70 e0       	ldi	r23, 0x00	; 0
    1678:	60 e0       	ldi	r22, 0x00	; 0
    167a:	08 95       	ret

0000167c <__fp_nan>:
    167c:	9f ef       	ldi	r25, 0xFF	; 255
    167e:	80 ec       	ldi	r24, 0xC0	; 192
    1680:	08 95       	ret

00001682 <__fp_pscA>:
    1682:	00 24       	eor	r0, r0
    1684:	0a 94       	dec	r0
    1686:	16 16       	cp	r1, r22
    1688:	17 06       	cpc	r1, r23
    168a:	18 06       	cpc	r1, r24
    168c:	09 06       	cpc	r0, r25
    168e:	08 95       	ret

00001690 <__fp_pscB>:
    1690:	00 24       	eor	r0, r0
    1692:	0a 94       	dec	r0
    1694:	12 16       	cp	r1, r18
    1696:	13 06       	cpc	r1, r19
    1698:	14 06       	cpc	r1, r20
    169a:	05 06       	cpc	r0, r21
    169c:	08 95       	ret

0000169e <__fp_round>:
    169e:	09 2e       	mov	r0, r25
    16a0:	03 94       	inc	r0
    16a2:	00 0c       	add	r0, r0
    16a4:	11 f4       	brne	.+4      	; 0x16aa <__fp_round+0xc>
    16a6:	88 23       	and	r24, r24
    16a8:	52 f0       	brmi	.+20     	; 0x16be <__fp_round+0x20>
    16aa:	bb 0f       	add	r27, r27
    16ac:	40 f4       	brcc	.+16     	; 0x16be <__fp_round+0x20>
    16ae:	bf 2b       	or	r27, r31
    16b0:	11 f4       	brne	.+4      	; 0x16b6 <__fp_round+0x18>
    16b2:	60 ff       	sbrs	r22, 0
    16b4:	04 c0       	rjmp	.+8      	; 0x16be <__fp_round+0x20>
    16b6:	6f 5f       	subi	r22, 0xFF	; 255
    16b8:	7f 4f       	sbci	r23, 0xFF	; 255
    16ba:	8f 4f       	sbci	r24, 0xFF	; 255
    16bc:	9f 4f       	sbci	r25, 0xFF	; 255
    16be:	08 95       	ret

000016c0 <__fp_split3>:
    16c0:	57 fd       	sbrc	r21, 7
    16c2:	90 58       	subi	r25, 0x80	; 128
    16c4:	44 0f       	add	r20, r20
    16c6:	55 1f       	adc	r21, r21
    16c8:	59 f0       	breq	.+22     	; 0x16e0 <__fp_splitA+0x10>
    16ca:	5f 3f       	cpi	r21, 0xFF	; 255
    16cc:	71 f0       	breq	.+28     	; 0x16ea <__fp_splitA+0x1a>
    16ce:	47 95       	ror	r20

000016d0 <__fp_splitA>:
    16d0:	88 0f       	add	r24, r24
    16d2:	97 fb       	bst	r25, 7
    16d4:	99 1f       	adc	r25, r25
    16d6:	61 f0       	breq	.+24     	; 0x16f0 <__fp_splitA+0x20>
    16d8:	9f 3f       	cpi	r25, 0xFF	; 255
    16da:	79 f0       	breq	.+30     	; 0x16fa <__fp_splitA+0x2a>
    16dc:	87 95       	ror	r24
    16de:	08 95       	ret
    16e0:	12 16       	cp	r1, r18
    16e2:	13 06       	cpc	r1, r19
    16e4:	14 06       	cpc	r1, r20
    16e6:	55 1f       	adc	r21, r21
    16e8:	f2 cf       	rjmp	.-28     	; 0x16ce <__fp_split3+0xe>
    16ea:	46 95       	lsr	r20
    16ec:	f1 df       	rcall	.-30     	; 0x16d0 <__fp_splitA>
    16ee:	08 c0       	rjmp	.+16     	; 0x1700 <__fp_splitA+0x30>
    16f0:	16 16       	cp	r1, r22
    16f2:	17 06       	cpc	r1, r23
    16f4:	18 06       	cpc	r1, r24
    16f6:	99 1f       	adc	r25, r25
    16f8:	f1 cf       	rjmp	.-30     	; 0x16dc <__fp_splitA+0xc>
    16fa:	86 95       	lsr	r24
    16fc:	71 05       	cpc	r23, r1
    16fe:	61 05       	cpc	r22, r1
    1700:	08 94       	sec
    1702:	08 95       	ret

00001704 <__fp_zero>:
    1704:	e8 94       	clt

00001706 <__fp_szero>:
    1706:	bb 27       	eor	r27, r27
    1708:	66 27       	eor	r22, r22
    170a:	77 27       	eor	r23, r23
    170c:	cb 01       	movw	r24, r22
    170e:	97 f9       	bld	r25, 7
    1710:	08 95       	ret

00001712 <vfprintf>:
    1712:	a0 e1       	ldi	r26, 0x10	; 16
    1714:	b0 e0       	ldi	r27, 0x00	; 0
    1716:	ef e8       	ldi	r30, 0x8F	; 143
    1718:	fb e0       	ldi	r31, 0x0B	; 11
    171a:	0c 94 1a 0f 	jmp	0x1e34	; 0x1e34 <__prologue_saves__>
    171e:	7c 01       	movw	r14, r24
    1720:	1b 01       	movw	r2, r22
    1722:	6a 01       	movw	r12, r20
    1724:	fc 01       	movw	r30, r24
    1726:	17 82       	std	Z+7, r1	; 0x07
    1728:	16 82       	std	Z+6, r1	; 0x06
    172a:	83 81       	ldd	r24, Z+3	; 0x03
    172c:	81 ff       	sbrs	r24, 1
    172e:	44 c3       	rjmp	.+1672   	; 0x1db8 <vfprintf+0x6a6>
    1730:	9e 01       	movw	r18, r28
    1732:	2f 5f       	subi	r18, 0xFF	; 255
    1734:	3f 4f       	sbci	r19, 0xFF	; 255
    1736:	39 01       	movw	r6, r18
    1738:	f7 01       	movw	r30, r14
    173a:	93 81       	ldd	r25, Z+3	; 0x03
    173c:	f1 01       	movw	r30, r2
    173e:	93 fd       	sbrc	r25, 3
    1740:	85 91       	lpm	r24, Z+
    1742:	93 ff       	sbrs	r25, 3
    1744:	81 91       	ld	r24, Z+
    1746:	1f 01       	movw	r2, r30
    1748:	88 23       	and	r24, r24
    174a:	09 f4       	brne	.+2      	; 0x174e <vfprintf+0x3c>
    174c:	31 c3       	rjmp	.+1634   	; 0x1db0 <vfprintf+0x69e>
    174e:	85 32       	cpi	r24, 0x25	; 37
    1750:	39 f4       	brne	.+14     	; 0x1760 <vfprintf+0x4e>
    1752:	93 fd       	sbrc	r25, 3
    1754:	85 91       	lpm	r24, Z+
    1756:	93 ff       	sbrs	r25, 3
    1758:	81 91       	ld	r24, Z+
    175a:	1f 01       	movw	r2, r30
    175c:	85 32       	cpi	r24, 0x25	; 37
    175e:	39 f4       	brne	.+14     	; 0x176e <vfprintf+0x5c>
    1760:	b7 01       	movw	r22, r14
    1762:	90 e0       	ldi	r25, 0x00	; 0
    1764:	0e 94 53 10 	call	0x20a6	; 0x20a6 <fputc>
    1768:	56 01       	movw	r10, r12
    176a:	65 01       	movw	r12, r10
    176c:	e5 cf       	rjmp	.-54     	; 0x1738 <vfprintf+0x26>
    176e:	10 e0       	ldi	r17, 0x00	; 0
    1770:	51 2c       	mov	r5, r1
    1772:	91 2c       	mov	r9, r1
    1774:	ff e1       	ldi	r31, 0x1F	; 31
    1776:	f9 15       	cp	r31, r9
    1778:	d8 f0       	brcs	.+54     	; 0x17b0 <vfprintf+0x9e>
    177a:	8b 32       	cpi	r24, 0x2B	; 43
    177c:	79 f0       	breq	.+30     	; 0x179c <vfprintf+0x8a>
    177e:	38 f4       	brcc	.+14     	; 0x178e <vfprintf+0x7c>
    1780:	80 32       	cpi	r24, 0x20	; 32
    1782:	79 f0       	breq	.+30     	; 0x17a2 <vfprintf+0x90>
    1784:	83 32       	cpi	r24, 0x23	; 35
    1786:	a1 f4       	brne	.+40     	; 0x17b0 <vfprintf+0x9e>
    1788:	f9 2d       	mov	r31, r9
    178a:	f0 61       	ori	r31, 0x10	; 16
    178c:	2e c0       	rjmp	.+92     	; 0x17ea <vfprintf+0xd8>
    178e:	8d 32       	cpi	r24, 0x2D	; 45
    1790:	61 f0       	breq	.+24     	; 0x17aa <vfprintf+0x98>
    1792:	80 33       	cpi	r24, 0x30	; 48
    1794:	69 f4       	brne	.+26     	; 0x17b0 <vfprintf+0x9e>
    1796:	29 2d       	mov	r18, r9
    1798:	21 60       	ori	r18, 0x01	; 1
    179a:	2d c0       	rjmp	.+90     	; 0x17f6 <vfprintf+0xe4>
    179c:	39 2d       	mov	r19, r9
    179e:	32 60       	ori	r19, 0x02	; 2
    17a0:	93 2e       	mov	r9, r19
    17a2:	89 2d       	mov	r24, r9
    17a4:	84 60       	ori	r24, 0x04	; 4
    17a6:	98 2e       	mov	r9, r24
    17a8:	2a c0       	rjmp	.+84     	; 0x17fe <vfprintf+0xec>
    17aa:	e9 2d       	mov	r30, r9
    17ac:	e8 60       	ori	r30, 0x08	; 8
    17ae:	15 c0       	rjmp	.+42     	; 0x17da <vfprintf+0xc8>
    17b0:	97 fc       	sbrc	r9, 7
    17b2:	2d c0       	rjmp	.+90     	; 0x180e <vfprintf+0xfc>
    17b4:	20 ed       	ldi	r18, 0xD0	; 208
    17b6:	28 0f       	add	r18, r24
    17b8:	2a 30       	cpi	r18, 0x0A	; 10
    17ba:	88 f4       	brcc	.+34     	; 0x17de <vfprintf+0xcc>
    17bc:	96 fe       	sbrs	r9, 6
    17be:	06 c0       	rjmp	.+12     	; 0x17cc <vfprintf+0xba>
    17c0:	3a e0       	ldi	r19, 0x0A	; 10
    17c2:	13 9f       	mul	r17, r19
    17c4:	20 0d       	add	r18, r0
    17c6:	11 24       	eor	r1, r1
    17c8:	12 2f       	mov	r17, r18
    17ca:	19 c0       	rjmp	.+50     	; 0x17fe <vfprintf+0xec>
    17cc:	8a e0       	ldi	r24, 0x0A	; 10
    17ce:	58 9e       	mul	r5, r24
    17d0:	20 0d       	add	r18, r0
    17d2:	11 24       	eor	r1, r1
    17d4:	52 2e       	mov	r5, r18
    17d6:	e9 2d       	mov	r30, r9
    17d8:	e0 62       	ori	r30, 0x20	; 32
    17da:	9e 2e       	mov	r9, r30
    17dc:	10 c0       	rjmp	.+32     	; 0x17fe <vfprintf+0xec>
    17de:	8e 32       	cpi	r24, 0x2E	; 46
    17e0:	31 f4       	brne	.+12     	; 0x17ee <vfprintf+0xdc>
    17e2:	96 fc       	sbrc	r9, 6
    17e4:	e5 c2       	rjmp	.+1482   	; 0x1db0 <vfprintf+0x69e>
    17e6:	f9 2d       	mov	r31, r9
    17e8:	f0 64       	ori	r31, 0x40	; 64
    17ea:	9f 2e       	mov	r9, r31
    17ec:	08 c0       	rjmp	.+16     	; 0x17fe <vfprintf+0xec>
    17ee:	8c 36       	cpi	r24, 0x6C	; 108
    17f0:	21 f4       	brne	.+8      	; 0x17fa <vfprintf+0xe8>
    17f2:	29 2d       	mov	r18, r9
    17f4:	20 68       	ori	r18, 0x80	; 128
    17f6:	92 2e       	mov	r9, r18
    17f8:	02 c0       	rjmp	.+4      	; 0x17fe <vfprintf+0xec>
    17fa:	88 36       	cpi	r24, 0x68	; 104
    17fc:	41 f4       	brne	.+16     	; 0x180e <vfprintf+0xfc>
    17fe:	f1 01       	movw	r30, r2
    1800:	93 fd       	sbrc	r25, 3
    1802:	85 91       	lpm	r24, Z+
    1804:	93 ff       	sbrs	r25, 3
    1806:	81 91       	ld	r24, Z+
    1808:	1f 01       	movw	r2, r30
    180a:	81 11       	cpse	r24, r1
    180c:	b3 cf       	rjmp	.-154    	; 0x1774 <vfprintf+0x62>
    180e:	9b eb       	ldi	r25, 0xBB	; 187
    1810:	98 0f       	add	r25, r24
    1812:	93 30       	cpi	r25, 0x03	; 3
    1814:	20 f4       	brcc	.+8      	; 0x181e <vfprintf+0x10c>
    1816:	99 2d       	mov	r25, r9
    1818:	90 61       	ori	r25, 0x10	; 16
    181a:	80 5e       	subi	r24, 0xE0	; 224
    181c:	07 c0       	rjmp	.+14     	; 0x182c <vfprintf+0x11a>
    181e:	9b e9       	ldi	r25, 0x9B	; 155
    1820:	98 0f       	add	r25, r24
    1822:	93 30       	cpi	r25, 0x03	; 3
    1824:	08 f0       	brcs	.+2      	; 0x1828 <vfprintf+0x116>
    1826:	66 c1       	rjmp	.+716    	; 0x1af4 <vfprintf+0x3e2>
    1828:	99 2d       	mov	r25, r9
    182a:	9f 7e       	andi	r25, 0xEF	; 239
    182c:	96 ff       	sbrs	r25, 6
    182e:	16 e0       	ldi	r17, 0x06	; 6
    1830:	9f 73       	andi	r25, 0x3F	; 63
    1832:	99 2e       	mov	r9, r25
    1834:	85 36       	cpi	r24, 0x65	; 101
    1836:	19 f4       	brne	.+6      	; 0x183e <vfprintf+0x12c>
    1838:	90 64       	ori	r25, 0x40	; 64
    183a:	99 2e       	mov	r9, r25
    183c:	08 c0       	rjmp	.+16     	; 0x184e <vfprintf+0x13c>
    183e:	86 36       	cpi	r24, 0x66	; 102
    1840:	21 f4       	brne	.+8      	; 0x184a <vfprintf+0x138>
    1842:	39 2f       	mov	r19, r25
    1844:	30 68       	ori	r19, 0x80	; 128
    1846:	93 2e       	mov	r9, r19
    1848:	02 c0       	rjmp	.+4      	; 0x184e <vfprintf+0x13c>
    184a:	11 11       	cpse	r17, r1
    184c:	11 50       	subi	r17, 0x01	; 1
    184e:	97 fe       	sbrs	r9, 7
    1850:	07 c0       	rjmp	.+14     	; 0x1860 <vfprintf+0x14e>
    1852:	1c 33       	cpi	r17, 0x3C	; 60
    1854:	50 f4       	brcc	.+20     	; 0x186a <vfprintf+0x158>
    1856:	44 24       	eor	r4, r4
    1858:	43 94       	inc	r4
    185a:	41 0e       	add	r4, r17
    185c:	27 e0       	ldi	r18, 0x07	; 7
    185e:	0b c0       	rjmp	.+22     	; 0x1876 <vfprintf+0x164>
    1860:	18 30       	cpi	r17, 0x08	; 8
    1862:	38 f0       	brcs	.+14     	; 0x1872 <vfprintf+0x160>
    1864:	27 e0       	ldi	r18, 0x07	; 7
    1866:	17 e0       	ldi	r17, 0x07	; 7
    1868:	05 c0       	rjmp	.+10     	; 0x1874 <vfprintf+0x162>
    186a:	27 e0       	ldi	r18, 0x07	; 7
    186c:	9c e3       	ldi	r25, 0x3C	; 60
    186e:	49 2e       	mov	r4, r25
    1870:	02 c0       	rjmp	.+4      	; 0x1876 <vfprintf+0x164>
    1872:	21 2f       	mov	r18, r17
    1874:	41 2c       	mov	r4, r1
    1876:	56 01       	movw	r10, r12
    1878:	84 e0       	ldi	r24, 0x04	; 4
    187a:	a8 0e       	add	r10, r24
    187c:	b1 1c       	adc	r11, r1
    187e:	f6 01       	movw	r30, r12
    1880:	60 81       	ld	r22, Z
    1882:	71 81       	ldd	r23, Z+1	; 0x01
    1884:	82 81       	ldd	r24, Z+2	; 0x02
    1886:	93 81       	ldd	r25, Z+3	; 0x03
    1888:	04 2d       	mov	r16, r4
    188a:	a3 01       	movw	r20, r6
    188c:	0e 94 65 0f 	call	0x1eca	; 0x1eca <__ftoa_engine>
    1890:	6c 01       	movw	r12, r24
    1892:	f9 81       	ldd	r31, Y+1	; 0x01
    1894:	fc 87       	std	Y+12, r31	; 0x0c
    1896:	f0 ff       	sbrs	r31, 0
    1898:	02 c0       	rjmp	.+4      	; 0x189e <vfprintf+0x18c>
    189a:	f3 ff       	sbrs	r31, 3
    189c:	06 c0       	rjmp	.+12     	; 0x18aa <vfprintf+0x198>
    189e:	91 fc       	sbrc	r9, 1
    18a0:	06 c0       	rjmp	.+12     	; 0x18ae <vfprintf+0x19c>
    18a2:	92 fe       	sbrs	r9, 2
    18a4:	06 c0       	rjmp	.+12     	; 0x18b2 <vfprintf+0x1a0>
    18a6:	00 e2       	ldi	r16, 0x20	; 32
    18a8:	05 c0       	rjmp	.+10     	; 0x18b4 <vfprintf+0x1a2>
    18aa:	0d e2       	ldi	r16, 0x2D	; 45
    18ac:	03 c0       	rjmp	.+6      	; 0x18b4 <vfprintf+0x1a2>
    18ae:	0b e2       	ldi	r16, 0x2B	; 43
    18b0:	01 c0       	rjmp	.+2      	; 0x18b4 <vfprintf+0x1a2>
    18b2:	00 e0       	ldi	r16, 0x00	; 0
    18b4:	8c 85       	ldd	r24, Y+12	; 0x0c
    18b6:	8c 70       	andi	r24, 0x0C	; 12
    18b8:	19 f0       	breq	.+6      	; 0x18c0 <vfprintf+0x1ae>
    18ba:	01 11       	cpse	r16, r1
    18bc:	5a c2       	rjmp	.+1204   	; 0x1d72 <vfprintf+0x660>
    18be:	9b c2       	rjmp	.+1334   	; 0x1df6 <vfprintf+0x6e4>
    18c0:	97 fe       	sbrs	r9, 7
    18c2:	10 c0       	rjmp	.+32     	; 0x18e4 <vfprintf+0x1d2>
    18c4:	4c 0c       	add	r4, r12
    18c6:	fc 85       	ldd	r31, Y+12	; 0x0c
    18c8:	f4 ff       	sbrs	r31, 4
    18ca:	04 c0       	rjmp	.+8      	; 0x18d4 <vfprintf+0x1c2>
    18cc:	8a 81       	ldd	r24, Y+2	; 0x02
    18ce:	81 33       	cpi	r24, 0x31	; 49
    18d0:	09 f4       	brne	.+2      	; 0x18d4 <vfprintf+0x1c2>
    18d2:	4a 94       	dec	r4
    18d4:	14 14       	cp	r1, r4
    18d6:	74 f5       	brge	.+92     	; 0x1934 <vfprintf+0x222>
    18d8:	28 e0       	ldi	r18, 0x08	; 8
    18da:	24 15       	cp	r18, r4
    18dc:	78 f5       	brcc	.+94     	; 0x193c <vfprintf+0x22a>
    18de:	88 e0       	ldi	r24, 0x08	; 8
    18e0:	48 2e       	mov	r4, r24
    18e2:	2c c0       	rjmp	.+88     	; 0x193c <vfprintf+0x22a>
    18e4:	96 fc       	sbrc	r9, 6
    18e6:	2a c0       	rjmp	.+84     	; 0x193c <vfprintf+0x22a>
    18e8:	81 2f       	mov	r24, r17
    18ea:	90 e0       	ldi	r25, 0x00	; 0
    18ec:	8c 15       	cp	r24, r12
    18ee:	9d 05       	cpc	r25, r13
    18f0:	9c f0       	brlt	.+38     	; 0x1918 <vfprintf+0x206>
    18f2:	3c ef       	ldi	r19, 0xFC	; 252
    18f4:	c3 16       	cp	r12, r19
    18f6:	3f ef       	ldi	r19, 0xFF	; 255
    18f8:	d3 06       	cpc	r13, r19
    18fa:	74 f0       	brlt	.+28     	; 0x1918 <vfprintf+0x206>
    18fc:	89 2d       	mov	r24, r9
    18fe:	80 68       	ori	r24, 0x80	; 128
    1900:	98 2e       	mov	r9, r24
    1902:	0a c0       	rjmp	.+20     	; 0x1918 <vfprintf+0x206>
    1904:	e2 e0       	ldi	r30, 0x02	; 2
    1906:	f0 e0       	ldi	r31, 0x00	; 0
    1908:	ec 0f       	add	r30, r28
    190a:	fd 1f       	adc	r31, r29
    190c:	e1 0f       	add	r30, r17
    190e:	f1 1d       	adc	r31, r1
    1910:	80 81       	ld	r24, Z
    1912:	80 33       	cpi	r24, 0x30	; 48
    1914:	19 f4       	brne	.+6      	; 0x191c <vfprintf+0x20a>
    1916:	11 50       	subi	r17, 0x01	; 1
    1918:	11 11       	cpse	r17, r1
    191a:	f4 cf       	rjmp	.-24     	; 0x1904 <vfprintf+0x1f2>
    191c:	97 fe       	sbrs	r9, 7
    191e:	0e c0       	rjmp	.+28     	; 0x193c <vfprintf+0x22a>
    1920:	44 24       	eor	r4, r4
    1922:	43 94       	inc	r4
    1924:	41 0e       	add	r4, r17
    1926:	81 2f       	mov	r24, r17
    1928:	90 e0       	ldi	r25, 0x00	; 0
    192a:	c8 16       	cp	r12, r24
    192c:	d9 06       	cpc	r13, r25
    192e:	2c f4       	brge	.+10     	; 0x193a <vfprintf+0x228>
    1930:	1c 19       	sub	r17, r12
    1932:	04 c0       	rjmp	.+8      	; 0x193c <vfprintf+0x22a>
    1934:	44 24       	eor	r4, r4
    1936:	43 94       	inc	r4
    1938:	01 c0       	rjmp	.+2      	; 0x193c <vfprintf+0x22a>
    193a:	10 e0       	ldi	r17, 0x00	; 0
    193c:	97 fe       	sbrs	r9, 7
    193e:	06 c0       	rjmp	.+12     	; 0x194c <vfprintf+0x23a>
    1940:	1c 14       	cp	r1, r12
    1942:	1d 04       	cpc	r1, r13
    1944:	34 f4       	brge	.+12     	; 0x1952 <vfprintf+0x240>
    1946:	c6 01       	movw	r24, r12
    1948:	01 96       	adiw	r24, 0x01	; 1
    194a:	05 c0       	rjmp	.+10     	; 0x1956 <vfprintf+0x244>
    194c:	85 e0       	ldi	r24, 0x05	; 5
    194e:	90 e0       	ldi	r25, 0x00	; 0
    1950:	02 c0       	rjmp	.+4      	; 0x1956 <vfprintf+0x244>
    1952:	81 e0       	ldi	r24, 0x01	; 1
    1954:	90 e0       	ldi	r25, 0x00	; 0
    1956:	01 11       	cpse	r16, r1
    1958:	01 96       	adiw	r24, 0x01	; 1
    195a:	11 23       	and	r17, r17
    195c:	31 f0       	breq	.+12     	; 0x196a <vfprintf+0x258>
    195e:	21 2f       	mov	r18, r17
    1960:	30 e0       	ldi	r19, 0x00	; 0
    1962:	2f 5f       	subi	r18, 0xFF	; 255
    1964:	3f 4f       	sbci	r19, 0xFF	; 255
    1966:	82 0f       	add	r24, r18
    1968:	93 1f       	adc	r25, r19
    196a:	25 2d       	mov	r18, r5
    196c:	30 e0       	ldi	r19, 0x00	; 0
    196e:	82 17       	cp	r24, r18
    1970:	93 07       	cpc	r25, r19
    1972:	14 f4       	brge	.+4      	; 0x1978 <vfprintf+0x266>
    1974:	58 1a       	sub	r5, r24
    1976:	01 c0       	rjmp	.+2      	; 0x197a <vfprintf+0x268>
    1978:	51 2c       	mov	r5, r1
    197a:	89 2d       	mov	r24, r9
    197c:	89 70       	andi	r24, 0x09	; 9
    197e:	49 f4       	brne	.+18     	; 0x1992 <vfprintf+0x280>
    1980:	55 20       	and	r5, r5
    1982:	39 f0       	breq	.+14     	; 0x1992 <vfprintf+0x280>
    1984:	b7 01       	movw	r22, r14
    1986:	80 e2       	ldi	r24, 0x20	; 32
    1988:	90 e0       	ldi	r25, 0x00	; 0
    198a:	0e 94 53 10 	call	0x20a6	; 0x20a6 <fputc>
    198e:	5a 94       	dec	r5
    1990:	f7 cf       	rjmp	.-18     	; 0x1980 <vfprintf+0x26e>
    1992:	00 23       	and	r16, r16
    1994:	29 f0       	breq	.+10     	; 0x19a0 <vfprintf+0x28e>
    1996:	b7 01       	movw	r22, r14
    1998:	80 2f       	mov	r24, r16
    199a:	90 e0       	ldi	r25, 0x00	; 0
    199c:	0e 94 53 10 	call	0x20a6	; 0x20a6 <fputc>
    19a0:	93 fc       	sbrc	r9, 3
    19a2:	09 c0       	rjmp	.+18     	; 0x19b6 <vfprintf+0x2a4>
    19a4:	55 20       	and	r5, r5
    19a6:	39 f0       	breq	.+14     	; 0x19b6 <vfprintf+0x2a4>
    19a8:	b7 01       	movw	r22, r14
    19aa:	80 e3       	ldi	r24, 0x30	; 48
    19ac:	90 e0       	ldi	r25, 0x00	; 0
    19ae:	0e 94 53 10 	call	0x20a6	; 0x20a6 <fputc>
    19b2:	5a 94       	dec	r5
    19b4:	f7 cf       	rjmp	.-18     	; 0x19a4 <vfprintf+0x292>
    19b6:	97 fe       	sbrs	r9, 7
    19b8:	4c c0       	rjmp	.+152    	; 0x1a52 <vfprintf+0x340>
    19ba:	46 01       	movw	r8, r12
    19bc:	d7 fe       	sbrs	r13, 7
    19be:	02 c0       	rjmp	.+4      	; 0x19c4 <vfprintf+0x2b2>
    19c0:	81 2c       	mov	r8, r1
    19c2:	91 2c       	mov	r9, r1
    19c4:	c6 01       	movw	r24, r12
    19c6:	88 19       	sub	r24, r8
    19c8:	99 09       	sbc	r25, r9
    19ca:	f3 01       	movw	r30, r6
    19cc:	e8 0f       	add	r30, r24
    19ce:	f9 1f       	adc	r31, r25
    19d0:	fe 87       	std	Y+14, r31	; 0x0e
    19d2:	ed 87       	std	Y+13, r30	; 0x0d
    19d4:	96 01       	movw	r18, r12
    19d6:	24 19       	sub	r18, r4
    19d8:	31 09       	sbc	r19, r1
    19da:	38 8b       	std	Y+16, r19	; 0x10
    19dc:	2f 87       	std	Y+15, r18	; 0x0f
    19de:	01 2f       	mov	r16, r17
    19e0:	10 e0       	ldi	r17, 0x00	; 0
    19e2:	11 95       	neg	r17
    19e4:	01 95       	neg	r16
    19e6:	11 09       	sbc	r17, r1
    19e8:	3f ef       	ldi	r19, 0xFF	; 255
    19ea:	83 16       	cp	r8, r19
    19ec:	93 06       	cpc	r9, r19
    19ee:	29 f4       	brne	.+10     	; 0x19fa <vfprintf+0x2e8>
    19f0:	b7 01       	movw	r22, r14
    19f2:	8e e2       	ldi	r24, 0x2E	; 46
    19f4:	90 e0       	ldi	r25, 0x00	; 0
    19f6:	0e 94 53 10 	call	0x20a6	; 0x20a6 <fputc>
    19fa:	c8 14       	cp	r12, r8
    19fc:	d9 04       	cpc	r13, r9
    19fe:	4c f0       	brlt	.+18     	; 0x1a12 <vfprintf+0x300>
    1a00:	8f 85       	ldd	r24, Y+15	; 0x0f
    1a02:	98 89       	ldd	r25, Y+16	; 0x10
    1a04:	88 15       	cp	r24, r8
    1a06:	99 05       	cpc	r25, r9
    1a08:	24 f4       	brge	.+8      	; 0x1a12 <vfprintf+0x300>
    1a0a:	ed 85       	ldd	r30, Y+13	; 0x0d
    1a0c:	fe 85       	ldd	r31, Y+14	; 0x0e
    1a0e:	81 81       	ldd	r24, Z+1	; 0x01
    1a10:	01 c0       	rjmp	.+2      	; 0x1a14 <vfprintf+0x302>
    1a12:	80 e3       	ldi	r24, 0x30	; 48
    1a14:	f1 e0       	ldi	r31, 0x01	; 1
    1a16:	8f 1a       	sub	r8, r31
    1a18:	91 08       	sbc	r9, r1
    1a1a:	2d 85       	ldd	r18, Y+13	; 0x0d
    1a1c:	3e 85       	ldd	r19, Y+14	; 0x0e
    1a1e:	2f 5f       	subi	r18, 0xFF	; 255
    1a20:	3f 4f       	sbci	r19, 0xFF	; 255
    1a22:	3e 87       	std	Y+14, r19	; 0x0e
    1a24:	2d 87       	std	Y+13, r18	; 0x0d
    1a26:	80 16       	cp	r8, r16
    1a28:	91 06       	cpc	r9, r17
    1a2a:	2c f0       	brlt	.+10     	; 0x1a36 <vfprintf+0x324>
    1a2c:	b7 01       	movw	r22, r14
    1a2e:	90 e0       	ldi	r25, 0x00	; 0
    1a30:	0e 94 53 10 	call	0x20a6	; 0x20a6 <fputc>
    1a34:	d9 cf       	rjmp	.-78     	; 0x19e8 <vfprintf+0x2d6>
    1a36:	c8 14       	cp	r12, r8
    1a38:	d9 04       	cpc	r13, r9
    1a3a:	41 f4       	brne	.+16     	; 0x1a4c <vfprintf+0x33a>
    1a3c:	9a 81       	ldd	r25, Y+2	; 0x02
    1a3e:	96 33       	cpi	r25, 0x36	; 54
    1a40:	20 f4       	brcc	.+8      	; 0x1a4a <vfprintf+0x338>
    1a42:	95 33       	cpi	r25, 0x35	; 53
    1a44:	19 f4       	brne	.+6      	; 0x1a4c <vfprintf+0x33a>
    1a46:	3c 85       	ldd	r19, Y+12	; 0x0c
    1a48:	34 ff       	sbrs	r19, 4
    1a4a:	81 e3       	ldi	r24, 0x31	; 49
    1a4c:	b7 01       	movw	r22, r14
    1a4e:	90 e0       	ldi	r25, 0x00	; 0
    1a50:	4e c0       	rjmp	.+156    	; 0x1aee <vfprintf+0x3dc>
    1a52:	8a 81       	ldd	r24, Y+2	; 0x02
    1a54:	81 33       	cpi	r24, 0x31	; 49
    1a56:	19 f0       	breq	.+6      	; 0x1a5e <vfprintf+0x34c>
    1a58:	9c 85       	ldd	r25, Y+12	; 0x0c
    1a5a:	9f 7e       	andi	r25, 0xEF	; 239
    1a5c:	9c 87       	std	Y+12, r25	; 0x0c
    1a5e:	b7 01       	movw	r22, r14
    1a60:	90 e0       	ldi	r25, 0x00	; 0
    1a62:	0e 94 53 10 	call	0x20a6	; 0x20a6 <fputc>
    1a66:	11 11       	cpse	r17, r1
    1a68:	05 c0       	rjmp	.+10     	; 0x1a74 <vfprintf+0x362>
    1a6a:	94 fc       	sbrc	r9, 4
    1a6c:	18 c0       	rjmp	.+48     	; 0x1a9e <vfprintf+0x38c>
    1a6e:	85 e6       	ldi	r24, 0x65	; 101
    1a70:	90 e0       	ldi	r25, 0x00	; 0
    1a72:	17 c0       	rjmp	.+46     	; 0x1aa2 <vfprintf+0x390>
    1a74:	b7 01       	movw	r22, r14
    1a76:	8e e2       	ldi	r24, 0x2E	; 46
    1a78:	90 e0       	ldi	r25, 0x00	; 0
    1a7a:	0e 94 53 10 	call	0x20a6	; 0x20a6 <fputc>
    1a7e:	1e 5f       	subi	r17, 0xFE	; 254
    1a80:	82 e0       	ldi	r24, 0x02	; 2
    1a82:	01 e0       	ldi	r16, 0x01	; 1
    1a84:	08 0f       	add	r16, r24
    1a86:	f3 01       	movw	r30, r6
    1a88:	e8 0f       	add	r30, r24
    1a8a:	f1 1d       	adc	r31, r1
    1a8c:	80 81       	ld	r24, Z
    1a8e:	b7 01       	movw	r22, r14
    1a90:	90 e0       	ldi	r25, 0x00	; 0
    1a92:	0e 94 53 10 	call	0x20a6	; 0x20a6 <fputc>
    1a96:	80 2f       	mov	r24, r16
    1a98:	01 13       	cpse	r16, r17
    1a9a:	f3 cf       	rjmp	.-26     	; 0x1a82 <vfprintf+0x370>
    1a9c:	e6 cf       	rjmp	.-52     	; 0x1a6a <vfprintf+0x358>
    1a9e:	85 e4       	ldi	r24, 0x45	; 69
    1aa0:	90 e0       	ldi	r25, 0x00	; 0
    1aa2:	b7 01       	movw	r22, r14
    1aa4:	0e 94 53 10 	call	0x20a6	; 0x20a6 <fputc>
    1aa8:	d7 fc       	sbrc	r13, 7
    1aaa:	06 c0       	rjmp	.+12     	; 0x1ab8 <vfprintf+0x3a6>
    1aac:	c1 14       	cp	r12, r1
    1aae:	d1 04       	cpc	r13, r1
    1ab0:	41 f4       	brne	.+16     	; 0x1ac2 <vfprintf+0x3b0>
    1ab2:	ec 85       	ldd	r30, Y+12	; 0x0c
    1ab4:	e4 ff       	sbrs	r30, 4
    1ab6:	05 c0       	rjmp	.+10     	; 0x1ac2 <vfprintf+0x3b0>
    1ab8:	d1 94       	neg	r13
    1aba:	c1 94       	neg	r12
    1abc:	d1 08       	sbc	r13, r1
    1abe:	8d e2       	ldi	r24, 0x2D	; 45
    1ac0:	01 c0       	rjmp	.+2      	; 0x1ac4 <vfprintf+0x3b2>
    1ac2:	8b e2       	ldi	r24, 0x2B	; 43
    1ac4:	b7 01       	movw	r22, r14
    1ac6:	90 e0       	ldi	r25, 0x00	; 0
    1ac8:	0e 94 53 10 	call	0x20a6	; 0x20a6 <fputc>
    1acc:	80 e3       	ldi	r24, 0x30	; 48
    1ace:	2a e0       	ldi	r18, 0x0A	; 10
    1ad0:	c2 16       	cp	r12, r18
    1ad2:	d1 04       	cpc	r13, r1
    1ad4:	2c f0       	brlt	.+10     	; 0x1ae0 <vfprintf+0x3ce>
    1ad6:	8f 5f       	subi	r24, 0xFF	; 255
    1ad8:	fa e0       	ldi	r31, 0x0A	; 10
    1ada:	cf 1a       	sub	r12, r31
    1adc:	d1 08       	sbc	r13, r1
    1ade:	f7 cf       	rjmp	.-18     	; 0x1ace <vfprintf+0x3bc>
    1ae0:	b7 01       	movw	r22, r14
    1ae2:	90 e0       	ldi	r25, 0x00	; 0
    1ae4:	0e 94 53 10 	call	0x20a6	; 0x20a6 <fputc>
    1ae8:	b7 01       	movw	r22, r14
    1aea:	c6 01       	movw	r24, r12
    1aec:	c0 96       	adiw	r24, 0x30	; 48
    1aee:	0e 94 53 10 	call	0x20a6	; 0x20a6 <fputc>
    1af2:	54 c1       	rjmp	.+680    	; 0x1d9c <vfprintf+0x68a>
    1af4:	83 36       	cpi	r24, 0x63	; 99
    1af6:	31 f0       	breq	.+12     	; 0x1b04 <vfprintf+0x3f2>
    1af8:	83 37       	cpi	r24, 0x73	; 115
    1afa:	79 f0       	breq	.+30     	; 0x1b1a <vfprintf+0x408>
    1afc:	83 35       	cpi	r24, 0x53	; 83
    1afe:	09 f0       	breq	.+2      	; 0x1b02 <vfprintf+0x3f0>
    1b00:	56 c0       	rjmp	.+172    	; 0x1bae <vfprintf+0x49c>
    1b02:	20 c0       	rjmp	.+64     	; 0x1b44 <vfprintf+0x432>
    1b04:	56 01       	movw	r10, r12
    1b06:	32 e0       	ldi	r19, 0x02	; 2
    1b08:	a3 0e       	add	r10, r19
    1b0a:	b1 1c       	adc	r11, r1
    1b0c:	f6 01       	movw	r30, r12
    1b0e:	80 81       	ld	r24, Z
    1b10:	89 83       	std	Y+1, r24	; 0x01
    1b12:	01 e0       	ldi	r16, 0x01	; 1
    1b14:	10 e0       	ldi	r17, 0x00	; 0
    1b16:	63 01       	movw	r12, r6
    1b18:	12 c0       	rjmp	.+36     	; 0x1b3e <vfprintf+0x42c>
    1b1a:	56 01       	movw	r10, r12
    1b1c:	f2 e0       	ldi	r31, 0x02	; 2
    1b1e:	af 0e       	add	r10, r31
    1b20:	b1 1c       	adc	r11, r1
    1b22:	f6 01       	movw	r30, r12
    1b24:	c0 80       	ld	r12, Z
    1b26:	d1 80       	ldd	r13, Z+1	; 0x01
    1b28:	96 fe       	sbrs	r9, 6
    1b2a:	03 c0       	rjmp	.+6      	; 0x1b32 <vfprintf+0x420>
    1b2c:	61 2f       	mov	r22, r17
    1b2e:	70 e0       	ldi	r23, 0x00	; 0
    1b30:	02 c0       	rjmp	.+4      	; 0x1b36 <vfprintf+0x424>
    1b32:	6f ef       	ldi	r22, 0xFF	; 255
    1b34:	7f ef       	ldi	r23, 0xFF	; 255
    1b36:	c6 01       	movw	r24, r12
    1b38:	0e 94 48 10 	call	0x2090	; 0x2090 <strnlen>
    1b3c:	8c 01       	movw	r16, r24
    1b3e:	f9 2d       	mov	r31, r9
    1b40:	ff 77       	andi	r31, 0x7F	; 127
    1b42:	14 c0       	rjmp	.+40     	; 0x1b6c <vfprintf+0x45a>
    1b44:	56 01       	movw	r10, r12
    1b46:	22 e0       	ldi	r18, 0x02	; 2
    1b48:	a2 0e       	add	r10, r18
    1b4a:	b1 1c       	adc	r11, r1
    1b4c:	f6 01       	movw	r30, r12
    1b4e:	c0 80       	ld	r12, Z
    1b50:	d1 80       	ldd	r13, Z+1	; 0x01
    1b52:	96 fe       	sbrs	r9, 6
    1b54:	03 c0       	rjmp	.+6      	; 0x1b5c <vfprintf+0x44a>
    1b56:	61 2f       	mov	r22, r17
    1b58:	70 e0       	ldi	r23, 0x00	; 0
    1b5a:	02 c0       	rjmp	.+4      	; 0x1b60 <vfprintf+0x44e>
    1b5c:	6f ef       	ldi	r22, 0xFF	; 255
    1b5e:	7f ef       	ldi	r23, 0xFF	; 255
    1b60:	c6 01       	movw	r24, r12
    1b62:	0e 94 3d 10 	call	0x207a	; 0x207a <strnlen_P>
    1b66:	8c 01       	movw	r16, r24
    1b68:	f9 2d       	mov	r31, r9
    1b6a:	f0 68       	ori	r31, 0x80	; 128
    1b6c:	9f 2e       	mov	r9, r31
    1b6e:	f3 fd       	sbrc	r31, 3
    1b70:	1a c0       	rjmp	.+52     	; 0x1ba6 <vfprintf+0x494>
    1b72:	85 2d       	mov	r24, r5
    1b74:	90 e0       	ldi	r25, 0x00	; 0
    1b76:	08 17       	cp	r16, r24
    1b78:	19 07       	cpc	r17, r25
    1b7a:	a8 f4       	brcc	.+42     	; 0x1ba6 <vfprintf+0x494>
    1b7c:	b7 01       	movw	r22, r14
    1b7e:	80 e2       	ldi	r24, 0x20	; 32
    1b80:	90 e0       	ldi	r25, 0x00	; 0
    1b82:	0e 94 53 10 	call	0x20a6	; 0x20a6 <fputc>
    1b86:	5a 94       	dec	r5
    1b88:	f4 cf       	rjmp	.-24     	; 0x1b72 <vfprintf+0x460>
    1b8a:	f6 01       	movw	r30, r12
    1b8c:	97 fc       	sbrc	r9, 7
    1b8e:	85 91       	lpm	r24, Z+
    1b90:	97 fe       	sbrs	r9, 7
    1b92:	81 91       	ld	r24, Z+
    1b94:	6f 01       	movw	r12, r30
    1b96:	b7 01       	movw	r22, r14
    1b98:	90 e0       	ldi	r25, 0x00	; 0
    1b9a:	0e 94 53 10 	call	0x20a6	; 0x20a6 <fputc>
    1b9e:	51 10       	cpse	r5, r1
    1ba0:	5a 94       	dec	r5
    1ba2:	01 50       	subi	r16, 0x01	; 1
    1ba4:	11 09       	sbc	r17, r1
    1ba6:	01 15       	cp	r16, r1
    1ba8:	11 05       	cpc	r17, r1
    1baa:	79 f7       	brne	.-34     	; 0x1b8a <vfprintf+0x478>
    1bac:	f7 c0       	rjmp	.+494    	; 0x1d9c <vfprintf+0x68a>
    1bae:	84 36       	cpi	r24, 0x64	; 100
    1bb0:	11 f0       	breq	.+4      	; 0x1bb6 <vfprintf+0x4a4>
    1bb2:	89 36       	cpi	r24, 0x69	; 105
    1bb4:	61 f5       	brne	.+88     	; 0x1c0e <vfprintf+0x4fc>
    1bb6:	56 01       	movw	r10, r12
    1bb8:	97 fe       	sbrs	r9, 7
    1bba:	09 c0       	rjmp	.+18     	; 0x1bce <vfprintf+0x4bc>
    1bbc:	24 e0       	ldi	r18, 0x04	; 4
    1bbe:	a2 0e       	add	r10, r18
    1bc0:	b1 1c       	adc	r11, r1
    1bc2:	f6 01       	movw	r30, r12
    1bc4:	60 81       	ld	r22, Z
    1bc6:	71 81       	ldd	r23, Z+1	; 0x01
    1bc8:	82 81       	ldd	r24, Z+2	; 0x02
    1bca:	93 81       	ldd	r25, Z+3	; 0x03
    1bcc:	0a c0       	rjmp	.+20     	; 0x1be2 <vfprintf+0x4d0>
    1bce:	f2 e0       	ldi	r31, 0x02	; 2
    1bd0:	af 0e       	add	r10, r31
    1bd2:	b1 1c       	adc	r11, r1
    1bd4:	f6 01       	movw	r30, r12
    1bd6:	60 81       	ld	r22, Z
    1bd8:	71 81       	ldd	r23, Z+1	; 0x01
    1bda:	07 2e       	mov	r0, r23
    1bdc:	00 0c       	add	r0, r0
    1bde:	88 0b       	sbc	r24, r24
    1be0:	99 0b       	sbc	r25, r25
    1be2:	f9 2d       	mov	r31, r9
    1be4:	ff 76       	andi	r31, 0x6F	; 111
    1be6:	9f 2e       	mov	r9, r31
    1be8:	97 ff       	sbrs	r25, 7
    1bea:	09 c0       	rjmp	.+18     	; 0x1bfe <vfprintf+0x4ec>
    1bec:	90 95       	com	r25
    1bee:	80 95       	com	r24
    1bf0:	70 95       	com	r23
    1bf2:	61 95       	neg	r22
    1bf4:	7f 4f       	sbci	r23, 0xFF	; 255
    1bf6:	8f 4f       	sbci	r24, 0xFF	; 255
    1bf8:	9f 4f       	sbci	r25, 0xFF	; 255
    1bfa:	f0 68       	ori	r31, 0x80	; 128
    1bfc:	9f 2e       	mov	r9, r31
    1bfe:	2a e0       	ldi	r18, 0x0A	; 10
    1c00:	30 e0       	ldi	r19, 0x00	; 0
    1c02:	a3 01       	movw	r20, r6
    1c04:	0e 94 f7 10 	call	0x21ee	; 0x21ee <__ultoa_invert>
    1c08:	c8 2e       	mov	r12, r24
    1c0a:	c6 18       	sub	r12, r6
    1c0c:	3f c0       	rjmp	.+126    	; 0x1c8c <vfprintf+0x57a>
    1c0e:	09 2d       	mov	r16, r9
    1c10:	85 37       	cpi	r24, 0x75	; 117
    1c12:	21 f4       	brne	.+8      	; 0x1c1c <vfprintf+0x50a>
    1c14:	0f 7e       	andi	r16, 0xEF	; 239
    1c16:	2a e0       	ldi	r18, 0x0A	; 10
    1c18:	30 e0       	ldi	r19, 0x00	; 0
    1c1a:	1d c0       	rjmp	.+58     	; 0x1c56 <vfprintf+0x544>
    1c1c:	09 7f       	andi	r16, 0xF9	; 249
    1c1e:	8f 36       	cpi	r24, 0x6F	; 111
    1c20:	91 f0       	breq	.+36     	; 0x1c46 <vfprintf+0x534>
    1c22:	18 f4       	brcc	.+6      	; 0x1c2a <vfprintf+0x518>
    1c24:	88 35       	cpi	r24, 0x58	; 88
    1c26:	59 f0       	breq	.+22     	; 0x1c3e <vfprintf+0x52c>
    1c28:	c3 c0       	rjmp	.+390    	; 0x1db0 <vfprintf+0x69e>
    1c2a:	80 37       	cpi	r24, 0x70	; 112
    1c2c:	19 f0       	breq	.+6      	; 0x1c34 <vfprintf+0x522>
    1c2e:	88 37       	cpi	r24, 0x78	; 120
    1c30:	11 f0       	breq	.+4      	; 0x1c36 <vfprintf+0x524>
    1c32:	be c0       	rjmp	.+380    	; 0x1db0 <vfprintf+0x69e>
    1c34:	00 61       	ori	r16, 0x10	; 16
    1c36:	04 ff       	sbrs	r16, 4
    1c38:	09 c0       	rjmp	.+18     	; 0x1c4c <vfprintf+0x53a>
    1c3a:	04 60       	ori	r16, 0x04	; 4
    1c3c:	07 c0       	rjmp	.+14     	; 0x1c4c <vfprintf+0x53a>
    1c3e:	94 fe       	sbrs	r9, 4
    1c40:	08 c0       	rjmp	.+16     	; 0x1c52 <vfprintf+0x540>
    1c42:	06 60       	ori	r16, 0x06	; 6
    1c44:	06 c0       	rjmp	.+12     	; 0x1c52 <vfprintf+0x540>
    1c46:	28 e0       	ldi	r18, 0x08	; 8
    1c48:	30 e0       	ldi	r19, 0x00	; 0
    1c4a:	05 c0       	rjmp	.+10     	; 0x1c56 <vfprintf+0x544>
    1c4c:	20 e1       	ldi	r18, 0x10	; 16
    1c4e:	30 e0       	ldi	r19, 0x00	; 0
    1c50:	02 c0       	rjmp	.+4      	; 0x1c56 <vfprintf+0x544>
    1c52:	20 e1       	ldi	r18, 0x10	; 16
    1c54:	32 e0       	ldi	r19, 0x02	; 2
    1c56:	56 01       	movw	r10, r12
    1c58:	07 ff       	sbrs	r16, 7
    1c5a:	09 c0       	rjmp	.+18     	; 0x1c6e <vfprintf+0x55c>
    1c5c:	84 e0       	ldi	r24, 0x04	; 4
    1c5e:	a8 0e       	add	r10, r24
    1c60:	b1 1c       	adc	r11, r1
    1c62:	f6 01       	movw	r30, r12
    1c64:	60 81       	ld	r22, Z
    1c66:	71 81       	ldd	r23, Z+1	; 0x01
    1c68:	82 81       	ldd	r24, Z+2	; 0x02
    1c6a:	93 81       	ldd	r25, Z+3	; 0x03
    1c6c:	08 c0       	rjmp	.+16     	; 0x1c7e <vfprintf+0x56c>
    1c6e:	f2 e0       	ldi	r31, 0x02	; 2
    1c70:	af 0e       	add	r10, r31
    1c72:	b1 1c       	adc	r11, r1
    1c74:	f6 01       	movw	r30, r12
    1c76:	60 81       	ld	r22, Z
    1c78:	71 81       	ldd	r23, Z+1	; 0x01
    1c7a:	80 e0       	ldi	r24, 0x00	; 0
    1c7c:	90 e0       	ldi	r25, 0x00	; 0
    1c7e:	a3 01       	movw	r20, r6
    1c80:	0e 94 f7 10 	call	0x21ee	; 0x21ee <__ultoa_invert>
    1c84:	c8 2e       	mov	r12, r24
    1c86:	c6 18       	sub	r12, r6
    1c88:	0f 77       	andi	r16, 0x7F	; 127
    1c8a:	90 2e       	mov	r9, r16
    1c8c:	96 fe       	sbrs	r9, 6
    1c8e:	0b c0       	rjmp	.+22     	; 0x1ca6 <vfprintf+0x594>
    1c90:	09 2d       	mov	r16, r9
    1c92:	0e 7f       	andi	r16, 0xFE	; 254
    1c94:	c1 16       	cp	r12, r17
    1c96:	50 f4       	brcc	.+20     	; 0x1cac <vfprintf+0x59a>
    1c98:	94 fe       	sbrs	r9, 4
    1c9a:	0a c0       	rjmp	.+20     	; 0x1cb0 <vfprintf+0x59e>
    1c9c:	92 fc       	sbrc	r9, 2
    1c9e:	08 c0       	rjmp	.+16     	; 0x1cb0 <vfprintf+0x59e>
    1ca0:	09 2d       	mov	r16, r9
    1ca2:	0e 7e       	andi	r16, 0xEE	; 238
    1ca4:	05 c0       	rjmp	.+10     	; 0x1cb0 <vfprintf+0x59e>
    1ca6:	dc 2c       	mov	r13, r12
    1ca8:	09 2d       	mov	r16, r9
    1caa:	03 c0       	rjmp	.+6      	; 0x1cb2 <vfprintf+0x5a0>
    1cac:	dc 2c       	mov	r13, r12
    1cae:	01 c0       	rjmp	.+2      	; 0x1cb2 <vfprintf+0x5a0>
    1cb0:	d1 2e       	mov	r13, r17
    1cb2:	04 ff       	sbrs	r16, 4
    1cb4:	0d c0       	rjmp	.+26     	; 0x1cd0 <vfprintf+0x5be>
    1cb6:	fe 01       	movw	r30, r28
    1cb8:	ec 0d       	add	r30, r12
    1cba:	f1 1d       	adc	r31, r1
    1cbc:	80 81       	ld	r24, Z
    1cbe:	80 33       	cpi	r24, 0x30	; 48
    1cc0:	11 f4       	brne	.+4      	; 0x1cc6 <vfprintf+0x5b4>
    1cc2:	09 7e       	andi	r16, 0xE9	; 233
    1cc4:	09 c0       	rjmp	.+18     	; 0x1cd8 <vfprintf+0x5c6>
    1cc6:	02 ff       	sbrs	r16, 2
    1cc8:	06 c0       	rjmp	.+12     	; 0x1cd6 <vfprintf+0x5c4>
    1cca:	d3 94       	inc	r13
    1ccc:	d3 94       	inc	r13
    1cce:	04 c0       	rjmp	.+8      	; 0x1cd8 <vfprintf+0x5c6>
    1cd0:	80 2f       	mov	r24, r16
    1cd2:	86 78       	andi	r24, 0x86	; 134
    1cd4:	09 f0       	breq	.+2      	; 0x1cd8 <vfprintf+0x5c6>
    1cd6:	d3 94       	inc	r13
    1cd8:	03 fd       	sbrc	r16, 3
    1cda:	11 c0       	rjmp	.+34     	; 0x1cfe <vfprintf+0x5ec>
    1cdc:	00 ff       	sbrs	r16, 0
    1cde:	06 c0       	rjmp	.+12     	; 0x1cec <vfprintf+0x5da>
    1ce0:	1c 2d       	mov	r17, r12
    1ce2:	d5 14       	cp	r13, r5
    1ce4:	80 f4       	brcc	.+32     	; 0x1d06 <vfprintf+0x5f4>
    1ce6:	15 0d       	add	r17, r5
    1ce8:	1d 19       	sub	r17, r13
    1cea:	0d c0       	rjmp	.+26     	; 0x1d06 <vfprintf+0x5f4>
    1cec:	d5 14       	cp	r13, r5
    1cee:	58 f4       	brcc	.+22     	; 0x1d06 <vfprintf+0x5f4>
    1cf0:	b7 01       	movw	r22, r14
    1cf2:	80 e2       	ldi	r24, 0x20	; 32
    1cf4:	90 e0       	ldi	r25, 0x00	; 0
    1cf6:	0e 94 53 10 	call	0x20a6	; 0x20a6 <fputc>
    1cfa:	d3 94       	inc	r13
    1cfc:	f7 cf       	rjmp	.-18     	; 0x1cec <vfprintf+0x5da>
    1cfe:	d5 14       	cp	r13, r5
    1d00:	10 f4       	brcc	.+4      	; 0x1d06 <vfprintf+0x5f4>
    1d02:	5d 18       	sub	r5, r13
    1d04:	01 c0       	rjmp	.+2      	; 0x1d08 <vfprintf+0x5f6>
    1d06:	51 2c       	mov	r5, r1
    1d08:	04 ff       	sbrs	r16, 4
    1d0a:	10 c0       	rjmp	.+32     	; 0x1d2c <vfprintf+0x61a>
    1d0c:	b7 01       	movw	r22, r14
    1d0e:	80 e3       	ldi	r24, 0x30	; 48
    1d10:	90 e0       	ldi	r25, 0x00	; 0
    1d12:	0e 94 53 10 	call	0x20a6	; 0x20a6 <fputc>
    1d16:	02 ff       	sbrs	r16, 2
    1d18:	17 c0       	rjmp	.+46     	; 0x1d48 <vfprintf+0x636>
    1d1a:	01 fd       	sbrc	r16, 1
    1d1c:	03 c0       	rjmp	.+6      	; 0x1d24 <vfprintf+0x612>
    1d1e:	88 e7       	ldi	r24, 0x78	; 120
    1d20:	90 e0       	ldi	r25, 0x00	; 0
    1d22:	02 c0       	rjmp	.+4      	; 0x1d28 <vfprintf+0x616>
    1d24:	88 e5       	ldi	r24, 0x58	; 88
    1d26:	90 e0       	ldi	r25, 0x00	; 0
    1d28:	b7 01       	movw	r22, r14
    1d2a:	0c c0       	rjmp	.+24     	; 0x1d44 <vfprintf+0x632>
    1d2c:	80 2f       	mov	r24, r16
    1d2e:	86 78       	andi	r24, 0x86	; 134
    1d30:	59 f0       	breq	.+22     	; 0x1d48 <vfprintf+0x636>
    1d32:	01 ff       	sbrs	r16, 1
    1d34:	02 c0       	rjmp	.+4      	; 0x1d3a <vfprintf+0x628>
    1d36:	8b e2       	ldi	r24, 0x2B	; 43
    1d38:	01 c0       	rjmp	.+2      	; 0x1d3c <vfprintf+0x62a>
    1d3a:	80 e2       	ldi	r24, 0x20	; 32
    1d3c:	07 fd       	sbrc	r16, 7
    1d3e:	8d e2       	ldi	r24, 0x2D	; 45
    1d40:	b7 01       	movw	r22, r14
    1d42:	90 e0       	ldi	r25, 0x00	; 0
    1d44:	0e 94 53 10 	call	0x20a6	; 0x20a6 <fputc>
    1d48:	c1 16       	cp	r12, r17
    1d4a:	38 f4       	brcc	.+14     	; 0x1d5a <vfprintf+0x648>
    1d4c:	b7 01       	movw	r22, r14
    1d4e:	80 e3       	ldi	r24, 0x30	; 48
    1d50:	90 e0       	ldi	r25, 0x00	; 0
    1d52:	0e 94 53 10 	call	0x20a6	; 0x20a6 <fputc>
    1d56:	11 50       	subi	r17, 0x01	; 1
    1d58:	f7 cf       	rjmp	.-18     	; 0x1d48 <vfprintf+0x636>
    1d5a:	ca 94       	dec	r12
    1d5c:	f3 01       	movw	r30, r6
    1d5e:	ec 0d       	add	r30, r12
    1d60:	f1 1d       	adc	r31, r1
    1d62:	80 81       	ld	r24, Z
    1d64:	b7 01       	movw	r22, r14
    1d66:	90 e0       	ldi	r25, 0x00	; 0
    1d68:	0e 94 53 10 	call	0x20a6	; 0x20a6 <fputc>
    1d6c:	c1 10       	cpse	r12, r1
    1d6e:	f5 cf       	rjmp	.-22     	; 0x1d5a <vfprintf+0x648>
    1d70:	15 c0       	rjmp	.+42     	; 0x1d9c <vfprintf+0x68a>
    1d72:	f4 e0       	ldi	r31, 0x04	; 4
    1d74:	f5 15       	cp	r31, r5
    1d76:	60 f5       	brcc	.+88     	; 0x1dd0 <vfprintf+0x6be>
    1d78:	84 e0       	ldi	r24, 0x04	; 4
    1d7a:	58 1a       	sub	r5, r24
    1d7c:	93 fe       	sbrs	r9, 3
    1d7e:	1f c0       	rjmp	.+62     	; 0x1dbe <vfprintf+0x6ac>
    1d80:	01 11       	cpse	r16, r1
    1d82:	27 c0       	rjmp	.+78     	; 0x1dd2 <vfprintf+0x6c0>
    1d84:	2c 85       	ldd	r18, Y+12	; 0x0c
    1d86:	23 ff       	sbrs	r18, 3
    1d88:	2a c0       	rjmp	.+84     	; 0x1dde <vfprintf+0x6cc>
    1d8a:	0c e7       	ldi	r16, 0x7C	; 124
    1d8c:	10 e0       	ldi	r17, 0x00	; 0
    1d8e:	39 2d       	mov	r19, r9
    1d90:	30 71       	andi	r19, 0x10	; 16
    1d92:	93 2e       	mov	r9, r19
    1d94:	f8 01       	movw	r30, r16
    1d96:	84 91       	lpm	r24, Z
    1d98:	81 11       	cpse	r24, r1
    1d9a:	24 c0       	rjmp	.+72     	; 0x1de4 <vfprintf+0x6d2>
    1d9c:	55 20       	and	r5, r5
    1d9e:	09 f4       	brne	.+2      	; 0x1da2 <vfprintf+0x690>
    1da0:	e4 cc       	rjmp	.-1592   	; 0x176a <vfprintf+0x58>
    1da2:	b7 01       	movw	r22, r14
    1da4:	80 e2       	ldi	r24, 0x20	; 32
    1da6:	90 e0       	ldi	r25, 0x00	; 0
    1da8:	0e 94 53 10 	call	0x20a6	; 0x20a6 <fputc>
    1dac:	5a 94       	dec	r5
    1dae:	f6 cf       	rjmp	.-20     	; 0x1d9c <vfprintf+0x68a>
    1db0:	f7 01       	movw	r30, r14
    1db2:	86 81       	ldd	r24, Z+6	; 0x06
    1db4:	97 81       	ldd	r25, Z+7	; 0x07
    1db6:	26 c0       	rjmp	.+76     	; 0x1e04 <vfprintf+0x6f2>
    1db8:	8f ef       	ldi	r24, 0xFF	; 255
    1dba:	9f ef       	ldi	r25, 0xFF	; 255
    1dbc:	23 c0       	rjmp	.+70     	; 0x1e04 <vfprintf+0x6f2>
    1dbe:	b7 01       	movw	r22, r14
    1dc0:	80 e2       	ldi	r24, 0x20	; 32
    1dc2:	90 e0       	ldi	r25, 0x00	; 0
    1dc4:	0e 94 53 10 	call	0x20a6	; 0x20a6 <fputc>
    1dc8:	5a 94       	dec	r5
    1dca:	51 10       	cpse	r5, r1
    1dcc:	f8 cf       	rjmp	.-16     	; 0x1dbe <vfprintf+0x6ac>
    1dce:	d8 cf       	rjmp	.-80     	; 0x1d80 <vfprintf+0x66e>
    1dd0:	51 2c       	mov	r5, r1
    1dd2:	b7 01       	movw	r22, r14
    1dd4:	80 2f       	mov	r24, r16
    1dd6:	90 e0       	ldi	r25, 0x00	; 0
    1dd8:	0e 94 53 10 	call	0x20a6	; 0x20a6 <fputc>
    1ddc:	d3 cf       	rjmp	.-90     	; 0x1d84 <vfprintf+0x672>
    1dde:	00 e8       	ldi	r16, 0x80	; 128
    1de0:	10 e0       	ldi	r17, 0x00	; 0
    1de2:	d5 cf       	rjmp	.-86     	; 0x1d8e <vfprintf+0x67c>
    1de4:	91 10       	cpse	r9, r1
    1de6:	80 52       	subi	r24, 0x20	; 32
    1de8:	b7 01       	movw	r22, r14
    1dea:	90 e0       	ldi	r25, 0x00	; 0
    1dec:	0e 94 53 10 	call	0x20a6	; 0x20a6 <fputc>
    1df0:	0f 5f       	subi	r16, 0xFF	; 255
    1df2:	1f 4f       	sbci	r17, 0xFF	; 255
    1df4:	cf cf       	rjmp	.-98     	; 0x1d94 <vfprintf+0x682>
    1df6:	23 e0       	ldi	r18, 0x03	; 3
    1df8:	25 15       	cp	r18, r5
    1dfa:	10 f4       	brcc	.+4      	; 0x1e00 <vfprintf+0x6ee>
    1dfc:	83 e0       	ldi	r24, 0x03	; 3
    1dfe:	bd cf       	rjmp	.-134    	; 0x1d7a <vfprintf+0x668>
    1e00:	51 2c       	mov	r5, r1
    1e02:	c0 cf       	rjmp	.-128    	; 0x1d84 <vfprintf+0x672>
    1e04:	60 96       	adiw	r28, 0x10	; 16
    1e06:	e2 e1       	ldi	r30, 0x12	; 18
    1e08:	0c 94 36 0f 	jmp	0x1e6c	; 0x1e6c <__epilogue_restores__>

00001e0c <__divmodhi4>:
    1e0c:	97 fb       	bst	r25, 7
    1e0e:	07 2e       	mov	r0, r23
    1e10:	16 f4       	brtc	.+4      	; 0x1e16 <__divmodhi4+0xa>
    1e12:	00 94       	com	r0
    1e14:	07 d0       	rcall	.+14     	; 0x1e24 <__divmodhi4_neg1>
    1e16:	77 fd       	sbrc	r23, 7
    1e18:	09 d0       	rcall	.+18     	; 0x1e2c <__divmodhi4_neg2>
    1e1a:	0e 94 51 0f 	call	0x1ea2	; 0x1ea2 <__udivmodhi4>
    1e1e:	07 fc       	sbrc	r0, 7
    1e20:	05 d0       	rcall	.+10     	; 0x1e2c <__divmodhi4_neg2>
    1e22:	3e f4       	brtc	.+14     	; 0x1e32 <__divmodhi4_exit>

00001e24 <__divmodhi4_neg1>:
    1e24:	90 95       	com	r25
    1e26:	81 95       	neg	r24
    1e28:	9f 4f       	sbci	r25, 0xFF	; 255
    1e2a:	08 95       	ret

00001e2c <__divmodhi4_neg2>:
    1e2c:	70 95       	com	r23
    1e2e:	61 95       	neg	r22
    1e30:	7f 4f       	sbci	r23, 0xFF	; 255

00001e32 <__divmodhi4_exit>:
    1e32:	08 95       	ret

00001e34 <__prologue_saves__>:
    1e34:	2f 92       	push	r2
    1e36:	3f 92       	push	r3
    1e38:	4f 92       	push	r4
    1e3a:	5f 92       	push	r5
    1e3c:	6f 92       	push	r6
    1e3e:	7f 92       	push	r7
    1e40:	8f 92       	push	r8
    1e42:	9f 92       	push	r9
    1e44:	af 92       	push	r10
    1e46:	bf 92       	push	r11
    1e48:	cf 92       	push	r12
    1e4a:	df 92       	push	r13
    1e4c:	ef 92       	push	r14
    1e4e:	ff 92       	push	r15
    1e50:	0f 93       	push	r16
    1e52:	1f 93       	push	r17
    1e54:	cf 93       	push	r28
    1e56:	df 93       	push	r29
    1e58:	cd b7       	in	r28, 0x3d	; 61
    1e5a:	de b7       	in	r29, 0x3e	; 62
    1e5c:	ca 1b       	sub	r28, r26
    1e5e:	db 0b       	sbc	r29, r27
    1e60:	0f b6       	in	r0, 0x3f	; 63
    1e62:	f8 94       	cli
    1e64:	de bf       	out	0x3e, r29	; 62
    1e66:	0f be       	out	0x3f, r0	; 63
    1e68:	cd bf       	out	0x3d, r28	; 61
    1e6a:	09 94       	ijmp

00001e6c <__epilogue_restores__>:
    1e6c:	2a 88       	ldd	r2, Y+18	; 0x12
    1e6e:	39 88       	ldd	r3, Y+17	; 0x11
    1e70:	48 88       	ldd	r4, Y+16	; 0x10
    1e72:	5f 84       	ldd	r5, Y+15	; 0x0f
    1e74:	6e 84       	ldd	r6, Y+14	; 0x0e
    1e76:	7d 84       	ldd	r7, Y+13	; 0x0d
    1e78:	8c 84       	ldd	r8, Y+12	; 0x0c
    1e7a:	9b 84       	ldd	r9, Y+11	; 0x0b
    1e7c:	aa 84       	ldd	r10, Y+10	; 0x0a
    1e7e:	b9 84       	ldd	r11, Y+9	; 0x09
    1e80:	c8 84       	ldd	r12, Y+8	; 0x08
    1e82:	df 80       	ldd	r13, Y+7	; 0x07
    1e84:	ee 80       	ldd	r14, Y+6	; 0x06
    1e86:	fd 80       	ldd	r15, Y+5	; 0x05
    1e88:	0c 81       	ldd	r16, Y+4	; 0x04
    1e8a:	1b 81       	ldd	r17, Y+3	; 0x03
    1e8c:	aa 81       	ldd	r26, Y+2	; 0x02
    1e8e:	b9 81       	ldd	r27, Y+1	; 0x01
    1e90:	ce 0f       	add	r28, r30
    1e92:	d1 1d       	adc	r29, r1
    1e94:	0f b6       	in	r0, 0x3f	; 63
    1e96:	f8 94       	cli
    1e98:	de bf       	out	0x3e, r29	; 62
    1e9a:	0f be       	out	0x3f, r0	; 63
    1e9c:	cd bf       	out	0x3d, r28	; 61
    1e9e:	ed 01       	movw	r28, r26
    1ea0:	08 95       	ret

00001ea2 <__udivmodhi4>:
    1ea2:	aa 1b       	sub	r26, r26
    1ea4:	bb 1b       	sub	r27, r27
    1ea6:	51 e1       	ldi	r21, 0x11	; 17
    1ea8:	07 c0       	rjmp	.+14     	; 0x1eb8 <__udivmodhi4_ep>

00001eaa <__udivmodhi4_loop>:
    1eaa:	aa 1f       	adc	r26, r26
    1eac:	bb 1f       	adc	r27, r27
    1eae:	a6 17       	cp	r26, r22
    1eb0:	b7 07       	cpc	r27, r23
    1eb2:	10 f0       	brcs	.+4      	; 0x1eb8 <__udivmodhi4_ep>
    1eb4:	a6 1b       	sub	r26, r22
    1eb6:	b7 0b       	sbc	r27, r23

00001eb8 <__udivmodhi4_ep>:
    1eb8:	88 1f       	adc	r24, r24
    1eba:	99 1f       	adc	r25, r25
    1ebc:	5a 95       	dec	r21
    1ebe:	a9 f7       	brne	.-22     	; 0x1eaa <__udivmodhi4_loop>
    1ec0:	80 95       	com	r24
    1ec2:	90 95       	com	r25
    1ec4:	bc 01       	movw	r22, r24
    1ec6:	cd 01       	movw	r24, r26
    1ec8:	08 95       	ret

00001eca <__ftoa_engine>:
    1eca:	28 30       	cpi	r18, 0x08	; 8
    1ecc:	08 f0       	brcs	.+2      	; 0x1ed0 <__ftoa_engine+0x6>
    1ece:	27 e0       	ldi	r18, 0x07	; 7
    1ed0:	33 27       	eor	r19, r19
    1ed2:	da 01       	movw	r26, r20
    1ed4:	99 0f       	add	r25, r25
    1ed6:	31 1d       	adc	r19, r1
    1ed8:	87 fd       	sbrc	r24, 7
    1eda:	91 60       	ori	r25, 0x01	; 1
    1edc:	00 96       	adiw	r24, 0x00	; 0
    1ede:	61 05       	cpc	r22, r1
    1ee0:	71 05       	cpc	r23, r1
    1ee2:	39 f4       	brne	.+14     	; 0x1ef2 <__ftoa_engine+0x28>
    1ee4:	32 60       	ori	r19, 0x02	; 2
    1ee6:	2e 5f       	subi	r18, 0xFE	; 254
    1ee8:	3d 93       	st	X+, r19
    1eea:	30 e3       	ldi	r19, 0x30	; 48
    1eec:	2a 95       	dec	r18
    1eee:	e1 f7       	brne	.-8      	; 0x1ee8 <__ftoa_engine+0x1e>
    1ef0:	08 95       	ret
    1ef2:	9f 3f       	cpi	r25, 0xFF	; 255
    1ef4:	30 f0       	brcs	.+12     	; 0x1f02 <__ftoa_engine+0x38>
    1ef6:	80 38       	cpi	r24, 0x80	; 128
    1ef8:	71 05       	cpc	r23, r1
    1efa:	61 05       	cpc	r22, r1
    1efc:	09 f0       	breq	.+2      	; 0x1f00 <__ftoa_engine+0x36>
    1efe:	3c 5f       	subi	r19, 0xFC	; 252
    1f00:	3c 5f       	subi	r19, 0xFC	; 252
    1f02:	3d 93       	st	X+, r19
    1f04:	91 30       	cpi	r25, 0x01	; 1
    1f06:	08 f0       	brcs	.+2      	; 0x1f0a <__ftoa_engine+0x40>
    1f08:	80 68       	ori	r24, 0x80	; 128
    1f0a:	91 1d       	adc	r25, r1
    1f0c:	df 93       	push	r29
    1f0e:	cf 93       	push	r28
    1f10:	1f 93       	push	r17
    1f12:	0f 93       	push	r16
    1f14:	ff 92       	push	r15
    1f16:	ef 92       	push	r14
    1f18:	19 2f       	mov	r17, r25
    1f1a:	98 7f       	andi	r25, 0xF8	; 248
    1f1c:	96 95       	lsr	r25
    1f1e:	e9 2f       	mov	r30, r25
    1f20:	96 95       	lsr	r25
    1f22:	96 95       	lsr	r25
    1f24:	e9 0f       	add	r30, r25
    1f26:	ff 27       	eor	r31, r31
    1f28:	e2 52       	subi	r30, 0x22	; 34
    1f2a:	ff 4f       	sbci	r31, 0xFF	; 255
    1f2c:	99 27       	eor	r25, r25
    1f2e:	33 27       	eor	r19, r19
    1f30:	ee 24       	eor	r14, r14
    1f32:	ff 24       	eor	r15, r15
    1f34:	a7 01       	movw	r20, r14
    1f36:	e7 01       	movw	r28, r14
    1f38:	05 90       	lpm	r0, Z+
    1f3a:	08 94       	sec
    1f3c:	07 94       	ror	r0
    1f3e:	28 f4       	brcc	.+10     	; 0x1f4a <__ftoa_engine+0x80>
    1f40:	36 0f       	add	r19, r22
    1f42:	e7 1e       	adc	r14, r23
    1f44:	f8 1e       	adc	r15, r24
    1f46:	49 1f       	adc	r20, r25
    1f48:	51 1d       	adc	r21, r1
    1f4a:	66 0f       	add	r22, r22
    1f4c:	77 1f       	adc	r23, r23
    1f4e:	88 1f       	adc	r24, r24
    1f50:	99 1f       	adc	r25, r25
    1f52:	06 94       	lsr	r0
    1f54:	a1 f7       	brne	.-24     	; 0x1f3e <__ftoa_engine+0x74>
    1f56:	05 90       	lpm	r0, Z+
    1f58:	07 94       	ror	r0
    1f5a:	28 f4       	brcc	.+10     	; 0x1f66 <__ftoa_engine+0x9c>
    1f5c:	e7 0e       	add	r14, r23
    1f5e:	f8 1e       	adc	r15, r24
    1f60:	49 1f       	adc	r20, r25
    1f62:	56 1f       	adc	r21, r22
    1f64:	c1 1d       	adc	r28, r1
    1f66:	77 0f       	add	r23, r23
    1f68:	88 1f       	adc	r24, r24
    1f6a:	99 1f       	adc	r25, r25
    1f6c:	66 1f       	adc	r22, r22
    1f6e:	06 94       	lsr	r0
    1f70:	a1 f7       	brne	.-24     	; 0x1f5a <__ftoa_engine+0x90>
    1f72:	05 90       	lpm	r0, Z+
    1f74:	07 94       	ror	r0
    1f76:	28 f4       	brcc	.+10     	; 0x1f82 <__ftoa_engine+0xb8>
    1f78:	f8 0e       	add	r15, r24
    1f7a:	49 1f       	adc	r20, r25
    1f7c:	56 1f       	adc	r21, r22
    1f7e:	c7 1f       	adc	r28, r23
    1f80:	d1 1d       	adc	r29, r1
    1f82:	88 0f       	add	r24, r24
    1f84:	99 1f       	adc	r25, r25
    1f86:	66 1f       	adc	r22, r22
    1f88:	77 1f       	adc	r23, r23
    1f8a:	06 94       	lsr	r0
    1f8c:	a1 f7       	brne	.-24     	; 0x1f76 <__ftoa_engine+0xac>
    1f8e:	05 90       	lpm	r0, Z+
    1f90:	07 94       	ror	r0
    1f92:	20 f4       	brcc	.+8      	; 0x1f9c <__ftoa_engine+0xd2>
    1f94:	49 0f       	add	r20, r25
    1f96:	56 1f       	adc	r21, r22
    1f98:	c7 1f       	adc	r28, r23
    1f9a:	d8 1f       	adc	r29, r24
    1f9c:	99 0f       	add	r25, r25
    1f9e:	66 1f       	adc	r22, r22
    1fa0:	77 1f       	adc	r23, r23
    1fa2:	88 1f       	adc	r24, r24
    1fa4:	06 94       	lsr	r0
    1fa6:	a9 f7       	brne	.-22     	; 0x1f92 <__ftoa_engine+0xc8>
    1fa8:	84 91       	lpm	r24, Z
    1faa:	10 95       	com	r17
    1fac:	17 70       	andi	r17, 0x07	; 7
    1fae:	41 f0       	breq	.+16     	; 0x1fc0 <__ftoa_engine+0xf6>
    1fb0:	d6 95       	lsr	r29
    1fb2:	c7 95       	ror	r28
    1fb4:	57 95       	ror	r21
    1fb6:	47 95       	ror	r20
    1fb8:	f7 94       	ror	r15
    1fba:	e7 94       	ror	r14
    1fbc:	1a 95       	dec	r17
    1fbe:	c1 f7       	brne	.-16     	; 0x1fb0 <__ftoa_engine+0xe6>
    1fc0:	e4 e8       	ldi	r30, 0x84	; 132
    1fc2:	f0 e0       	ldi	r31, 0x00	; 0
    1fc4:	68 94       	set
    1fc6:	15 90       	lpm	r1, Z+
    1fc8:	15 91       	lpm	r17, Z+
    1fca:	35 91       	lpm	r19, Z+
    1fcc:	65 91       	lpm	r22, Z+
    1fce:	95 91       	lpm	r25, Z+
    1fd0:	05 90       	lpm	r0, Z+
    1fd2:	7f e2       	ldi	r23, 0x2F	; 47
    1fd4:	73 95       	inc	r23
    1fd6:	e1 18       	sub	r14, r1
    1fd8:	f1 0a       	sbc	r15, r17
    1fda:	43 0b       	sbc	r20, r19
    1fdc:	56 0b       	sbc	r21, r22
    1fde:	c9 0b       	sbc	r28, r25
    1fe0:	d0 09       	sbc	r29, r0
    1fe2:	c0 f7       	brcc	.-16     	; 0x1fd4 <__ftoa_engine+0x10a>
    1fe4:	e1 0c       	add	r14, r1
    1fe6:	f1 1e       	adc	r15, r17
    1fe8:	43 1f       	adc	r20, r19
    1fea:	56 1f       	adc	r21, r22
    1fec:	c9 1f       	adc	r28, r25
    1fee:	d0 1d       	adc	r29, r0
    1ff0:	7e f4       	brtc	.+30     	; 0x2010 <__ftoa_engine+0x146>
    1ff2:	70 33       	cpi	r23, 0x30	; 48
    1ff4:	11 f4       	brne	.+4      	; 0x1ffa <__ftoa_engine+0x130>
    1ff6:	8a 95       	dec	r24
    1ff8:	e6 cf       	rjmp	.-52     	; 0x1fc6 <__ftoa_engine+0xfc>
    1ffa:	e8 94       	clt
    1ffc:	01 50       	subi	r16, 0x01	; 1
    1ffe:	30 f0       	brcs	.+12     	; 0x200c <__ftoa_engine+0x142>
    2000:	08 0f       	add	r16, r24
    2002:	0a f4       	brpl	.+2      	; 0x2006 <__ftoa_engine+0x13c>
    2004:	00 27       	eor	r16, r16
    2006:	02 17       	cp	r16, r18
    2008:	08 f4       	brcc	.+2      	; 0x200c <__ftoa_engine+0x142>
    200a:	20 2f       	mov	r18, r16
    200c:	23 95       	inc	r18
    200e:	02 2f       	mov	r16, r18
    2010:	7a 33       	cpi	r23, 0x3A	; 58
    2012:	28 f0       	brcs	.+10     	; 0x201e <__ftoa_engine+0x154>
    2014:	79 e3       	ldi	r23, 0x39	; 57
    2016:	7d 93       	st	X+, r23
    2018:	2a 95       	dec	r18
    201a:	e9 f7       	brne	.-6      	; 0x2016 <__ftoa_engine+0x14c>
    201c:	10 c0       	rjmp	.+32     	; 0x203e <__ftoa_engine+0x174>
    201e:	7d 93       	st	X+, r23
    2020:	2a 95       	dec	r18
    2022:	89 f6       	brne	.-94     	; 0x1fc6 <__ftoa_engine+0xfc>
    2024:	06 94       	lsr	r0
    2026:	97 95       	ror	r25
    2028:	67 95       	ror	r22
    202a:	37 95       	ror	r19
    202c:	17 95       	ror	r17
    202e:	17 94       	ror	r1
    2030:	e1 18       	sub	r14, r1
    2032:	f1 0a       	sbc	r15, r17
    2034:	43 0b       	sbc	r20, r19
    2036:	56 0b       	sbc	r21, r22
    2038:	c9 0b       	sbc	r28, r25
    203a:	d0 09       	sbc	r29, r0
    203c:	98 f0       	brcs	.+38     	; 0x2064 <__ftoa_engine+0x19a>
    203e:	23 95       	inc	r18
    2040:	7e 91       	ld	r23, -X
    2042:	73 95       	inc	r23
    2044:	7a 33       	cpi	r23, 0x3A	; 58
    2046:	08 f0       	brcs	.+2      	; 0x204a <__ftoa_engine+0x180>
    2048:	70 e3       	ldi	r23, 0x30	; 48
    204a:	7c 93       	st	X, r23
    204c:	20 13       	cpse	r18, r16
    204e:	b8 f7       	brcc	.-18     	; 0x203e <__ftoa_engine+0x174>
    2050:	7e 91       	ld	r23, -X
    2052:	70 61       	ori	r23, 0x10	; 16
    2054:	7d 93       	st	X+, r23
    2056:	30 f0       	brcs	.+12     	; 0x2064 <__ftoa_engine+0x19a>
    2058:	83 95       	inc	r24
    205a:	71 e3       	ldi	r23, 0x31	; 49
    205c:	7d 93       	st	X+, r23
    205e:	70 e3       	ldi	r23, 0x30	; 48
    2060:	2a 95       	dec	r18
    2062:	e1 f7       	brne	.-8      	; 0x205c <__ftoa_engine+0x192>
    2064:	11 24       	eor	r1, r1
    2066:	ef 90       	pop	r14
    2068:	ff 90       	pop	r15
    206a:	0f 91       	pop	r16
    206c:	1f 91       	pop	r17
    206e:	cf 91       	pop	r28
    2070:	df 91       	pop	r29
    2072:	99 27       	eor	r25, r25
    2074:	87 fd       	sbrc	r24, 7
    2076:	90 95       	com	r25
    2078:	08 95       	ret

0000207a <strnlen_P>:
    207a:	fc 01       	movw	r30, r24
    207c:	05 90       	lpm	r0, Z+
    207e:	61 50       	subi	r22, 0x01	; 1
    2080:	70 40       	sbci	r23, 0x00	; 0
    2082:	01 10       	cpse	r0, r1
    2084:	d8 f7       	brcc	.-10     	; 0x207c <strnlen_P+0x2>
    2086:	80 95       	com	r24
    2088:	90 95       	com	r25
    208a:	8e 0f       	add	r24, r30
    208c:	9f 1f       	adc	r25, r31
    208e:	08 95       	ret

00002090 <strnlen>:
    2090:	fc 01       	movw	r30, r24
    2092:	61 50       	subi	r22, 0x01	; 1
    2094:	70 40       	sbci	r23, 0x00	; 0
    2096:	01 90       	ld	r0, Z+
    2098:	01 10       	cpse	r0, r1
    209a:	d8 f7       	brcc	.-10     	; 0x2092 <strnlen+0x2>
    209c:	80 95       	com	r24
    209e:	90 95       	com	r25
    20a0:	8e 0f       	add	r24, r30
    20a2:	9f 1f       	adc	r25, r31
    20a4:	08 95       	ret

000020a6 <fputc>:
    20a6:	0f 93       	push	r16
    20a8:	1f 93       	push	r17
    20aa:	cf 93       	push	r28
    20ac:	df 93       	push	r29
    20ae:	fb 01       	movw	r30, r22
    20b0:	23 81       	ldd	r18, Z+3	; 0x03
    20b2:	21 fd       	sbrc	r18, 1
    20b4:	03 c0       	rjmp	.+6      	; 0x20bc <fputc+0x16>
    20b6:	8f ef       	ldi	r24, 0xFF	; 255
    20b8:	9f ef       	ldi	r25, 0xFF	; 255
    20ba:	2c c0       	rjmp	.+88     	; 0x2114 <fputc+0x6e>
    20bc:	22 ff       	sbrs	r18, 2
    20be:	16 c0       	rjmp	.+44     	; 0x20ec <fputc+0x46>
    20c0:	46 81       	ldd	r20, Z+6	; 0x06
    20c2:	57 81       	ldd	r21, Z+7	; 0x07
    20c4:	24 81       	ldd	r18, Z+4	; 0x04
    20c6:	35 81       	ldd	r19, Z+5	; 0x05
    20c8:	42 17       	cp	r20, r18
    20ca:	53 07       	cpc	r21, r19
    20cc:	44 f4       	brge	.+16     	; 0x20de <fputc+0x38>
    20ce:	a0 81       	ld	r26, Z
    20d0:	b1 81       	ldd	r27, Z+1	; 0x01
    20d2:	9d 01       	movw	r18, r26
    20d4:	2f 5f       	subi	r18, 0xFF	; 255
    20d6:	3f 4f       	sbci	r19, 0xFF	; 255
    20d8:	31 83       	std	Z+1, r19	; 0x01
    20da:	20 83       	st	Z, r18
    20dc:	8c 93       	st	X, r24
    20de:	26 81       	ldd	r18, Z+6	; 0x06
    20e0:	37 81       	ldd	r19, Z+7	; 0x07
    20e2:	2f 5f       	subi	r18, 0xFF	; 255
    20e4:	3f 4f       	sbci	r19, 0xFF	; 255
    20e6:	37 83       	std	Z+7, r19	; 0x07
    20e8:	26 83       	std	Z+6, r18	; 0x06
    20ea:	14 c0       	rjmp	.+40     	; 0x2114 <fputc+0x6e>
    20ec:	8b 01       	movw	r16, r22
    20ee:	ec 01       	movw	r28, r24
    20f0:	fb 01       	movw	r30, r22
    20f2:	00 84       	ldd	r0, Z+8	; 0x08
    20f4:	f1 85       	ldd	r31, Z+9	; 0x09
    20f6:	e0 2d       	mov	r30, r0
    20f8:	09 95       	icall
    20fa:	89 2b       	or	r24, r25
    20fc:	e1 f6       	brne	.-72     	; 0x20b6 <fputc+0x10>
    20fe:	d8 01       	movw	r26, r16
    2100:	16 96       	adiw	r26, 0x06	; 6
    2102:	8d 91       	ld	r24, X+
    2104:	9c 91       	ld	r25, X
    2106:	17 97       	sbiw	r26, 0x07	; 7
    2108:	01 96       	adiw	r24, 0x01	; 1
    210a:	17 96       	adiw	r26, 0x07	; 7
    210c:	9c 93       	st	X, r25
    210e:	8e 93       	st	-X, r24
    2110:	16 97       	sbiw	r26, 0x06	; 6
    2112:	ce 01       	movw	r24, r28
    2114:	df 91       	pop	r29
    2116:	cf 91       	pop	r28
    2118:	1f 91       	pop	r17
    211a:	0f 91       	pop	r16
    211c:	08 95       	ret

0000211e <printf>:
    211e:	a0 e0       	ldi	r26, 0x00	; 0
    2120:	b0 e0       	ldi	r27, 0x00	; 0
    2122:	e5 e9       	ldi	r30, 0x95	; 149
    2124:	f0 e1       	ldi	r31, 0x10	; 16
    2126:	0c 94 2a 0f 	jmp	0x1e54	; 0x1e54 <__prologue_saves__+0x20>
    212a:	ae 01       	movw	r20, r28
    212c:	4b 5f       	subi	r20, 0xFB	; 251
    212e:	5f 4f       	sbci	r21, 0xFF	; 255
    2130:	fa 01       	movw	r30, r20
    2132:	61 91       	ld	r22, Z+
    2134:	71 91       	ld	r23, Z+
    2136:	af 01       	movw	r20, r30
    2138:	80 91 c5 05 	lds	r24, 0x05C5	; 0x8005c5 <__iob+0x2>
    213c:	90 91 c6 05 	lds	r25, 0x05C6	; 0x8005c6 <__iob+0x3>
    2140:	0e 94 89 0b 	call	0x1712	; 0x1712 <vfprintf>
    2144:	e2 e0       	ldi	r30, 0x02	; 2
    2146:	0c 94 46 0f 	jmp	0x1e8c	; 0x1e8c <__epilogue_restores__+0x20>

0000214a <puts>:
    214a:	0f 93       	push	r16
    214c:	1f 93       	push	r17
    214e:	cf 93       	push	r28
    2150:	df 93       	push	r29
    2152:	e0 91 c5 05 	lds	r30, 0x05C5	; 0x8005c5 <__iob+0x2>
    2156:	f0 91 c6 05 	lds	r31, 0x05C6	; 0x8005c6 <__iob+0x3>
    215a:	23 81       	ldd	r18, Z+3	; 0x03
    215c:	21 ff       	sbrs	r18, 1
    215e:	1b c0       	rjmp	.+54     	; 0x2196 <puts+0x4c>
    2160:	8c 01       	movw	r16, r24
    2162:	d0 e0       	ldi	r29, 0x00	; 0
    2164:	c0 e0       	ldi	r28, 0x00	; 0
    2166:	f8 01       	movw	r30, r16
    2168:	81 91       	ld	r24, Z+
    216a:	8f 01       	movw	r16, r30
    216c:	60 91 c5 05 	lds	r22, 0x05C5	; 0x8005c5 <__iob+0x2>
    2170:	70 91 c6 05 	lds	r23, 0x05C6	; 0x8005c6 <__iob+0x3>
    2174:	db 01       	movw	r26, r22
    2176:	18 96       	adiw	r26, 0x08	; 8
    2178:	ed 91       	ld	r30, X+
    217a:	fc 91       	ld	r31, X
    217c:	19 97       	sbiw	r26, 0x09	; 9
    217e:	88 23       	and	r24, r24
    2180:	31 f0       	breq	.+12     	; 0x218e <puts+0x44>
    2182:	09 95       	icall
    2184:	89 2b       	or	r24, r25
    2186:	79 f3       	breq	.-34     	; 0x2166 <puts+0x1c>
    2188:	df ef       	ldi	r29, 0xFF	; 255
    218a:	cf ef       	ldi	r28, 0xFF	; 255
    218c:	ec cf       	rjmp	.-40     	; 0x2166 <puts+0x1c>
    218e:	8a e0       	ldi	r24, 0x0A	; 10
    2190:	09 95       	icall
    2192:	89 2b       	or	r24, r25
    2194:	19 f0       	breq	.+6      	; 0x219c <puts+0x52>
    2196:	8f ef       	ldi	r24, 0xFF	; 255
    2198:	9f ef       	ldi	r25, 0xFF	; 255
    219a:	02 c0       	rjmp	.+4      	; 0x21a0 <puts+0x56>
    219c:	8d 2f       	mov	r24, r29
    219e:	9c 2f       	mov	r25, r28
    21a0:	df 91       	pop	r29
    21a2:	cf 91       	pop	r28
    21a4:	1f 91       	pop	r17
    21a6:	0f 91       	pop	r16
    21a8:	08 95       	ret

000021aa <sprintf>:
    21aa:	ae e0       	ldi	r26, 0x0E	; 14
    21ac:	b0 e0       	ldi	r27, 0x00	; 0
    21ae:	eb ed       	ldi	r30, 0xDB	; 219
    21b0:	f0 e1       	ldi	r31, 0x10	; 16
    21b2:	0c 94 28 0f 	jmp	0x1e50	; 0x1e50 <__prologue_saves__+0x1c>
    21b6:	0d 89       	ldd	r16, Y+21	; 0x15
    21b8:	1e 89       	ldd	r17, Y+22	; 0x16
    21ba:	86 e0       	ldi	r24, 0x06	; 6
    21bc:	8c 83       	std	Y+4, r24	; 0x04
    21be:	1a 83       	std	Y+2, r17	; 0x02
    21c0:	09 83       	std	Y+1, r16	; 0x01
    21c2:	8f ef       	ldi	r24, 0xFF	; 255
    21c4:	9f e7       	ldi	r25, 0x7F	; 127
    21c6:	9e 83       	std	Y+6, r25	; 0x06
    21c8:	8d 83       	std	Y+5, r24	; 0x05
    21ca:	ae 01       	movw	r20, r28
    21cc:	47 5e       	subi	r20, 0xE7	; 231
    21ce:	5f 4f       	sbci	r21, 0xFF	; 255
    21d0:	6f 89       	ldd	r22, Y+23	; 0x17
    21d2:	78 8d       	ldd	r23, Y+24	; 0x18
    21d4:	ce 01       	movw	r24, r28
    21d6:	01 96       	adiw	r24, 0x01	; 1
    21d8:	0e 94 89 0b 	call	0x1712	; 0x1712 <vfprintf>
    21dc:	ef 81       	ldd	r30, Y+7	; 0x07
    21de:	f8 85       	ldd	r31, Y+8	; 0x08
    21e0:	e0 0f       	add	r30, r16
    21e2:	f1 1f       	adc	r31, r17
    21e4:	10 82       	st	Z, r1
    21e6:	2e 96       	adiw	r28, 0x0e	; 14
    21e8:	e4 e0       	ldi	r30, 0x04	; 4
    21ea:	0c 94 44 0f 	jmp	0x1e88	; 0x1e88 <__epilogue_restores__+0x1c>

000021ee <__ultoa_invert>:
    21ee:	fa 01       	movw	r30, r20
    21f0:	aa 27       	eor	r26, r26
    21f2:	28 30       	cpi	r18, 0x08	; 8
    21f4:	51 f1       	breq	.+84     	; 0x224a <__ultoa_invert+0x5c>
    21f6:	20 31       	cpi	r18, 0x10	; 16
    21f8:	81 f1       	breq	.+96     	; 0x225a <__ultoa_invert+0x6c>
    21fa:	e8 94       	clt
    21fc:	6f 93       	push	r22
    21fe:	6e 7f       	andi	r22, 0xFE	; 254
    2200:	6e 5f       	subi	r22, 0xFE	; 254
    2202:	7f 4f       	sbci	r23, 0xFF	; 255
    2204:	8f 4f       	sbci	r24, 0xFF	; 255
    2206:	9f 4f       	sbci	r25, 0xFF	; 255
    2208:	af 4f       	sbci	r26, 0xFF	; 255
    220a:	b1 e0       	ldi	r27, 0x01	; 1
    220c:	3e d0       	rcall	.+124    	; 0x228a <__ultoa_invert+0x9c>
    220e:	b4 e0       	ldi	r27, 0x04	; 4
    2210:	3c d0       	rcall	.+120    	; 0x228a <__ultoa_invert+0x9c>
    2212:	67 0f       	add	r22, r23
    2214:	78 1f       	adc	r23, r24
    2216:	89 1f       	adc	r24, r25
    2218:	9a 1f       	adc	r25, r26
    221a:	a1 1d       	adc	r26, r1
    221c:	68 0f       	add	r22, r24
    221e:	79 1f       	adc	r23, r25
    2220:	8a 1f       	adc	r24, r26
    2222:	91 1d       	adc	r25, r1
    2224:	a1 1d       	adc	r26, r1
    2226:	6a 0f       	add	r22, r26
    2228:	71 1d       	adc	r23, r1
    222a:	81 1d       	adc	r24, r1
    222c:	91 1d       	adc	r25, r1
    222e:	a1 1d       	adc	r26, r1
    2230:	20 d0       	rcall	.+64     	; 0x2272 <__ultoa_invert+0x84>
    2232:	09 f4       	brne	.+2      	; 0x2236 <__ultoa_invert+0x48>
    2234:	68 94       	set
    2236:	3f 91       	pop	r19
    2238:	2a e0       	ldi	r18, 0x0A	; 10
    223a:	26 9f       	mul	r18, r22
    223c:	11 24       	eor	r1, r1
    223e:	30 19       	sub	r19, r0
    2240:	30 5d       	subi	r19, 0xD0	; 208
    2242:	31 93       	st	Z+, r19
    2244:	de f6       	brtc	.-74     	; 0x21fc <__ultoa_invert+0xe>
    2246:	cf 01       	movw	r24, r30
    2248:	08 95       	ret
    224a:	46 2f       	mov	r20, r22
    224c:	47 70       	andi	r20, 0x07	; 7
    224e:	40 5d       	subi	r20, 0xD0	; 208
    2250:	41 93       	st	Z+, r20
    2252:	b3 e0       	ldi	r27, 0x03	; 3
    2254:	0f d0       	rcall	.+30     	; 0x2274 <__ultoa_invert+0x86>
    2256:	c9 f7       	brne	.-14     	; 0x224a <__ultoa_invert+0x5c>
    2258:	f6 cf       	rjmp	.-20     	; 0x2246 <__ultoa_invert+0x58>
    225a:	46 2f       	mov	r20, r22
    225c:	4f 70       	andi	r20, 0x0F	; 15
    225e:	40 5d       	subi	r20, 0xD0	; 208
    2260:	4a 33       	cpi	r20, 0x3A	; 58
    2262:	18 f0       	brcs	.+6      	; 0x226a <__ultoa_invert+0x7c>
    2264:	49 5d       	subi	r20, 0xD9	; 217
    2266:	31 fd       	sbrc	r19, 1
    2268:	40 52       	subi	r20, 0x20	; 32
    226a:	41 93       	st	Z+, r20
    226c:	02 d0       	rcall	.+4      	; 0x2272 <__ultoa_invert+0x84>
    226e:	a9 f7       	brne	.-22     	; 0x225a <__ultoa_invert+0x6c>
    2270:	ea cf       	rjmp	.-44     	; 0x2246 <__ultoa_invert+0x58>
    2272:	b4 e0       	ldi	r27, 0x04	; 4
    2274:	a6 95       	lsr	r26
    2276:	97 95       	ror	r25
    2278:	87 95       	ror	r24
    227a:	77 95       	ror	r23
    227c:	67 95       	ror	r22
    227e:	ba 95       	dec	r27
    2280:	c9 f7       	brne	.-14     	; 0x2274 <__ultoa_invert+0x86>
    2282:	00 97       	sbiw	r24, 0x00	; 0
    2284:	61 05       	cpc	r22, r1
    2286:	71 05       	cpc	r23, r1
    2288:	08 95       	ret
    228a:	9b 01       	movw	r18, r22
    228c:	ac 01       	movw	r20, r24
    228e:	0a 2e       	mov	r0, r26
    2290:	06 94       	lsr	r0
    2292:	57 95       	ror	r21
    2294:	47 95       	ror	r20
    2296:	37 95       	ror	r19
    2298:	27 95       	ror	r18
    229a:	ba 95       	dec	r27
    229c:	c9 f7       	brne	.-14     	; 0x2290 <__ultoa_invert+0xa2>
    229e:	62 0f       	add	r22, r18
    22a0:	73 1f       	adc	r23, r19
    22a2:	84 1f       	adc	r24, r20
    22a4:	95 1f       	adc	r25, r21
    22a6:	a0 1d       	adc	r26, r0
    22a8:	08 95       	ret

000022aa <_exit>:
    22aa:	f8 94       	cli

000022ac <__stop_program>:
    22ac:	ff cf       	rjmp	.-2      	; 0x22ac <__stop_program>
